{
	"contract/tokens.sol": {
		"SimpleVRC25Token": {
			"abi": [
				{
					"inputs": [
						{
							"internalType": "string",
							"name": "name_",
							"type": "string"
						},
						{
							"internalType": "string",
							"name": "symbol_",
							"type": "string"
						},
						{
							"internalType": "uint8",
							"name": "decimals_",
							"type": "uint8"
						},
						{
							"internalType": "uint256",
							"name": "initialSupply",
							"type": "uint256"
						},
						{
							"internalType": "uint256",
							"name": "minFee_",
							"type": "uint256"
						}
					],
					"stateMutability": "nonpayable",
					"type": "constructor"
				},
				{
					"anonymous": false,
					"inputs": [
						{
							"indexed": true,
							"internalType": "address",
							"name": "owner",
							"type": "address"
						},
						{
							"indexed": true,
							"internalType": "address",
							"name": "spender",
							"type": "address"
						},
						{
							"indexed": false,
							"internalType": "uint256",
							"name": "value",
							"type": "uint256"
						}
					],
					"name": "Approval",
					"type": "event"
				},
				{
					"anonymous": false,
					"inputs": [
						{
							"indexed": true,
							"internalType": "address",
							"name": "from",
							"type": "address"
						},
						{
							"indexed": true,
							"internalType": "address",
							"name": "to",
							"type": "address"
						},
						{
							"indexed": true,
							"internalType": "address",
							"name": "issuer",
							"type": "address"
						},
						{
							"indexed": false,
							"internalType": "uint256",
							"name": "amount",
							"type": "uint256"
						}
					],
					"name": "Fee",
					"type": "event"
				},
				{
					"anonymous": false,
					"inputs": [
						{
							"indexed": true,
							"internalType": "address",
							"name": "previousOwner",
							"type": "address"
						},
						{
							"indexed": true,
							"internalType": "address",
							"name": "newOwner",
							"type": "address"
						}
					],
					"name": "OwnershipTransferred",
					"type": "event"
				},
				{
					"anonymous": false,
					"inputs": [
						{
							"indexed": true,
							"internalType": "address",
							"name": "from",
							"type": "address"
						},
						{
							"indexed": true,
							"internalType": "address",
							"name": "to",
							"type": "address"
						},
						{
							"indexed": false,
							"internalType": "uint256",
							"name": "value",
							"type": "uint256"
						}
					],
					"name": "Transfer",
					"type": "event"
				},
				{
					"inputs": [
						{
							"internalType": "address",
							"name": "owner",
							"type": "address"
						},
						{
							"internalType": "address",
							"name": "spender",
							"type": "address"
						}
					],
					"name": "allowance",
					"outputs": [
						{
							"internalType": "uint256",
							"name": "",
							"type": "uint256"
						}
					],
					"stateMutability": "view",
					"type": "function"
				},
				{
					"inputs": [
						{
							"internalType": "address",
							"name": "spender",
							"type": "address"
						},
						{
							"internalType": "uint256",
							"name": "amount",
							"type": "uint256"
						}
					],
					"name": "approve",
					"outputs": [
						{
							"internalType": "bool",
							"name": "",
							"type": "bool"
						}
					],
					"stateMutability": "nonpayable",
					"type": "function"
				},
				{
					"inputs": [
						{
							"internalType": "address",
							"name": "account",
							"type": "address"
						}
					],
					"name": "balanceOf",
					"outputs": [
						{
							"internalType": "uint256",
							"name": "",
							"type": "uint256"
						}
					],
					"stateMutability": "view",
					"type": "function"
				},
				{
					"inputs": [],
					"name": "decimals",
					"outputs": [
						{
							"internalType": "uint8",
							"name": "",
							"type": "uint8"
						}
					],
					"stateMutability": "view",
					"type": "function"
				},
				{
					"inputs": [
						{
							"internalType": "address",
							"name": "spender",
							"type": "address"
						},
						{
							"internalType": "uint256",
							"name": "subtractedValue",
							"type": "uint256"
						}
					],
					"name": "decreaseAllowance",
					"outputs": [
						{
							"internalType": "bool",
							"name": "",
							"type": "bool"
						}
					],
					"stateMutability": "nonpayable",
					"type": "function"
				},
				{
					"inputs": [
						{
							"internalType": "uint256",
							"name": "value",
							"type": "uint256"
						}
					],
					"name": "estimateFee",
					"outputs": [
						{
							"internalType": "uint256",
							"name": "",
							"type": "uint256"
						}
					],
					"stateMutability": "view",
					"type": "function"
				},
				{
					"inputs": [
						{
							"internalType": "address",
							"name": "spender",
							"type": "address"
						},
						{
							"internalType": "uint256",
							"name": "addedValue",
							"type": "uint256"
						}
					],
					"name": "increaseAllowance",
					"outputs": [
						{
							"internalType": "bool",
							"name": "",
							"type": "bool"
						}
					],
					"stateMutability": "nonpayable",
					"type": "function"
				},
				{
					"inputs": [
						{
							"internalType": "address",
							"name": "account",
							"type": "address"
						}
					],
					"name": "isContract",
					"outputs": [
						{
							"internalType": "bool",
							"name": "",
							"type": "bool"
						}
					],
					"stateMutability": "view",
					"type": "function"
				},
				{
					"inputs": [],
					"name": "issuer",
					"outputs": [
						{
							"internalType": "address",
							"name": "",
							"type": "address"
						}
					],
					"stateMutability": "view",
					"type": "function"
				},
				{
					"inputs": [],
					"name": "minFee",
					"outputs": [
						{
							"internalType": "uint256",
							"name": "",
							"type": "uint256"
						}
					],
					"stateMutability": "view",
					"type": "function"
				},
				{
					"inputs": [],
					"name": "name",
					"outputs": [
						{
							"internalType": "string",
							"name": "",
							"type": "string"
						}
					],
					"stateMutability": "view",
					"type": "function"
				},
				{
					"inputs": [],
					"name": "owner",
					"outputs": [
						{
							"internalType": "address",
							"name": "",
							"type": "address"
						}
					],
					"stateMutability": "view",
					"type": "function"
				},
				{
					"inputs": [],
					"name": "renounceOwnership",
					"outputs": [],
					"stateMutability": "nonpayable",
					"type": "function"
				},
				{
					"inputs": [
						{
							"internalType": "uint256",
							"name": "newMinFee",
							"type": "uint256"
						}
					],
					"name": "setMinFee",
					"outputs": [],
					"stateMutability": "nonpayable",
					"type": "function"
				},
				{
					"inputs": [],
					"name": "symbol",
					"outputs": [
						{
							"internalType": "string",
							"name": "",
							"type": "string"
						}
					],
					"stateMutability": "view",
					"type": "function"
				},
				{
					"inputs": [],
					"name": "totalSupply",
					"outputs": [
						{
							"internalType": "uint256",
							"name": "",
							"type": "uint256"
						}
					],
					"stateMutability": "view",
					"type": "function"
				},
				{
					"inputs": [
						{
							"internalType": "address",
							"name": "recipient",
							"type": "address"
						},
						{
							"internalType": "uint256",
							"name": "amount",
							"type": "uint256"
						}
					],
					"name": "transfer",
					"outputs": [
						{
							"internalType": "bool",
							"name": "",
							"type": "bool"
						}
					],
					"stateMutability": "nonpayable",
					"type": "function"
				},
				{
					"inputs": [
						{
							"internalType": "address",
							"name": "sender",
							"type": "address"
						},
						{
							"internalType": "address",
							"name": "recipient",
							"type": "address"
						},
						{
							"internalType": "uint256",
							"name": "amount",
							"type": "uint256"
						}
					],
					"name": "transferFrom",
					"outputs": [
						{
							"internalType": "bool",
							"name": "",
							"type": "bool"
						}
					],
					"stateMutability": "nonpayable",
					"type": "function"
				},
				{
					"inputs": [
						{
							"internalType": "address",
							"name": "newOwner",
							"type": "address"
						}
					],
					"name": "transferOwnership",
					"outputs": [],
					"stateMutability": "nonpayable",
					"type": "function"
				}
			],
			"devdoc": {
				"kind": "dev",
				"methods": {
					"allowance(address,address)": {
						"details": "See {IERC20-allowance}."
					},
					"approve(address,uint256)": {
						"details": "See {IERC20-approve}. NOTE: If `amount` is the maximum `uint256`, the allowance is not updated on `transferFrom`. This is semantically equivalent to an infinite approval. Requirements: - `spender` cannot be the zero address."
					},
					"balanceOf(address)": {
						"details": "See {IERC20-balanceOf}."
					},
					"decimals()": {
						"details": "Returns the number of decimals used to get its user representation. For example, if `decimals` equals `2`, a balance of `505` tokens should be displayed to a user as `5.05` (`505 / 10 ** 2`). Tokens usually opt for a value of 18, imitating the relationship between Ether and Wei. This is the value {ERC20} uses, unless this function is overridden; NOTE: This information is only used for _display_ purposes: it in no way affects any of the arithmetic of the contract, including {IERC20-balanceOf} and {IERC20-transfer}."
					},
					"decreaseAllowance(address,uint256)": {
						"details": "Atomically decreases the allowance granted to `spender` by the caller. This is an alternative to {approve} that can be used as a mitigation for problems described in {IERC20-approve}. Emits an {Approval} event indicating the updated allowance. Requirements: - `spender` cannot be the zero address. - `spender` must have allowance for the caller of at least `subtractedValue`."
					},
					"increaseAllowance(address,uint256)": {
						"details": "Atomically increases the allowance granted to `spender` by the caller. This is an alternative to {approve} that can be used as a mitigation for problems described in {IERC20-approve}. Emits an {Approval} event indicating the updated allowance. Requirements: - `spender` cannot be the zero address."
					},
					"name()": {
						"details": "Returns the name of the token."
					},
					"owner()": {
						"details": "Returns the address of the current owner."
					},
					"renounceOwnership()": {
						"details": "Leaves the contract without owner. It will not be possible to call `onlyOwner` functions anymore. Can only be called by the current owner. NOTE: Renouncing ownership will leave the contract without an owner, thereby removing any functionality that is only available to the owner."
					},
					"symbol()": {
						"details": "Returns the symbol of the token, usually a shorter version of the name."
					},
					"totalSupply()": {
						"details": "See {IERC20-totalSupply}."
					},
					"transferOwnership(address)": {
						"details": "Transfers ownership of the contract to a new account (`newOwner`). Can only be called by the current owner."
					}
				},
				"version": 1
			},
			"evm": {
				"assembly": "    /* \"contract/tokens.sol\":953:4232  contract SimpleVRC25Token is ERC20, Ownable, IVRC25 {... */\n  mstore(0x40, 0x80)\n    /* \"contract/tokens.sol\":1309:1679  constructor(... */\n  callvalue\n  dup1\n  iszero\n  tag_1\n  jumpi\n  0x00\n  dup1\n  revert\ntag_1:\n  pop\n  mload(0x40)\n  sub(codesize, bytecodeSize)\n  dup1\n  bytecodeSize\n  dup4\n  codecopy\n  dup2\n  dup2\n  add\n  0x40\n  mstore\n  dup2\n  add\n  swap1\n  tag_2\n  swap2\n  swap1\n  tag_3\n  jump\t// in\ntag_2:\n    /* \"contract/tokens.sol\":1489:1494  name_ */\n  dup5\n    /* \"contract/tokens.sol\":1496:1503  symbol_ */\n  dup5\n    /* \"https://github.com/OpenZeppelin/openzeppelin-contracts/blob/v4.8.3/contracts/token/ERC20/ERC20.sol\":2050:2055  name_ */\n  dup2\n    /* \"https://github.com/OpenZeppelin/openzeppelin-contracts/blob/v4.8.3/contracts/token/ERC20/ERC20.sol\":2042:2047  _name */\n  0x03\n    /* \"https://github.com/OpenZeppelin/openzeppelin-contracts/blob/v4.8.3/contracts/token/ERC20/ERC20.sol\":2042:2055  _name = name_ */\n  swap1\n  dup2\n  tag_8\n  swap2\n  swap1\n  tag_9\n  jump\t// in\ntag_8:\n  pop\n    /* \"https://github.com/OpenZeppelin/openzeppelin-contracts/blob/v4.8.3/contracts/token/ERC20/ERC20.sol\":2075:2082  symbol_ */\n  dup1\n    /* \"https://github.com/OpenZeppelin/openzeppelin-contracts/blob/v4.8.3/contracts/token/ERC20/ERC20.sol\":2065:2072  _symbol */\n  0x04\n    /* \"https://github.com/OpenZeppelin/openzeppelin-contracts/blob/v4.8.3/contracts/token/ERC20/ERC20.sol\":2065:2082  _symbol = symbol_ */\n  swap1\n  dup2\n  tag_10\n  swap2\n  swap1\n  tag_9\n  jump\t// in\ntag_10:\n  pop\n    /* \"https://github.com/OpenZeppelin/openzeppelin-contracts/blob/v4.8.3/contracts/token/ERC20/ERC20.sol\":1976:2089  constructor(string memory name_, string memory symbol_) {... */\n  pop\n  pop\n    /* \"https://github.com/OpenZeppelin/openzeppelin-contracts/blob/v4.8.3/contracts/access/Ownable.sol\":936:968  _transferOwnership(_msgSender()) */\n  tag_12\n    /* \"https://github.com/OpenZeppelin/openzeppelin-contracts/blob/v4.8.3/contracts/access/Ownable.sol\":955:967  _msgSender() */\n  tag_13\n    /* \"https://github.com/OpenZeppelin/openzeppelin-contracts/blob/v4.8.3/contracts/access/Ownable.sol\":955:965  _msgSender */\n  shl(0x20, tag_14)\n    /* \"https://github.com/OpenZeppelin/openzeppelin-contracts/blob/v4.8.3/contracts/access/Ownable.sol\":955:967  _msgSender() */\n  0x20\n  shr\n  jump\t// in\ntag_13:\n    /* \"https://github.com/OpenZeppelin/openzeppelin-contracts/blob/v4.8.3/contracts/access/Ownable.sol\":936:954  _transferOwnership */\n  shl(0x20, tag_15)\n    /* \"https://github.com/OpenZeppelin/openzeppelin-contracts/blob/v4.8.3/contracts/access/Ownable.sol\":936:968  _transferOwnership(_msgSender()) */\n  0x20\n  shr\n  jump\t// in\ntag_12:\n    /* \"contract/tokens.sol\":1583:1590  minFee_ */\n  dup1\n    /* \"contract/tokens.sol\":1573:1580  _minFee */\n  0x06\n    /* \"contract/tokens.sol\":1573:1590  _minFee = minFee_ */\n  dup2\n  swap1\n  sstore\n  pop\n    /* \"contract/tokens.sol\":1619:1628  decimals_ */\n  dup3\n    /* \"contract/tokens.sol\":1601:1616  _customDecimals */\n  0x07\n  0x00\n    /* \"contract/tokens.sol\":1601:1628  _customDecimals = decimals_ */\n  0x0100\n  exp\n  dup2\n  sload\n  dup2\n  0xff\n  mul\n  not\n  and\n  swap1\n  dup4\n  0xff\n  and\n  mul\n  or\n  swap1\n  sstore\n  pop\n    /* \"contract/tokens.sol\":1639:1671  _mint(msg.sender, initialSupply) */\n  tag_17\n    /* \"contract/tokens.sol\":1645:1655  msg.sender */\n  caller\n    /* \"contract/tokens.sol\":1657:1670  initialSupply */\n  dup4\n    /* \"contract/tokens.sol\":1639:1644  _mint */\n  shl(0x20, tag_18)\n    /* \"contract/tokens.sol\":1639:1671  _mint(msg.sender, initialSupply) */\n  0x20\n  shr\n  jump\t// in\ntag_17:\n    /* \"contract/tokens.sol\":1309:1679  constructor(... */\n  pop\n  pop\n  pop\n  pop\n  pop\n    /* \"contract/tokens.sol\":953:4232  contract SimpleVRC25Token is ERC20, Ownable, IVRC25 {... */\n  jump(tag_19)\n    /* \"https://github.com/OpenZeppelin/openzeppelin-contracts/blob/v4.8.3/contracts/utils/Context.sol\":640:736  function _msgSender() internal view virtual returns (address) {... */\ntag_14:\n    /* \"https://github.com/OpenZeppelin/openzeppelin-contracts/blob/v4.8.3/contracts/utils/Context.sol\":693:700  address */\n  0x00\n    /* \"https://github.com/OpenZeppelin/openzeppelin-contracts/blob/v4.8.3/contracts/utils/Context.sol\":719:729  msg.sender */\n  caller\n    /* \"https://github.com/OpenZeppelin/openzeppelin-contracts/blob/v4.8.3/contracts/utils/Context.sol\":712:729  return msg.sender */\n  swap1\n  pop\n    /* \"https://github.com/OpenZeppelin/openzeppelin-contracts/blob/v4.8.3/contracts/utils/Context.sol\":640:736  function _msgSender() internal view virtual returns (address) {... */\n  swap1\n  jump\t// out\n    /* \"https://github.com/OpenZeppelin/openzeppelin-contracts/blob/v4.8.3/contracts/access/Ownable.sol\":2433:2620  function _transferOwnership(address newOwner) internal virtual {... */\ntag_15:\n    /* \"https://github.com/OpenZeppelin/openzeppelin-contracts/blob/v4.8.3/contracts/access/Ownable.sol\":2506:2522  address oldOwner */\n  0x00\n    /* \"https://github.com/OpenZeppelin/openzeppelin-contracts/blob/v4.8.3/contracts/access/Ownable.sol\":2525:2531  _owner */\n  0x05\n  0x00\n  swap1\n  sload\n  swap1\n  0x0100\n  exp\n  swap1\n  div\n  0xffffffffffffffffffffffffffffffffffffffff\n  and\n    /* \"https://github.com/OpenZeppelin/openzeppelin-contracts/blob/v4.8.3/contracts/access/Ownable.sol\":2506:2531  address oldOwner = _owner */\n  swap1\n  pop\n    /* \"https://github.com/OpenZeppelin/openzeppelin-contracts/blob/v4.8.3/contracts/access/Ownable.sol\":2550:2558  newOwner */\n  dup2\n    /* \"https://github.com/OpenZeppelin/openzeppelin-contracts/blob/v4.8.3/contracts/access/Ownable.sol\":2541:2547  _owner */\n  0x05\n  0x00\n    /* \"https://github.com/OpenZeppelin/openzeppelin-contracts/blob/v4.8.3/contracts/access/Ownable.sol\":2541:2558  _owner = newOwner */\n  0x0100\n  exp\n  dup2\n  sload\n  dup2\n  0xffffffffffffffffffffffffffffffffffffffff\n  mul\n  not\n  and\n  swap1\n  dup4\n  0xffffffffffffffffffffffffffffffffffffffff\n  and\n  mul\n  or\n  swap1\n  sstore\n  pop\n    /* \"https://github.com/OpenZeppelin/openzeppelin-contracts/blob/v4.8.3/contracts/access/Ownable.sol\":2604:2612  newOwner */\n  dup2\n    /* \"https://github.com/OpenZeppelin/openzeppelin-contracts/blob/v4.8.3/contracts/access/Ownable.sol\":2573:2613  OwnershipTransferred(oldOwner, newOwner) */\n  0xffffffffffffffffffffffffffffffffffffffff\n  and\n    /* \"https://github.com/OpenZeppelin/openzeppelin-contracts/blob/v4.8.3/contracts/access/Ownable.sol\":2594:2602  oldOwner */\n  dup2\n    /* \"https://github.com/OpenZeppelin/openzeppelin-contracts/blob/v4.8.3/contracts/access/Ownable.sol\":2573:2613  OwnershipTransferred(oldOwner, newOwner) */\n  0xffffffffffffffffffffffffffffffffffffffff\n  and\n  0x8be0079c531659141344cd1fd0a4f28419497f9722a3daafe3b4186f6b6457e0\n  mload(0x40)\n  mload(0x40)\n  dup1\n  swap2\n  sub\n  swap1\n  log3\n    /* \"https://github.com/OpenZeppelin/openzeppelin-contracts/blob/v4.8.3/contracts/access/Ownable.sol\":2496:2620  {... */\n  pop\n    /* \"https://github.com/OpenZeppelin/openzeppelin-contracts/blob/v4.8.3/contracts/access/Ownable.sol\":2433:2620  function _transferOwnership(address newOwner) internal virtual {... */\n  pop\n  jump\t// out\n    /* \"https://github.com/OpenZeppelin/openzeppelin-contracts/blob/v4.8.3/contracts/token/ERC20/ERC20.sol\":8567:9102  function _mint(address account, uint256 amount) internal virtual {... */\ntag_18:\n    /* \"https://github.com/OpenZeppelin/openzeppelin-contracts/blob/v4.8.3/contracts/token/ERC20/ERC20.sol\":8669:8670  0 */\n  0x00\n    /* \"https://github.com/OpenZeppelin/openzeppelin-contracts/blob/v4.8.3/contracts/token/ERC20/ERC20.sol\":8650:8671  account != address(0) */\n  0xffffffffffffffffffffffffffffffffffffffff\n  and\n    /* \"https://github.com/OpenZeppelin/openzeppelin-contracts/blob/v4.8.3/contracts/token/ERC20/ERC20.sol\":8650:8657  account */\n  dup3\n    /* \"https://github.com/OpenZeppelin/openzeppelin-contracts/blob/v4.8.3/contracts/token/ERC20/ERC20.sol\":8650:8671  account != address(0) */\n  0xffffffffffffffffffffffffffffffffffffffff\n  and\n  sub\n    /* \"https://github.com/OpenZeppelin/openzeppelin-contracts/blob/v4.8.3/contracts/token/ERC20/ERC20.sol\":8642:8707  require(account != address(0), \"ERC20: mint to the zero address\") */\n  tag_23\n  jumpi\n  mload(0x40)\n  0x08c379a000000000000000000000000000000000000000000000000000000000\n  dup2\n  mstore\n  0x04\n  add\n  tag_24\n  swap1\n  tag_25\n  jump\t// in\ntag_24:\n  mload(0x40)\n  dup1\n  swap2\n  sub\n  swap1\n  revert\ntag_23:\n    /* \"https://github.com/OpenZeppelin/openzeppelin-contracts/blob/v4.8.3/contracts/token/ERC20/ERC20.sol\":8718:8767  _beforeTokenTransfer(address(0), account, amount) */\n  tag_26\n    /* \"https://github.com/OpenZeppelin/openzeppelin-contracts/blob/v4.8.3/contracts/token/ERC20/ERC20.sol\":8747:8748  0 */\n  0x00\n    /* \"https://github.com/OpenZeppelin/openzeppelin-contracts/blob/v4.8.3/contracts/token/ERC20/ERC20.sol\":8751:8758  account */\n  dup4\n    /* \"https://github.com/OpenZeppelin/openzeppelin-contracts/blob/v4.8.3/contracts/token/ERC20/ERC20.sol\":8760:8766  amount */\n  dup4\n    /* \"https://github.com/OpenZeppelin/openzeppelin-contracts/blob/v4.8.3/contracts/token/ERC20/ERC20.sol\":8718:8738  _beforeTokenTransfer */\n  shl(0x20, tag_27)\n    /* \"https://github.com/OpenZeppelin/openzeppelin-contracts/blob/v4.8.3/contracts/token/ERC20/ERC20.sol\":8718:8767  _beforeTokenTransfer(address(0), account, amount) */\n  0x20\n  shr\n  jump\t// in\ntag_26:\n    /* \"https://github.com/OpenZeppelin/openzeppelin-contracts/blob/v4.8.3/contracts/token/ERC20/ERC20.sol\":8794:8800  amount */\n  dup1\n    /* \"https://github.com/OpenZeppelin/openzeppelin-contracts/blob/v4.8.3/contracts/token/ERC20/ERC20.sol\":8778:8790  _totalSupply */\n  0x02\n  0x00\n    /* \"https://github.com/OpenZeppelin/openzeppelin-contracts/blob/v4.8.3/contracts/token/ERC20/ERC20.sol\":8778:8800  _totalSupply += amount */\n  dup3\n  dup3\n  sload\n  tag_28\n  swap2\n  swap1\n  tag_29\n  jump\t// in\ntag_28:\n  swap3\n  pop\n  pop\n  dup2\n  swap1\n  sstore\n  pop\n    /* \"https://github.com/OpenZeppelin/openzeppelin-contracts/blob/v4.8.3/contracts/token/ERC20/ERC20.sol\":8968:8974  amount */\n  dup1\n    /* \"https://github.com/OpenZeppelin/openzeppelin-contracts/blob/v4.8.3/contracts/token/ERC20/ERC20.sol\":8946:8955  _balances */\n  0x00\n    /* \"https://github.com/OpenZeppelin/openzeppelin-contracts/blob/v4.8.3/contracts/token/ERC20/ERC20.sol\":8946:8964  _balances[account] */\n  dup1\n    /* \"https://github.com/OpenZeppelin/openzeppelin-contracts/blob/v4.8.3/contracts/token/ERC20/ERC20.sol\":8956:8963  account */\n  dup5\n    /* \"https://github.com/OpenZeppelin/openzeppelin-contracts/blob/v4.8.3/contracts/token/ERC20/ERC20.sol\":8946:8964  _balances[account] */\n  0xffffffffffffffffffffffffffffffffffffffff\n  and\n  0xffffffffffffffffffffffffffffffffffffffff\n  and\n  dup2\n  mstore\n  0x20\n  add\n  swap1\n  dup2\n  mstore\n  0x20\n  add\n  0x00\n  keccak256\n  0x00\n    /* \"https://github.com/OpenZeppelin/openzeppelin-contracts/blob/v4.8.3/contracts/token/ERC20/ERC20.sol\":8946:8974  _balances[account] += amount */\n  dup3\n  dup3\n  sload\n  add\n  swap3\n  pop\n  pop\n  dup2\n  swap1\n  sstore\n  pop\n    /* \"https://github.com/OpenZeppelin/openzeppelin-contracts/blob/v4.8.3/contracts/token/ERC20/ERC20.sol\":9020:9027  account */\n  dup2\n    /* \"https://github.com/OpenZeppelin/openzeppelin-contracts/blob/v4.8.3/contracts/token/ERC20/ERC20.sol\":8999:9036  Transfer(address(0), account, amount) */\n  0xffffffffffffffffffffffffffffffffffffffff\n  and\n    /* \"https://github.com/OpenZeppelin/openzeppelin-contracts/blob/v4.8.3/contracts/token/ERC20/ERC20.sol\":9016:9017  0 */\n  0x00\n    /* \"https://github.com/OpenZeppelin/openzeppelin-contracts/blob/v4.8.3/contracts/token/ERC20/ERC20.sol\":8999:9036  Transfer(address(0), account, amount) */\n  0xffffffffffffffffffffffffffffffffffffffff\n  and\n  0xddf252ad1be2c89b69c2b068fc378daa952ba7f163c4a11628f55a4df523b3ef\n    /* \"https://github.com/OpenZeppelin/openzeppelin-contracts/blob/v4.8.3/contracts/token/ERC20/ERC20.sol\":9029:9035  amount */\n  dup4\n    /* \"https://github.com/OpenZeppelin/openzeppelin-contracts/blob/v4.8.3/contracts/token/ERC20/ERC20.sol\":8999:9036  Transfer(address(0), account, amount) */\n  mload(0x40)\n  tag_30\n  swap2\n  swap1\n  tag_31\n  jump\t// in\ntag_30:\n  mload(0x40)\n  dup1\n  swap2\n  sub\n  swap1\n  log3\n    /* \"https://github.com/OpenZeppelin/openzeppelin-contracts/blob/v4.8.3/contracts/token/ERC20/ERC20.sol\":9047:9095  _afterTokenTransfer(address(0), account, amount) */\n  tag_32\n    /* \"https://github.com/OpenZeppelin/openzeppelin-contracts/blob/v4.8.3/contracts/token/ERC20/ERC20.sol\":9075:9076  0 */\n  0x00\n    /* \"https://github.com/OpenZeppelin/openzeppelin-contracts/blob/v4.8.3/contracts/token/ERC20/ERC20.sol\":9079:9086  account */\n  dup4\n    /* \"https://github.com/OpenZeppelin/openzeppelin-contracts/blob/v4.8.3/contracts/token/ERC20/ERC20.sol\":9088:9094  amount */\n  dup4\n    /* \"https://github.com/OpenZeppelin/openzeppelin-contracts/blob/v4.8.3/contracts/token/ERC20/ERC20.sol\":9047:9066  _afterTokenTransfer */\n  shl(0x20, tag_33)\n    /* \"https://github.com/OpenZeppelin/openzeppelin-contracts/blob/v4.8.3/contracts/token/ERC20/ERC20.sol\":9047:9095  _afterTokenTransfer(address(0), account, amount) */\n  0x20\n  shr\n  jump\t// in\ntag_32:\n    /* \"https://github.com/OpenZeppelin/openzeppelin-contracts/blob/v4.8.3/contracts/token/ERC20/ERC20.sol\":8567:9102  function _mint(address account, uint256 amount) internal virtual {... */\n  pop\n  pop\n  jump\t// out\n    /* \"https://github.com/OpenZeppelin/openzeppelin-contracts/blob/v4.8.3/contracts/token/ERC20/ERC20.sol\":12180:12301  function _beforeTokenTransfer(... */\ntag_27:\n  pop\n  pop\n  pop\n  jump\t// out\n    /* \"https://github.com/OpenZeppelin/openzeppelin-contracts/blob/v4.8.3/contracts/token/ERC20/ERC20.sol\":12889:13009  function _afterTokenTransfer(... */\ntag_33:\n  pop\n  pop\n  pop\n  jump\t// out\n    /* \"#utility.yul\":7:82   */\ntag_36:\n    /* \"#utility.yul\":40:46   */\n  0x00\n    /* \"#utility.yul\":73:75   */\n  0x40\n    /* \"#utility.yul\":67:76   */\n  mload\n    /* \"#utility.yul\":57:76   */\n  swap1\n  pop\n    /* \"#utility.yul\":7:82   */\n  swap1\n  jump\t// out\n    /* \"#utility.yul\":88:205   */\ntag_37:\n    /* \"#utility.yul\":197:198   */\n  0x00\n    /* \"#utility.yul\":194:195   */\n  dup1\n    /* \"#utility.yul\":187:199   */\n  revert\n    /* \"#utility.yul\":211:328   */\ntag_38:\n    /* \"#utility.yul\":320:321   */\n  0x00\n    /* \"#utility.yul\":317:318   */\n  dup1\n    /* \"#utility.yul\":310:322   */\n  revert\n    /* \"#utility.yul\":334:451   */\ntag_39:\n    /* \"#utility.yul\":443:444   */\n  0x00\n    /* \"#utility.yul\":440:441   */\n  dup1\n    /* \"#utility.yul\":433:445   */\n  revert\n    /* \"#utility.yul\":457:574   */\ntag_40:\n    /* \"#utility.yul\":566:567   */\n  0x00\n    /* \"#utility.yul\":563:564   */\n  dup1\n    /* \"#utility.yul\":556:568   */\n  revert\n    /* \"#utility.yul\":580:682   */\ntag_41:\n    /* \"#utility.yul\":621:627   */\n  0x00\n    /* \"#utility.yul\":672:674   */\n  0x1f\n    /* \"#utility.yul\":668:675   */\n  not\n    /* \"#utility.yul\":663:665   */\n  0x1f\n    /* \"#utility.yul\":656:661   */\n  dup4\n    /* \"#utility.yul\":652:666   */\n  add\n    /* \"#utility.yul\":648:676   */\n  and\n    /* \"#utility.yul\":638:676   */\n  swap1\n  pop\n    /* \"#utility.yul\":580:682   */\n  swap2\n  swap1\n  pop\n  jump\t// out\n    /* \"#utility.yul\":688:868   */\ntag_42:\n    /* \"#utility.yul\":736:813   */\n  0x4e487b7100000000000000000000000000000000000000000000000000000000\n    /* \"#utility.yul\":733:734   */\n  0x00\n    /* \"#utility.yul\":726:814   */\n  mstore\n    /* \"#utility.yul\":833:837   */\n  0x41\n    /* \"#utility.yul\":830:831   */\n  0x04\n    /* \"#utility.yul\":823:838   */\n  mstore\n    /* \"#utility.yul\":857:861   */\n  0x24\n    /* \"#utility.yul\":854:855   */\n  0x00\n    /* \"#utility.yul\":847:862   */\n  revert\n    /* \"#utility.yul\":874:1155   */\ntag_43:\n    /* \"#utility.yul\":957:984   */\n  tag_87\n    /* \"#utility.yul\":979:983   */\n  dup3\n    /* \"#utility.yul\":957:984   */\n  tag_41\n  jump\t// in\ntag_87:\n    /* \"#utility.yul\":949:955   */\n  dup2\n    /* \"#utility.yul\":945:985   */\n  add\n    /* \"#utility.yul\":1087:1093   */\n  dup2\n    /* \"#utility.yul\":1075:1085   */\n  dup2\n    /* \"#utility.yul\":1072:1094   */\n  lt\n    /* \"#utility.yul\":1051:1069   */\n  0xffffffffffffffff\n    /* \"#utility.yul\":1039:1049   */\n  dup3\n    /* \"#utility.yul\":1036:1070   */\n  gt\n    /* \"#utility.yul\":1033:1095   */\n  or\n    /* \"#utility.yul\":1030:1118   */\n  iszero\n  tag_88\n  jumpi\n    /* \"#utility.yul\":1098:1116   */\n  tag_89\n  tag_42\n  jump\t// in\ntag_89:\n    /* \"#utility.yul\":1030:1118   */\ntag_88:\n    /* \"#utility.yul\":1138:1148   */\n  dup1\n    /* \"#utility.yul\":1134:1136   */\n  0x40\n    /* \"#utility.yul\":1127:1149   */\n  mstore\n    /* \"#utility.yul\":917:1155   */\n  pop\n    /* \"#utility.yul\":874:1155   */\n  pop\n  pop\n  jump\t// out\n    /* \"#utility.yul\":1161:1290   */\ntag_44:\n    /* \"#utility.yul\":1195:1201   */\n  0x00\n    /* \"#utility.yul\":1222:1242   */\n  tag_91\n  tag_36\n  jump\t// in\ntag_91:\n    /* \"#utility.yul\":1212:1242   */\n  swap1\n  pop\n    /* \"#utility.yul\":1251:1284   */\n  tag_92\n    /* \"#utility.yul\":1279:1283   */\n  dup3\n    /* \"#utility.yul\":1271:1277   */\n  dup3\n    /* \"#utility.yul\":1251:1284   */\n  tag_43\n  jump\t// in\ntag_92:\n    /* \"#utility.yul\":1161:1290   */\n  swap2\n  swap1\n  pop\n  jump\t// out\n    /* \"#utility.yul\":1296:1604   */\ntag_45:\n    /* \"#utility.yul\":1358:1362   */\n  0x00\n    /* \"#utility.yul\":1448:1466   */\n  0xffffffffffffffff\n    /* \"#utility.yul\":1440:1446   */\n  dup3\n    /* \"#utility.yul\":1437:1467   */\n  gt\n    /* \"#utility.yul\":1434:1490   */\n  iszero\n  tag_94\n  jumpi\n    /* \"#utility.yul\":1470:1488   */\n  tag_95\n  tag_42\n  jump\t// in\ntag_95:\n    /* \"#utility.yul\":1434:1490   */\ntag_94:\n    /* \"#utility.yul\":1508:1537   */\n  tag_96\n    /* \"#utility.yul\":1530:1536   */\n  dup3\n    /* \"#utility.yul\":1508:1537   */\n  tag_41\n  jump\t// in\ntag_96:\n    /* \"#utility.yul\":1500:1537   */\n  swap1\n  pop\n    /* \"#utility.yul\":1592:1596   */\n  0x20\n    /* \"#utility.yul\":1586:1590   */\n  dup2\n    /* \"#utility.yul\":1582:1597   */\n  add\n    /* \"#utility.yul\":1574:1597   */\n  swap1\n  pop\n    /* \"#utility.yul\":1296:1604   */\n  swap2\n  swap1\n  pop\n  jump\t// out\n    /* \"#utility.yul\":1610:1856   */\ntag_46:\n    /* \"#utility.yul\":1691:1692   */\n  0x00\n    /* \"#utility.yul\":1701:1814   */\ntag_98:\n    /* \"#utility.yul\":1715:1721   */\n  dup4\n    /* \"#utility.yul\":1712:1713   */\n  dup2\n    /* \"#utility.yul\":1709:1722   */\n  lt\n    /* \"#utility.yul\":1701:1814   */\n  iszero\n  tag_100\n  jumpi\n    /* \"#utility.yul\":1800:1801   */\n  dup1\n    /* \"#utility.yul\":1795:1798   */\n  dup3\n    /* \"#utility.yul\":1791:1802   */\n  add\n    /* \"#utility.yul\":1785:1803   */\n  mload\n    /* \"#utility.yul\":1781:1782   */\n  dup2\n    /* \"#utility.yul\":1776:1779   */\n  dup5\n    /* \"#utility.yul\":1772:1783   */\n  add\n    /* \"#utility.yul\":1765:1804   */\n  mstore\n    /* \"#utility.yul\":1737:1739   */\n  0x20\n    /* \"#utility.yul\":1734:1735   */\n  dup2\n    /* \"#utility.yul\":1730:1740   */\n  add\n    /* \"#utility.yul\":1725:1740   */\n  swap1\n  pop\n    /* \"#utility.yul\":1701:1814   */\n  jump(tag_98)\ntag_100:\n    /* \"#utility.yul\":1848:1849   */\n  0x00\n    /* \"#utility.yul\":1839:1845   */\n  dup5\n    /* \"#utility.yul\":1834:1837   */\n  dup5\n    /* \"#utility.yul\":1830:1846   */\n  add\n    /* \"#utility.yul\":1823:1850   */\n  mstore\n    /* \"#utility.yul\":1672:1856   */\n  pop\n    /* \"#utility.yul\":1610:1856   */\n  pop\n  pop\n  pop\n  jump\t// out\n    /* \"#utility.yul\":1862:2296   */\ntag_47:\n    /* \"#utility.yul\":1951:1956   */\n  0x00\n    /* \"#utility.yul\":1976:2042   */\n  tag_102\n    /* \"#utility.yul\":1992:2041   */\n  tag_103\n    /* \"#utility.yul\":2034:2040   */\n  dup5\n    /* \"#utility.yul\":1992:2041   */\n  tag_45\n  jump\t// in\ntag_103:\n    /* \"#utility.yul\":1976:2042   */\n  tag_44\n  jump\t// in\ntag_102:\n    /* \"#utility.yul\":1967:2042   */\n  swap1\n  pop\n    /* \"#utility.yul\":2065:2071   */\n  dup3\n    /* \"#utility.yul\":2058:2063   */\n  dup2\n    /* \"#utility.yul\":2051:2072   */\n  mstore\n    /* \"#utility.yul\":2103:2107   */\n  0x20\n    /* \"#utility.yul\":2096:2101   */\n  dup2\n    /* \"#utility.yul\":2092:2108   */\n  add\n    /* \"#utility.yul\":2141:2144   */\n  dup5\n    /* \"#utility.yul\":2132:2138   */\n  dup5\n    /* \"#utility.yul\":2127:2130   */\n  dup5\n    /* \"#utility.yul\":2123:2139   */\n  add\n    /* \"#utility.yul\":2120:2145   */\n  gt\n    /* \"#utility.yul\":2117:2229   */\n  iszero\n  tag_104\n  jumpi\n    /* \"#utility.yul\":2148:2227   */\n  tag_105\n  tag_40\n  jump\t// in\ntag_105:\n    /* \"#utility.yul\":2117:2229   */\ntag_104:\n    /* \"#utility.yul\":2238:2290   */\n  tag_106\n    /* \"#utility.yul\":2283:2289   */\n  dup5\n    /* \"#utility.yul\":2278:2281   */\n  dup3\n    /* \"#utility.yul\":2273:2276   */\n  dup6\n    /* \"#utility.yul\":2238:2290   */\n  tag_46\n  jump\t// in\ntag_106:\n    /* \"#utility.yul\":1957:2296   */\n  pop\n    /* \"#utility.yul\":1862:2296   */\n  swap4\n  swap3\n  pop\n  pop\n  pop\n  jump\t// out\n    /* \"#utility.yul\":2316:2671   */\ntag_48:\n    /* \"#utility.yul\":2383:2388   */\n  0x00\n    /* \"#utility.yul\":2432:2435   */\n  dup3\n    /* \"#utility.yul\":2425:2429   */\n  0x1f\n    /* \"#utility.yul\":2417:2423   */\n  dup4\n    /* \"#utility.yul\":2413:2430   */\n  add\n    /* \"#utility.yul\":2409:2436   */\n  slt\n    /* \"#utility.yul\":2399:2521   */\n  tag_108\n  jumpi\n    /* \"#utility.yul\":2440:2519   */\n  tag_109\n  tag_39\n  jump\t// in\ntag_109:\n    /* \"#utility.yul\":2399:2521   */\ntag_108:\n    /* \"#utility.yul\":2550:2556   */\n  dup2\n    /* \"#utility.yul\":2544:2557   */\n  mload\n    /* \"#utility.yul\":2575:2665   */\n  tag_110\n    /* \"#utility.yul\":2661:2664   */\n  dup5\n    /* \"#utility.yul\":2653:2659   */\n  dup3\n    /* \"#utility.yul\":2646:2650   */\n  0x20\n    /* \"#utility.yul\":2638:2644   */\n  dup7\n    /* \"#utility.yul\":2634:2651   */\n  add\n    /* \"#utility.yul\":2575:2665   */\n  tag_47\n  jump\t// in\ntag_110:\n    /* \"#utility.yul\":2566:2665   */\n  swap2\n  pop\n    /* \"#utility.yul\":2389:2671   */\n  pop\n    /* \"#utility.yul\":2316:2671   */\n  swap3\n  swap2\n  pop\n  pop\n  jump\t// out\n    /* \"#utility.yul\":2677:2763   */\ntag_49:\n    /* \"#utility.yul\":2712:2719   */\n  0x00\n    /* \"#utility.yul\":2752:2756   */\n  0xff\n    /* \"#utility.yul\":2745:2750   */\n  dup3\n    /* \"#utility.yul\":2741:2757   */\n  and\n    /* \"#utility.yul\":2730:2757   */\n  swap1\n  pop\n    /* \"#utility.yul\":2677:2763   */\n  swap2\n  swap1\n  pop\n  jump\t// out\n    /* \"#utility.yul\":2769:2887   */\ntag_50:\n    /* \"#utility.yul\":2840:2862   */\n  tag_113\n    /* \"#utility.yul\":2856:2861   */\n  dup2\n    /* \"#utility.yul\":2840:2862   */\n  tag_49\n  jump\t// in\ntag_113:\n    /* \"#utility.yul\":2833:2838   */\n  dup2\n    /* \"#utility.yul\":2830:2863   */\n  eq\n    /* \"#utility.yul\":2820:2881   */\n  tag_114\n  jumpi\n    /* \"#utility.yul\":2877:2878   */\n  0x00\n    /* \"#utility.yul\":2874:2875   */\n  dup1\n    /* \"#utility.yul\":2867:2879   */\n  revert\n    /* \"#utility.yul\":2820:2881   */\ntag_114:\n    /* \"#utility.yul\":2769:2887   */\n  pop\n  jump\t// out\n    /* \"#utility.yul\":2893:3032   */\ntag_51:\n    /* \"#utility.yul\":2948:2953   */\n  0x00\n    /* \"#utility.yul\":2979:2985   */\n  dup2\n    /* \"#utility.yul\":2973:2986   */\n  mload\n    /* \"#utility.yul\":2964:2986   */\n  swap1\n  pop\n    /* \"#utility.yul\":2995:3026   */\n  tag_116\n    /* \"#utility.yul\":3020:3025   */\n  dup2\n    /* \"#utility.yul\":2995:3026   */\n  tag_50\n  jump\t// in\ntag_116:\n    /* \"#utility.yul\":2893:3032   */\n  swap3\n  swap2\n  pop\n  pop\n  jump\t// out\n    /* \"#utility.yul\":3038:3115   */\ntag_52:\n    /* \"#utility.yul\":3075:3082   */\n  0x00\n    /* \"#utility.yul\":3104:3109   */\n  dup2\n    /* \"#utility.yul\":3093:3109   */\n  swap1\n  pop\n    /* \"#utility.yul\":3038:3115   */\n  swap2\n  swap1\n  pop\n  jump\t// out\n    /* \"#utility.yul\":3121:3243   */\ntag_53:\n    /* \"#utility.yul\":3194:3218   */\n  tag_119\n    /* \"#utility.yul\":3212:3217   */\n  dup2\n    /* \"#utility.yul\":3194:3218   */\n  tag_52\n  jump\t// in\ntag_119:\n    /* \"#utility.yul\":3187:3192   */\n  dup2\n    /* \"#utility.yul\":3184:3219   */\n  eq\n    /* \"#utility.yul\":3174:3237   */\n  tag_120\n  jumpi\n    /* \"#utility.yul\":3233:3234   */\n  0x00\n    /* \"#utility.yul\":3230:3231   */\n  dup1\n    /* \"#utility.yul\":3223:3235   */\n  revert\n    /* \"#utility.yul\":3174:3237   */\ntag_120:\n    /* \"#utility.yul\":3121:3243   */\n  pop\n  jump\t// out\n    /* \"#utility.yul\":3249:3392   */\ntag_54:\n    /* \"#utility.yul\":3306:3311   */\n  0x00\n    /* \"#utility.yul\":3337:3343   */\n  dup2\n    /* \"#utility.yul\":3331:3344   */\n  mload\n    /* \"#utility.yul\":3322:3344   */\n  swap1\n  pop\n    /* \"#utility.yul\":3353:3386   */\n  tag_122\n    /* \"#utility.yul\":3380:3385   */\n  dup2\n    /* \"#utility.yul\":3353:3386   */\n  tag_53\n  jump\t// in\ntag_122:\n    /* \"#utility.yul\":3249:3392   */\n  swap3\n  swap2\n  pop\n  pop\n  jump\t// out\n    /* \"#utility.yul\":3398:4717   */\ntag_3:\n    /* \"#utility.yul\":3522:3528   */\n  0x00\n    /* \"#utility.yul\":3530:3536   */\n  dup1\n    /* \"#utility.yul\":3538:3544   */\n  0x00\n    /* \"#utility.yul\":3546:3552   */\n  dup1\n    /* \"#utility.yul\":3554:3560   */\n  0x00\n    /* \"#utility.yul\":3603:3606   */\n  0xa0\n    /* \"#utility.yul\":3591:3600   */\n  dup7\n    /* \"#utility.yul\":3582:3589   */\n  dup9\n    /* \"#utility.yul\":3578:3601   */\n  sub\n    /* \"#utility.yul\":3574:3607   */\n  slt\n    /* \"#utility.yul\":3571:3691   */\n  iszero\n  tag_124\n  jumpi\n    /* \"#utility.yul\":3610:3689   */\n  tag_125\n  tag_37\n  jump\t// in\ntag_125:\n    /* \"#utility.yul\":3571:3691   */\ntag_124:\n    /* \"#utility.yul\":3751:3752   */\n  0x00\n    /* \"#utility.yul\":3740:3749   */\n  dup7\n    /* \"#utility.yul\":3736:3753   */\n  add\n    /* \"#utility.yul\":3730:3754   */\n  mload\n    /* \"#utility.yul\":3781:3799   */\n  0xffffffffffffffff\n    /* \"#utility.yul\":3773:3779   */\n  dup2\n    /* \"#utility.yul\":3770:3800   */\n  gt\n    /* \"#utility.yul\":3767:3884   */\n  iszero\n  tag_126\n  jumpi\n    /* \"#utility.yul\":3803:3882   */\n  tag_127\n  tag_38\n  jump\t// in\ntag_127:\n    /* \"#utility.yul\":3767:3884   */\ntag_126:\n    /* \"#utility.yul\":3908:3982   */\n  tag_128\n    /* \"#utility.yul\":3974:3981   */\n  dup9\n    /* \"#utility.yul\":3965:3971   */\n  dup3\n    /* \"#utility.yul\":3954:3963   */\n  dup10\n    /* \"#utility.yul\":3950:3972   */\n  add\n    /* \"#utility.yul\":3908:3982   */\n  tag_48\n  jump\t// in\ntag_128:\n    /* \"#utility.yul\":3898:3982   */\n  swap6\n  pop\n    /* \"#utility.yul\":3701:3992   */\n  pop\n    /* \"#utility.yul\":4052:4054   */\n  0x20\n    /* \"#utility.yul\":4041:4050   */\n  dup7\n    /* \"#utility.yul\":4037:4055   */\n  add\n    /* \"#utility.yul\":4031:4056   */\n  mload\n    /* \"#utility.yul\":4083:4101   */\n  0xffffffffffffffff\n    /* \"#utility.yul\":4075:4081   */\n  dup2\n    /* \"#utility.yul\":4072:4102   */\n  gt\n    /* \"#utility.yul\":4069:4186   */\n  iszero\n  tag_129\n  jumpi\n    /* \"#utility.yul\":4105:4184   */\n  tag_130\n  tag_38\n  jump\t// in\ntag_130:\n    /* \"#utility.yul\":4069:4186   */\ntag_129:\n    /* \"#utility.yul\":4210:4284   */\n  tag_131\n    /* \"#utility.yul\":4276:4283   */\n  dup9\n    /* \"#utility.yul\":4267:4273   */\n  dup3\n    /* \"#utility.yul\":4256:4265   */\n  dup10\n    /* \"#utility.yul\":4252:4274   */\n  add\n    /* \"#utility.yul\":4210:4284   */\n  tag_48\n  jump\t// in\ntag_131:\n    /* \"#utility.yul\":4200:4284   */\n  swap5\n  pop\n    /* \"#utility.yul\":4002:4294   */\n  pop\n    /* \"#utility.yul\":4333:4335   */\n  0x40\n    /* \"#utility.yul\":4359:4421   */\n  tag_132\n    /* \"#utility.yul\":4413:4420   */\n  dup9\n    /* \"#utility.yul\":4404:4410   */\n  dup3\n    /* \"#utility.yul\":4393:4402   */\n  dup10\n    /* \"#utility.yul\":4389:4411   */\n  add\n    /* \"#utility.yul\":4359:4421   */\n  tag_51\n  jump\t// in\ntag_132:\n    /* \"#utility.yul\":4349:4421   */\n  swap4\n  pop\n    /* \"#utility.yul\":4304:4431   */\n  pop\n    /* \"#utility.yul\":4470:4472   */\n  0x60\n    /* \"#utility.yul\":4496:4560   */\n  tag_133\n    /* \"#utility.yul\":4552:4559   */\n  dup9\n    /* \"#utility.yul\":4543:4549   */\n  dup3\n    /* \"#utility.yul\":4532:4541   */\n  dup10\n    /* \"#utility.yul\":4528:4550   */\n  add\n    /* \"#utility.yul\":4496:4560   */\n  tag_54\n  jump\t// in\ntag_133:\n    /* \"#utility.yul\":4486:4560   */\n  swap3\n  pop\n    /* \"#utility.yul\":4441:4570   */\n  pop\n    /* \"#utility.yul\":4609:4612   */\n  0x80\n    /* \"#utility.yul\":4636:4700   */\n  tag_134\n    /* \"#utility.yul\":4692:4699   */\n  dup9\n    /* \"#utility.yul\":4683:4689   */\n  dup3\n    /* \"#utility.yul\":4672:4681   */\n  dup10\n    /* \"#utility.yul\":4668:4690   */\n  add\n    /* \"#utility.yul\":4636:4700   */\n  tag_54\n  jump\t// in\ntag_134:\n    /* \"#utility.yul\":4626:4700   */\n  swap2\n  pop\n    /* \"#utility.yul\":4580:4710   */\n  pop\n    /* \"#utility.yul\":3398:4717   */\n  swap3\n  swap6\n  pop\n  swap3\n  swap6\n  swap1\n  swap4\n  pop\n  jump\t// out\n    /* \"#utility.yul\":4723:4822   */\ntag_55:\n    /* \"#utility.yul\":4775:4781   */\n  0x00\n    /* \"#utility.yul\":4809:4814   */\n  dup2\n    /* \"#utility.yul\":4803:4815   */\n  mload\n    /* \"#utility.yul\":4793:4815   */\n  swap1\n  pop\n    /* \"#utility.yul\":4723:4822   */\n  swap2\n  swap1\n  pop\n  jump\t// out\n    /* \"#utility.yul\":4828:5008   */\ntag_56:\n    /* \"#utility.yul\":4876:4953   */\n  0x4e487b7100000000000000000000000000000000000000000000000000000000\n    /* \"#utility.yul\":4873:4874   */\n  0x00\n    /* \"#utility.yul\":4866:4954   */\n  mstore\n    /* \"#utility.yul\":4973:4977   */\n  0x22\n    /* \"#utility.yul\":4970:4971   */\n  0x04\n    /* \"#utility.yul\":4963:4978   */\n  mstore\n    /* \"#utility.yul\":4997:5001   */\n  0x24\n    /* \"#utility.yul\":4994:4995   */\n  0x00\n    /* \"#utility.yul\":4987:5002   */\n  revert\n    /* \"#utility.yul\":5014:5334   */\ntag_57:\n    /* \"#utility.yul\":5058:5064   */\n  0x00\n    /* \"#utility.yul\":5095:5096   */\n  0x02\n    /* \"#utility.yul\":5089:5093   */\n  dup3\n    /* \"#utility.yul\":5085:5097   */\n  div\n    /* \"#utility.yul\":5075:5097   */\n  swap1\n  pop\n    /* \"#utility.yul\":5142:5143   */\n  0x01\n    /* \"#utility.yul\":5136:5140   */\n  dup3\n    /* \"#utility.yul\":5132:5144   */\n  and\n    /* \"#utility.yul\":5163:5181   */\n  dup1\n    /* \"#utility.yul\":5153:5234   */\n  tag_138\n  jumpi\n    /* \"#utility.yul\":5219:5223   */\n  0x7f\n    /* \"#utility.yul\":5211:5217   */\n  dup3\n    /* \"#utility.yul\":5207:5224   */\n  and\n    /* \"#utility.yul\":5197:5224   */\n  swap2\n  pop\n    /* \"#utility.yul\":5153:5234   */\ntag_138:\n    /* \"#utility.yul\":5281:5283   */\n  0x20\n    /* \"#utility.yul\":5273:5279   */\n  dup3\n    /* \"#utility.yul\":5270:5284   */\n  lt\n    /* \"#utility.yul\":5250:5268   */\n  dup2\n    /* \"#utility.yul\":5247:5285   */\n  sub\n    /* \"#utility.yul\":5244:5328   */\n  tag_139\n  jumpi\n    /* \"#utility.yul\":5300:5318   */\n  tag_140\n  tag_56\n  jump\t// in\ntag_140:\n    /* \"#utility.yul\":5244:5328   */\ntag_139:\n    /* \"#utility.yul\":5065:5334   */\n  pop\n    /* \"#utility.yul\":5014:5334   */\n  swap2\n  swap1\n  pop\n  jump\t// out\n    /* \"#utility.yul\":5340:5481   */\ntag_58:\n    /* \"#utility.yul\":5389:5393   */\n  0x00\n    /* \"#utility.yul\":5412:5415   */\n  dup2\n    /* \"#utility.yul\":5404:5415   */\n  swap1\n  pop\n    /* \"#utility.yul\":5435:5438   */\n  dup2\n    /* \"#utility.yul\":5432:5433   */\n  0x00\n    /* \"#utility.yul\":5425:5439   */\n  mstore\n    /* \"#utility.yul\":5469:5473   */\n  0x20\n    /* \"#utility.yul\":5466:5467   */\n  0x00\n    /* \"#utility.yul\":5456:5474   */\n  keccak256\n    /* \"#utility.yul\":5448:5474   */\n  swap1\n  pop\n    /* \"#utility.yul\":5340:5481   */\n  swap2\n  swap1\n  pop\n  jump\t// out\n    /* \"#utility.yul\":5487:5580   */\ntag_59:\n    /* \"#utility.yul\":5524:5530   */\n  0x00\n    /* \"#utility.yul\":5571:5573   */\n  0x20\n    /* \"#utility.yul\":5566:5568   */\n  0x1f\n    /* \"#utility.yul\":5559:5564   */\n  dup4\n    /* \"#utility.yul\":5555:5569   */\n  add\n    /* \"#utility.yul\":5551:5574   */\n  div\n    /* \"#utility.yul\":5541:5574   */\n  swap1\n  pop\n    /* \"#utility.yul\":5487:5580   */\n  swap2\n  swap1\n  pop\n  jump\t// out\n    /* \"#utility.yul\":5586:5693   */\ntag_60:\n    /* \"#utility.yul\":5630:5638   */\n  0x00\n    /* \"#utility.yul\":5680:5685   */\n  dup3\n    /* \"#utility.yul\":5674:5678   */\n  dup3\n    /* \"#utility.yul\":5670:5686   */\n  shl\n    /* \"#utility.yul\":5649:5686   */\n  swap1\n  pop\n    /* \"#utility.yul\":5586:5693   */\n  swap3\n  swap2\n  pop\n  pop\n  jump\t// out\n    /* \"#utility.yul\":5699:6092   */\ntag_61:\n    /* \"#utility.yul\":5768:5774   */\n  0x00\n    /* \"#utility.yul\":5818:5819   */\n  0x08\n    /* \"#utility.yul\":5806:5816   */\n  dup4\n    /* \"#utility.yul\":5802:5820   */\n  mul\n    /* \"#utility.yul\":5841:5938   */\n  tag_145\n    /* \"#utility.yul\":5871:5937   */\n  0xffffffffffffffffffffffffffffffffffffffffffffffffffffffffffffffff\n    /* \"#utility.yul\":5860:5869   */\n  dup3\n    /* \"#utility.yul\":5841:5938   */\n  tag_60\n  jump\t// in\ntag_145:\n    /* \"#utility.yul\":5959:5998   */\n  tag_146\n    /* \"#utility.yul\":5989:5997   */\n  dup7\n    /* \"#utility.yul\":5978:5987   */\n  dup4\n    /* \"#utility.yul\":5959:5998   */\n  tag_60\n  jump\t// in\ntag_146:\n    /* \"#utility.yul\":5947:5998   */\n  swap6\n  pop\n    /* \"#utility.yul\":6031:6035   */\n  dup1\n    /* \"#utility.yul\":6027:6036   */\n  not\n    /* \"#utility.yul\":6020:6025   */\n  dup5\n    /* \"#utility.yul\":6016:6037   */\n  and\n    /* \"#utility.yul\":6007:6037   */\n  swap4\n  pop\n    /* \"#utility.yul\":6080:6084   */\n  dup1\n    /* \"#utility.yul\":6070:6078   */\n  dup7\n    /* \"#utility.yul\":6066:6085   */\n  and\n    /* \"#utility.yul\":6059:6064   */\n  dup5\n    /* \"#utility.yul\":6056:6086   */\n  or\n    /* \"#utility.yul\":6046:6086   */\n  swap3\n  pop\n    /* \"#utility.yul\":5775:6092   */\n  pop\n  pop\n    /* \"#utility.yul\":5699:6092   */\n  swap4\n  swap3\n  pop\n  pop\n  pop\n  jump\t// out\n    /* \"#utility.yul\":6098:6158   */\ntag_62:\n    /* \"#utility.yul\":6126:6129   */\n  0x00\n    /* \"#utility.yul\":6147:6152   */\n  dup2\n    /* \"#utility.yul\":6140:6152   */\n  swap1\n  pop\n    /* \"#utility.yul\":6098:6158   */\n  swap2\n  swap1\n  pop\n  jump\t// out\n    /* \"#utility.yul\":6164:6306   */\ntag_63:\n    /* \"#utility.yul\":6214:6223   */\n  0x00\n    /* \"#utility.yul\":6247:6300   */\n  tag_149\n    /* \"#utility.yul\":6265:6299   */\n  tag_150\n    /* \"#utility.yul\":6274:6298   */\n  tag_151\n    /* \"#utility.yul\":6292:6297   */\n  dup5\n    /* \"#utility.yul\":6274:6298   */\n  tag_52\n  jump\t// in\ntag_151:\n    /* \"#utility.yul\":6265:6299   */\n  tag_62\n  jump\t// in\ntag_150:\n    /* \"#utility.yul\":6247:6300   */\n  tag_52\n  jump\t// in\ntag_149:\n    /* \"#utility.yul\":6234:6300   */\n  swap1\n  pop\n    /* \"#utility.yul\":6164:6306   */\n  swap2\n  swap1\n  pop\n  jump\t// out\n    /* \"#utility.yul\":6312:6387   */\ntag_64:\n    /* \"#utility.yul\":6355:6358   */\n  0x00\n    /* \"#utility.yul\":6376:6381   */\n  dup2\n    /* \"#utility.yul\":6369:6381   */\n  swap1\n  pop\n    /* \"#utility.yul\":6312:6387   */\n  swap2\n  swap1\n  pop\n  jump\t// out\n    /* \"#utility.yul\":6393:6662   */\ntag_65:\n    /* \"#utility.yul\":6503:6542   */\n  tag_154\n    /* \"#utility.yul\":6534:6541   */\n  dup4\n    /* \"#utility.yul\":6503:6542   */\n  tag_63\n  jump\t// in\ntag_154:\n    /* \"#utility.yul\":6564:6655   */\n  tag_155\n    /* \"#utility.yul\":6613:6654   */\n  tag_156\n    /* \"#utility.yul\":6637:6653   */\n  dup3\n    /* \"#utility.yul\":6613:6654   */\n  tag_64\n  jump\t// in\ntag_156:\n    /* \"#utility.yul\":6605:6611   */\n  dup5\n    /* \"#utility.yul\":6598:6602   */\n  dup5\n    /* \"#utility.yul\":6592:6603   */\n  sload\n    /* \"#utility.yul\":6564:6655   */\n  tag_61\n  jump\t// in\ntag_155:\n    /* \"#utility.yul\":6558:6562   */\n  dup3\n    /* \"#utility.yul\":6551:6656   */\n  sstore\n    /* \"#utility.yul\":6469:6662   */\n  pop\n    /* \"#utility.yul\":6393:6662   */\n  pop\n  pop\n  pop\n  jump\t// out\n    /* \"#utility.yul\":6668:6741   */\ntag_66:\n    /* \"#utility.yul\":6713:6716   */\n  0x00\n    /* \"#utility.yul\":6668:6741   */\n  swap1\n  jump\t// out\n    /* \"#utility.yul\":6747:6936   */\ntag_67:\n    /* \"#utility.yul\":6824:6856   */\n  tag_159\n  tag_66\n  jump\t// in\ntag_159:\n    /* \"#utility.yul\":6865:6930   */\n  tag_160\n    /* \"#utility.yul\":6923:6929   */\n  dup2\n    /* \"#utility.yul\":6915:6921   */\n  dup5\n    /* \"#utility.yul\":6909:6913   */\n  dup5\n    /* \"#utility.yul\":6865:6930   */\n  tag_65\n  jump\t// in\ntag_160:\n    /* \"#utility.yul\":6800:6936   */\n  pop\n    /* \"#utility.yul\":6747:6936   */\n  pop\n  pop\n  jump\t// out\n    /* \"#utility.yul\":6942:7128   */\ntag_68:\n    /* \"#utility.yul\":7002:7122   */\ntag_162:\n    /* \"#utility.yul\":7019:7022   */\n  dup2\n    /* \"#utility.yul\":7012:7017   */\n  dup2\n    /* \"#utility.yul\":7009:7023   */\n  lt\n    /* \"#utility.yul\":7002:7122   */\n  iszero\n  tag_164\n  jumpi\n    /* \"#utility.yul\":7073:7112   */\n  tag_165\n    /* \"#utility.yul\":7110:7111   */\n  0x00\n    /* \"#utility.yul\":7103:7108   */\n  dup3\n    /* \"#utility.yul\":7073:7112   */\n  tag_67\n  jump\t// in\ntag_165:\n    /* \"#utility.yul\":7046:7047   */\n  0x01\n    /* \"#utility.yul\":7039:7044   */\n  dup2\n    /* \"#utility.yul\":7035:7048   */\n  add\n    /* \"#utility.yul\":7026:7048   */\n  swap1\n  pop\n    /* \"#utility.yul\":7002:7122   */\n  jump(tag_162)\ntag_164:\n    /* \"#utility.yul\":6942:7128   */\n  pop\n  pop\n  jump\t// out\n    /* \"#utility.yul\":7134:7677   */\ntag_69:\n    /* \"#utility.yul\":7235:7237   */\n  0x1f\n    /* \"#utility.yul\":7230:7233   */\n  dup3\n    /* \"#utility.yul\":7227:7238   */\n  gt\n    /* \"#utility.yul\":7224:7670   */\n  iszero\n  tag_167\n  jumpi\n    /* \"#utility.yul\":7269:7307   */\n  tag_168\n    /* \"#utility.yul\":7301:7306   */\n  dup2\n    /* \"#utility.yul\":7269:7307   */\n  tag_58\n  jump\t// in\ntag_168:\n    /* \"#utility.yul\":7353:7382   */\n  tag_169\n    /* \"#utility.yul\":7371:7381   */\n  dup5\n    /* \"#utility.yul\":7353:7382   */\n  tag_59\n  jump\t// in\ntag_169:\n    /* \"#utility.yul\":7343:7351   */\n  dup2\n    /* \"#utility.yul\":7339:7383   */\n  add\n    /* \"#utility.yul\":7536:7538   */\n  0x20\n    /* \"#utility.yul\":7524:7534   */\n  dup6\n    /* \"#utility.yul\":7521:7539   */\n  lt\n    /* \"#utility.yul\":7518:7567   */\n  iszero\n  tag_170\n  jumpi\n    /* \"#utility.yul\":7557:7565   */\n  dup2\n    /* \"#utility.yul\":7542:7565   */\n  swap1\n  pop\n    /* \"#utility.yul\":7518:7567   */\ntag_170:\n    /* \"#utility.yul\":7580:7660   */\n  tag_171\n    /* \"#utility.yul\":7636:7658   */\n  tag_172\n    /* \"#utility.yul\":7654:7657   */\n  dup6\n    /* \"#utility.yul\":7636:7658   */\n  tag_59\n  jump\t// in\ntag_172:\n    /* \"#utility.yul\":7626:7634   */\n  dup4\n    /* \"#utility.yul\":7622:7659   */\n  add\n    /* \"#utility.yul\":7609:7620   */\n  dup3\n    /* \"#utility.yul\":7580:7660   */\n  tag_68\n  jump\t// in\ntag_171:\n    /* \"#utility.yul\":7239:7670   */\n  pop\n  pop\n    /* \"#utility.yul\":7224:7670   */\ntag_167:\n    /* \"#utility.yul\":7134:7677   */\n  pop\n  pop\n  pop\n  jump\t// out\n    /* \"#utility.yul\":7683:7800   */\ntag_70:\n    /* \"#utility.yul\":7737:7745   */\n  0x00\n    /* \"#utility.yul\":7787:7792   */\n  dup3\n    /* \"#utility.yul\":7781:7785   */\n  dup3\n    /* \"#utility.yul\":7777:7793   */\n  shr\n    /* \"#utility.yul\":7756:7793   */\n  swap1\n  pop\n    /* \"#utility.yul\":7683:7800   */\n  swap3\n  swap2\n  pop\n  pop\n  jump\t// out\n    /* \"#utility.yul\":7806:7975   */\ntag_71:\n    /* \"#utility.yul\":7850:7856   */\n  0x00\n    /* \"#utility.yul\":7883:7934   */\n  tag_175\n    /* \"#utility.yul\":7931:7932   */\n  0x00\n    /* \"#utility.yul\":7927:7933   */\n  not\n    /* \"#utility.yul\":7919:7924   */\n  dup5\n    /* \"#utility.yul\":7916:7917   */\n  0x08\n    /* \"#utility.yul\":7912:7925   */\n  mul\n    /* \"#utility.yul\":7883:7934   */\n  tag_70\n  jump\t// in\ntag_175:\n    /* \"#utility.yul\":7879:7935   */\n  not\n    /* \"#utility.yul\":7964:7968   */\n  dup1\n    /* \"#utility.yul\":7958:7962   */\n  dup4\n    /* \"#utility.yul\":7954:7969   */\n  and\n    /* \"#utility.yul\":7944:7969   */\n  swap2\n  pop\n    /* \"#utility.yul\":7857:7975   */\n  pop\n    /* \"#utility.yul\":7806:7975   */\n  swap3\n  swap2\n  pop\n  pop\n  jump\t// out\n    /* \"#utility.yul\":7980:8275   */\ntag_72:\n    /* \"#utility.yul\":8056:8060   */\n  0x00\n    /* \"#utility.yul\":8202:8231   */\n  tag_177\n    /* \"#utility.yul\":8227:8230   */\n  dup4\n    /* \"#utility.yul\":8221:8225   */\n  dup4\n    /* \"#utility.yul\":8202:8231   */\n  tag_71\n  jump\t// in\ntag_177:\n    /* \"#utility.yul\":8194:8231   */\n  swap2\n  pop\n    /* \"#utility.yul\":8264:8267   */\n  dup3\n    /* \"#utility.yul\":8261:8262   */\n  0x02\n    /* \"#utility.yul\":8257:8268   */\n  mul\n    /* \"#utility.yul\":8251:8255   */\n  dup3\n    /* \"#utility.yul\":8248:8269   */\n  or\n    /* \"#utility.yul\":8240:8269   */\n  swap1\n  pop\n    /* \"#utility.yul\":7980:8275   */\n  swap3\n  swap2\n  pop\n  pop\n  jump\t// out\n    /* \"#utility.yul\":8280:9675   */\ntag_9:\n    /* \"#utility.yul\":8397:8434   */\n  tag_179\n    /* \"#utility.yul\":8430:8433   */\n  dup3\n    /* \"#utility.yul\":8397:8434   */\n  tag_55\n  jump\t// in\ntag_179:\n    /* \"#utility.yul\":8499:8517   */\n  0xffffffffffffffff\n    /* \"#utility.yul\":8491:8497   */\n  dup2\n    /* \"#utility.yul\":8488:8518   */\n  gt\n    /* \"#utility.yul\":8485:8541   */\n  iszero\n  tag_180\n  jumpi\n    /* \"#utility.yul\":8521:8539   */\n  tag_181\n  tag_42\n  jump\t// in\ntag_181:\n    /* \"#utility.yul\":8485:8541   */\ntag_180:\n    /* \"#utility.yul\":8565:8603   */\n  tag_182\n    /* \"#utility.yul\":8597:8601   */\n  dup3\n    /* \"#utility.yul\":8591:8602   */\n  sload\n    /* \"#utility.yul\":8565:8603   */\n  tag_57\n  jump\t// in\ntag_182:\n    /* \"#utility.yul\":8650:8717   */\n  tag_183\n    /* \"#utility.yul\":8710:8716   */\n  dup3\n    /* \"#utility.yul\":8702:8708   */\n  dup3\n    /* \"#utility.yul\":8696:8700   */\n  dup6\n    /* \"#utility.yul\":8650:8717   */\n  tag_69\n  jump\t// in\ntag_183:\n    /* \"#utility.yul\":8744:8745   */\n  0x00\n    /* \"#utility.yul\":8768:8772   */\n  0x20\n    /* \"#utility.yul\":8755:8772   */\n  swap1\n  pop\n    /* \"#utility.yul\":8800:8802   */\n  0x1f\n    /* \"#utility.yul\":8792:8798   */\n  dup4\n    /* \"#utility.yul\":8789:8803   */\n  gt\n    /* \"#utility.yul\":8817:8818   */\n  0x01\n    /* \"#utility.yul\":8812:9430   */\n  dup2\n  eq\n  tag_185\n  jumpi\n    /* \"#utility.yul\":9474:9475   */\n  0x00\n    /* \"#utility.yul\":9491:9497   */\n  dup5\n    /* \"#utility.yul\":9488:9565   */\n  iszero\n  tag_186\n  jumpi\n    /* \"#utility.yul\":9540:9549   */\n  dup3\n    /* \"#utility.yul\":9535:9538   */\n  dup8\n    /* \"#utility.yul\":9531:9550   */\n  add\n    /* \"#utility.yul\":9525:9551   */\n  mload\n    /* \"#utility.yul\":9516:9551   */\n  swap1\n  pop\n    /* \"#utility.yul\":9488:9565   */\ntag_186:\n    /* \"#utility.yul\":9591:9658   */\n  tag_187\n    /* \"#utility.yul\":9651:9657   */\n  dup6\n    /* \"#utility.yul\":9644:9649   */\n  dup3\n    /* \"#utility.yul\":9591:9658   */\n  tag_72\n  jump\t// in\ntag_187:\n    /* \"#utility.yul\":9585:9589   */\n  dup7\n    /* \"#utility.yul\":9578:9659   */\n  sstore\n    /* \"#utility.yul\":9447:9669   */\n  pop\n    /* \"#utility.yul\":8782:9669   */\n  jump(tag_184)\n    /* \"#utility.yul\":8812:9430   */\ntag_185:\n    /* \"#utility.yul\":8864:8868   */\n  0x1f\n    /* \"#utility.yul\":8860:8869   */\n  not\n    /* \"#utility.yul\":8852:8858   */\n  dup5\n    /* \"#utility.yul\":8848:8870   */\n  and\n    /* \"#utility.yul\":8898:8935   */\n  tag_188\n    /* \"#utility.yul\":8930:8934   */\n  dup7\n    /* \"#utility.yul\":8898:8935   */\n  tag_58\n  jump\t// in\ntag_188:\n    /* \"#utility.yul\":8957:8958   */\n  0x00\n    /* \"#utility.yul\":8971:9179   */\ntag_189:\n    /* \"#utility.yul\":8985:8992   */\n  dup3\n    /* \"#utility.yul\":8982:8983   */\n  dup2\n    /* \"#utility.yul\":8979:8993   */\n  lt\n    /* \"#utility.yul\":8971:9179   */\n  iszero\n  tag_191\n  jumpi\n    /* \"#utility.yul\":9064:9073   */\n  dup5\n    /* \"#utility.yul\":9059:9062   */\n  dup10\n    /* \"#utility.yul\":9055:9074   */\n  add\n    /* \"#utility.yul\":9049:9075   */\n  mload\n    /* \"#utility.yul\":9041:9047   */\n  dup3\n    /* \"#utility.yul\":9034:9076   */\n  sstore\n    /* \"#utility.yul\":9115:9116   */\n  0x01\n    /* \"#utility.yul\":9107:9113   */\n  dup3\n    /* \"#utility.yul\":9103:9117   */\n  add\n    /* \"#utility.yul\":9093:9117   */\n  swap2\n  pop\n    /* \"#utility.yul\":9162:9164   */\n  0x20\n    /* \"#utility.yul\":9151:9160   */\n  dup6\n    /* \"#utility.yul\":9147:9165   */\n  add\n    /* \"#utility.yul\":9134:9165   */\n  swap5\n  pop\n    /* \"#utility.yul\":9008:9012   */\n  0x20\n    /* \"#utility.yul\":9005:9006   */\n  dup2\n    /* \"#utility.yul\":9001:9013   */\n  add\n    /* \"#utility.yul\":8996:9013   */\n  swap1\n  pop\n    /* \"#utility.yul\":8971:9179   */\n  jump(tag_189)\ntag_191:\n    /* \"#utility.yul\":9207:9213   */\n  dup7\n    /* \"#utility.yul\":9198:9205   */\n  dup4\n    /* \"#utility.yul\":9195:9214   */\n  lt\n    /* \"#utility.yul\":9192:9371   */\n  iszero\n  tag_192\n  jumpi\n    /* \"#utility.yul\":9265:9274   */\n  dup5\n    /* \"#utility.yul\":9260:9263   */\n  dup10\n    /* \"#utility.yul\":9256:9275   */\n  add\n    /* \"#utility.yul\":9250:9276   */\n  mload\n    /* \"#utility.yul\":9308:9356   */\n  tag_193\n    /* \"#utility.yul\":9350:9354   */\n  0x1f\n    /* \"#utility.yul\":9342:9348   */\n  dup10\n    /* \"#utility.yul\":9338:9355   */\n  and\n    /* \"#utility.yul\":9327:9336   */\n  dup3\n    /* \"#utility.yul\":9308:9356   */\n  tag_71\n  jump\t// in\ntag_193:\n    /* \"#utility.yul\":9300:9306   */\n  dup4\n    /* \"#utility.yul\":9293:9357   */\n  sstore\n    /* \"#utility.yul\":9215:9371   */\n  pop\n    /* \"#utility.yul\":9192:9371   */\ntag_192:\n    /* \"#utility.yul\":9417:9418   */\n  0x01\n    /* \"#utility.yul\":9413:9414   */\n  0x02\n    /* \"#utility.yul\":9405:9411   */\n  dup9\n    /* \"#utility.yul\":9401:9415   */\n  mul\n    /* \"#utility.yul\":9397:9419   */\n  add\n    /* \"#utility.yul\":9391:9395   */\n  dup9\n    /* \"#utility.yul\":9384:9420   */\n  sstore\n    /* \"#utility.yul\":8819:9430   */\n  pop\n  pop\n  pop\n    /* \"#utility.yul\":8782:9669   */\ntag_184:\n  pop\n    /* \"#utility.yul\":8372:9675   */\n  pop\n  pop\n  pop\n    /* \"#utility.yul\":8280:9675   */\n  pop\n  pop\n  jump\t// out\n    /* \"#utility.yul\":9681:9850   */\ntag_73:\n    /* \"#utility.yul\":9765:9776   */\n  0x00\n    /* \"#utility.yul\":9799:9805   */\n  dup3\n    /* \"#utility.yul\":9794:9797   */\n  dup3\n    /* \"#utility.yul\":9787:9806   */\n  mstore\n    /* \"#utility.yul\":9839:9843   */\n  0x20\n    /* \"#utility.yul\":9834:9837   */\n  dup3\n    /* \"#utility.yul\":9830:9844   */\n  add\n    /* \"#utility.yul\":9815:9844   */\n  swap1\n  pop\n    /* \"#utility.yul\":9681:9850   */\n  swap3\n  swap2\n  pop\n  pop\n  jump\t// out\n    /* \"#utility.yul\":9856:10037   */\ntag_74:\n    /* \"#utility.yul\":9996:10029   */\n  0x45524332303a206d696e7420746f20746865207a65726f206164647265737300\n    /* \"#utility.yul\":9992:9993   */\n  0x00\n    /* \"#utility.yul\":9984:9990   */\n  dup3\n    /* \"#utility.yul\":9980:9994   */\n  add\n    /* \"#utility.yul\":9973:10030   */\n  mstore\n    /* \"#utility.yul\":9856:10037   */\n  pop\n  jump\t// out\n    /* \"#utility.yul\":10043:10409   */\ntag_75:\n    /* \"#utility.yul\":10185:10188   */\n  0x00\n    /* \"#utility.yul\":10206:10273   */\n  tag_197\n    /* \"#utility.yul\":10270:10272   */\n  0x1f\n    /* \"#utility.yul\":10265:10268   */\n  dup4\n    /* \"#utility.yul\":10206:10273   */\n  tag_73\n  jump\t// in\ntag_197:\n    /* \"#utility.yul\":10199:10273   */\n  swap2\n  pop\n    /* \"#utility.yul\":10282:10375   */\n  tag_198\n    /* \"#utility.yul\":10371:10374   */\n  dup3\n    /* \"#utility.yul\":10282:10375   */\n  tag_74\n  jump\t// in\ntag_198:\n    /* \"#utility.yul\":10400:10402   */\n  0x20\n    /* \"#utility.yul\":10395:10398   */\n  dup3\n    /* \"#utility.yul\":10391:10403   */\n  add\n    /* \"#utility.yul\":10384:10403   */\n  swap1\n  pop\n    /* \"#utility.yul\":10043:10409   */\n  swap2\n  swap1\n  pop\n  jump\t// out\n    /* \"#utility.yul\":10415:10834   */\ntag_25:\n    /* \"#utility.yul\":10581:10585   */\n  0x00\n    /* \"#utility.yul\":10619:10621   */\n  0x20\n    /* \"#utility.yul\":10608:10617   */\n  dup3\n    /* \"#utility.yul\":10604:10622   */\n  add\n    /* \"#utility.yul\":10596:10622   */\n  swap1\n  pop\n    /* \"#utility.yul\":10668:10677   */\n  dup2\n    /* \"#utility.yul\":10662:10666   */\n  dup2\n    /* \"#utility.yul\":10658:10678   */\n  sub\n    /* \"#utility.yul\":10654:10655   */\n  0x00\n    /* \"#utility.yul\":10643:10652   */\n  dup4\n    /* \"#utility.yul\":10639:10656   */\n  add\n    /* \"#utility.yul\":10632:10679   */\n  mstore\n    /* \"#utility.yul\":10696:10827   */\n  tag_200\n    /* \"#utility.yul\":10822:10826   */\n  dup2\n    /* \"#utility.yul\":10696:10827   */\n  tag_75\n  jump\t// in\ntag_200:\n    /* \"#utility.yul\":10688:10827   */\n  swap1\n  pop\n    /* \"#utility.yul\":10415:10834   */\n  swap2\n  swap1\n  pop\n  jump\t// out\n    /* \"#utility.yul\":10840:11020   */\ntag_76:\n    /* \"#utility.yul\":10888:10965   */\n  0x4e487b7100000000000000000000000000000000000000000000000000000000\n    /* \"#utility.yul\":10885:10886   */\n  0x00\n    /* \"#utility.yul\":10878:10966   */\n  mstore\n    /* \"#utility.yul\":10985:10989   */\n  0x11\n    /* \"#utility.yul\":10982:10983   */\n  0x04\n    /* \"#utility.yul\":10975:10990   */\n  mstore\n    /* \"#utility.yul\":11009:11013   */\n  0x24\n    /* \"#utility.yul\":11006:11007   */\n  0x00\n    /* \"#utility.yul\":10999:11014   */\n  revert\n    /* \"#utility.yul\":11026:11217   */\ntag_29:\n    /* \"#utility.yul\":11066:11069   */\n  0x00\n    /* \"#utility.yul\":11085:11105   */\n  tag_203\n    /* \"#utility.yul\":11103:11104   */\n  dup3\n    /* \"#utility.yul\":11085:11105   */\n  tag_52\n  jump\t// in\ntag_203:\n    /* \"#utility.yul\":11080:11105   */\n  swap2\n  pop\n    /* \"#utility.yul\":11119:11139   */\n  tag_204\n    /* \"#utility.yul\":11137:11138   */\n  dup4\n    /* \"#utility.yul\":11119:11139   */\n  tag_52\n  jump\t// in\ntag_204:\n    /* \"#utility.yul\":11114:11139   */\n  swap3\n  pop\n    /* \"#utility.yul\":11162:11163   */\n  dup3\n    /* \"#utility.yul\":11159:11160   */\n  dup3\n    /* \"#utility.yul\":11155:11164   */\n  add\n    /* \"#utility.yul\":11148:11164   */\n  swap1\n  pop\n    /* \"#utility.yul\":11183:11186   */\n  dup1\n    /* \"#utility.yul\":11180:11181   */\n  dup3\n    /* \"#utility.yul\":11177:11187   */\n  gt\n    /* \"#utility.yul\":11174:11210   */\n  iszero\n  tag_205\n  jumpi\n    /* \"#utility.yul\":11190:11208   */\n  tag_206\n  tag_76\n  jump\t// in\ntag_206:\n    /* \"#utility.yul\":11174:11210   */\ntag_205:\n    /* \"#utility.yul\":11026:11217   */\n  swap3\n  swap2\n  pop\n  pop\n  jump\t// out\n    /* \"#utility.yul\":11223:11341   */\ntag_77:\n    /* \"#utility.yul\":11310:11334   */\n  tag_208\n    /* \"#utility.yul\":11328:11333   */\n  dup2\n    /* \"#utility.yul\":11310:11334   */\n  tag_52\n  jump\t// in\ntag_208:\n    /* \"#utility.yul\":11305:11308   */\n  dup3\n    /* \"#utility.yul\":11298:11335   */\n  mstore\n    /* \"#utility.yul\":11223:11341   */\n  pop\n  pop\n  jump\t// out\n    /* \"#utility.yul\":11347:11569   */\ntag_31:\n    /* \"#utility.yul\":11440:11444   */\n  0x00\n    /* \"#utility.yul\":11478:11480   */\n  0x20\n    /* \"#utility.yul\":11467:11476   */\n  dup3\n    /* \"#utility.yul\":11463:11481   */\n  add\n    /* \"#utility.yul\":11455:11481   */\n  swap1\n  pop\n    /* \"#utility.yul\":11491:11562   */\n  tag_210\n    /* \"#utility.yul\":11559:11560   */\n  0x00\n    /* \"#utility.yul\":11548:11557   */\n  dup4\n    /* \"#utility.yul\":11544:11561   */\n  add\n    /* \"#utility.yul\":11535:11541   */\n  dup5\n    /* \"#utility.yul\":11491:11562   */\n  tag_77\n  jump\t// in\ntag_210:\n    /* \"#utility.yul\":11347:11569   */\n  swap3\n  swap2\n  pop\n  pop\n  jump\t// out\n    /* \"contract/tokens.sol\":953:4232  contract SimpleVRC25Token is ERC20, Ownable, IVRC25 {... */\ntag_19:\n  dataSize(sub_0)\n  dup1\n  dataOffset(sub_0)\n  0x00\n  codecopy\n  0x00\n  return\nstop\n\nsub_0: assembly {\n        /* \"contract/tokens.sol\":953:4232  contract SimpleVRC25Token is ERC20, Ownable, IVRC25 {... */\n      mstore(0x40, 0x80)\n      callvalue\n      dup1\n      iszero\n      tag_1\n      jumpi\n      0x00\n      dup1\n      revert\n    tag_1:\n      pop\n      jumpi(tag_2, lt(calldatasize, 0x04))\n      shr(0xe0, calldataload(0x00))\n      dup1\n      0x31ac9920\n      gt\n      tag_22\n      jumpi\n      dup1\n      0x95d89b41\n      gt\n      tag_23\n      jumpi\n      dup1\n      0x95d89b41\n      eq\n      tag_17\n      jumpi\n      dup1\n      0xa457c2d7\n      eq\n      tag_18\n      jumpi\n      dup1\n      0xa9059cbb\n      eq\n      tag_19\n      jumpi\n      dup1\n      0xdd62ed3e\n      eq\n      tag_20\n      jumpi\n      dup1\n      0xf2fde38b\n      eq\n      tag_21\n      jumpi\n      jump(tag_2)\n    tag_23:\n      dup1\n      0x31ac9920\n      eq\n      tag_12\n      jumpi\n      dup1\n      0x39509351\n      eq\n      tag_13\n      jumpi\n      dup1\n      0x70a08231\n      eq\n      tag_14\n      jumpi\n      dup1\n      0x715018a6\n      eq\n      tag_15\n      jumpi\n      dup1\n      0x8da5cb5b\n      eq\n      tag_16\n      jumpi\n      jump(tag_2)\n    tag_22:\n      dup1\n      0x18160ddd\n      gt\n      tag_24\n      jumpi\n      dup1\n      0x18160ddd\n      eq\n      tag_7\n      jumpi\n      dup1\n      0x1d143848\n      eq\n      tag_8\n      jumpi\n      dup1\n      0x23b872dd\n      eq\n      tag_9\n      jumpi\n      dup1\n      0x24ec7590\n      eq\n      tag_10\n      jumpi\n      dup1\n      0x313ce567\n      eq\n      tag_11\n      jumpi\n      jump(tag_2)\n    tag_24:\n      dup1\n      0x06fdde03\n      eq\n      tag_3\n      jumpi\n      dup1\n      0x095ea7b3\n      eq\n      tag_4\n      jumpi\n      dup1\n      0x127e8e4d\n      eq\n      tag_5\n      jumpi\n      dup1\n      0x16279055\n      eq\n      tag_6\n      jumpi\n    tag_2:\n      0x00\n      dup1\n      revert\n        /* \"https://github.com/OpenZeppelin/openzeppelin-contracts/blob/v4.8.3/contracts/token/ERC20/ERC20.sol\":2154:2252  function name() public view virtual override returns (string memory) {... */\n    tag_3:\n      tag_25\n      tag_26\n      jump\t// in\n    tag_25:\n      mload(0x40)\n      tag_27\n      swap2\n      swap1\n      tag_28\n      jump\t// in\n    tag_27:\n      mload(0x40)\n      dup1\n      swap2\n      sub\n      swap1\n      return\n        /* \"contract/tokens.sol\":3219:3576  function approve(address spender, uint256 amount) public virtual override returns (bool) {... */\n    tag_4:\n      tag_29\n      0x04\n      dup1\n      calldatasize\n      sub\n      dup2\n      add\n      swap1\n      tag_30\n      swap2\n      swap1\n      tag_31\n      jump\t// in\n    tag_30:\n      tag_32\n      jump\t// in\n    tag_29:\n      mload(0x40)\n      tag_33\n      swap2\n      swap1\n      tag_34\n      jump\t// in\n    tag_33:\n      mload(0x40)\n      dup1\n      swap2\n      sub\n      swap1\n      return\n        /* \"contract/tokens.sol\":2205:2378  function estimateFee(uint256 value) public view override returns (uint256) {... */\n    tag_5:\n      tag_35\n      0x04\n      dup1\n      calldatasize\n      sub\n      dup2\n      add\n      swap1\n      tag_36\n      swap2\n      swap1\n      tag_37\n      jump\t// in\n    tag_36:\n      tag_38\n      jump\t// in\n    tag_35:\n      mload(0x40)\n      tag_39\n      swap2\n      swap1\n      tag_40\n      jump\t// in\n    tag_39:\n      mload(0x40)\n      dup1\n      swap2\n      sub\n      swap1\n      return\n        /* \"contract/tokens.sol\":2386:2500  function isContract(address account) public view returns (bool){... */\n    tag_6:\n      tag_41\n      0x04\n      dup1\n      calldatasize\n      sub\n      dup2\n      add\n      swap1\n      tag_42\n      swap2\n      swap1\n      tag_43\n      jump\t// in\n    tag_42:\n      tag_44\n      jump\t// in\n    tag_41:\n      mload(0x40)\n      tag_45\n      swap2\n      swap1\n      tag_34\n      jump\t// in\n    tag_45:\n      mload(0x40)\n      dup1\n      swap2\n      sub\n      swap1\n      return\n        /* \"https://github.com/OpenZeppelin/openzeppelin-contracts/blob/v4.8.3/contracts/token/ERC20/ERC20.sol\":3242:3348  function totalSupply() public view virtual override returns (uint256) {... */\n    tag_7:\n      tag_46\n      tag_47\n      jump\t// in\n    tag_46:\n      mload(0x40)\n      tag_48\n      swap2\n      swap1\n      tag_40\n      jump\t// in\n    tag_48:\n      mload(0x40)\n      dup1\n      swap2\n      sub\n      swap1\n      return\n        /* \"contract/tokens.sol\":1917:2007  function issuer() public view override returns (address) {... */\n    tag_8:\n      tag_49\n      tag_50\n      jump\t// in\n    tag_49:\n      mload(0x40)\n      tag_51\n      swap2\n      swap1\n      tag_52\n      jump\t// in\n    tag_51:\n      mload(0x40)\n      dup1\n      swap2\n      sub\n      swap1\n      return\n        /* \"contract/tokens.sol\":3584:4229  function transferFrom(address sender, address recipient, uint256 amount) public virtual override returns (bool) {... */\n    tag_9:\n      tag_53\n      0x04\n      dup1\n      calldatasize\n      sub\n      dup2\n      add\n      swap1\n      tag_54\n      swap2\n      swap1\n      tag_55\n      jump\t// in\n    tag_54:\n      tag_56\n      jump\t// in\n    tag_53:\n      mload(0x40)\n      tag_57\n      swap2\n      swap1\n      tag_34\n      jump\t// in\n    tag_57:\n      mload(0x40)\n      dup1\n      swap2\n      sub\n      swap1\n      return\n        /* \"contract/tokens.sol\":2015:2096  function minFee() public view returns (uint256) {... */\n    tag_10:\n      tag_58\n      tag_59\n      jump\t// in\n    tag_58:\n      mload(0x40)\n      tag_60\n      swap2\n      swap1\n      tag_40\n      jump\t// in\n    tag_60:\n      mload(0x40)\n      dup1\n      swap2\n      sub\n      swap1\n      return\n        /* \"contract/tokens.sol\":1803:1909  function decimals() public view virtual override returns (uint8) {... */\n    tag_11:\n      tag_61\n      tag_62\n      jump\t// in\n    tag_61:\n      mload(0x40)\n      tag_63\n      swap2\n      swap1\n      tag_64\n      jump\t// in\n    tag_63:\n      mload(0x40)\n      dup1\n      swap2\n      sub\n      swap1\n      return\n        /* \"contract/tokens.sol\":2104:2197  function setMinFee(uint256 newMinFee) public onlyOwner {... */\n    tag_12:\n      tag_65\n      0x04\n      dup1\n      calldatasize\n      sub\n      dup2\n      add\n      swap1\n      tag_66\n      swap2\n      swap1\n      tag_37\n      jump\t// in\n    tag_66:\n      tag_67\n      jump\t// in\n    tag_65:\n      stop\n        /* \"https://github.com/OpenZeppelin/openzeppelin-contracts/blob/v4.8.3/contracts/token/ERC20/ERC20.sol\":5871:6105  function increaseAllowance(address spender, uint256 addedValue) public virtual returns (bool) {... */\n    tag_13:\n      tag_68\n      0x04\n      dup1\n      calldatasize\n      sub\n      dup2\n      add\n      swap1\n      tag_69\n      swap2\n      swap1\n      tag_31\n      jump\t// in\n    tag_69:\n      tag_70\n      jump\t// in\n    tag_68:\n      mload(0x40)\n      tag_71\n      swap2\n      swap1\n      tag_34\n      jump\t// in\n    tag_71:\n      mload(0x40)\n      dup1\n      swap2\n      sub\n      swap1\n      return\n        /* \"https://github.com/OpenZeppelin/openzeppelin-contracts/blob/v4.8.3/contracts/token/ERC20/ERC20.sol\":3406:3531  function balanceOf(address account) public view virtual override returns (uint256) {... */\n    tag_14:\n      tag_72\n      0x04\n      dup1\n      calldatasize\n      sub\n      dup2\n      add\n      swap1\n      tag_73\n      swap2\n      swap1\n      tag_43\n      jump\t// in\n    tag_73:\n      tag_74\n      jump\t// in\n    tag_72:\n      mload(0x40)\n      tag_75\n      swap2\n      swap1\n      tag_40\n      jump\t// in\n    tag_75:\n      mload(0x40)\n      dup1\n      swap2\n      sub\n      swap1\n      return\n        /* \"https://github.com/OpenZeppelin/openzeppelin-contracts/blob/v4.8.3/contracts/access/Ownable.sol\":1831:1932  function renounceOwnership() public virtual onlyOwner {... */\n    tag_15:\n      tag_76\n      tag_77\n      jump\t// in\n    tag_76:\n      stop\n        /* \"https://github.com/OpenZeppelin/openzeppelin-contracts/blob/v4.8.3/contracts/access/Ownable.sol\":1201:1286  function owner() public view virtual returns (address) {... */\n    tag_16:\n      tag_78\n      tag_79\n      jump\t// in\n    tag_78:\n      mload(0x40)\n      tag_80\n      swap2\n      swap1\n      tag_52\n      jump\t// in\n    tag_80:\n      mload(0x40)\n      dup1\n      swap2\n      sub\n      swap1\n      return\n        /* \"https://github.com/OpenZeppelin/openzeppelin-contracts/blob/v4.8.3/contracts/token/ERC20/ERC20.sol\":2365:2467  function symbol() public view virtual override returns (string memory) {... */\n    tag_17:\n      tag_81\n      tag_82\n      jump\t// in\n    tag_81:\n      mload(0x40)\n      tag_83\n      swap2\n      swap1\n      tag_28\n      jump\t// in\n    tag_83:\n      mload(0x40)\n      dup1\n      swap2\n      sub\n      swap1\n      return\n        /* \"https://github.com/OpenZeppelin/openzeppelin-contracts/blob/v4.8.3/contracts/token/ERC20/ERC20.sol\":6592:7019  function decreaseAllowance(address spender, uint256 subtractedValue) public virtual returns (bool) {... */\n    tag_18:\n      tag_84\n      0x04\n      dup1\n      calldatasize\n      sub\n      dup2\n      add\n      swap1\n      tag_85\n      swap2\n      swap1\n      tag_31\n      jump\t// in\n    tag_85:\n      tag_86\n      jump\t// in\n    tag_84:\n      mload(0x40)\n      tag_87\n      swap2\n      swap1\n      tag_34\n      jump\t// in\n    tag_87:\n      mload(0x40)\n      dup1\n      swap2\n      sub\n      swap1\n      return\n        /* \"contract/tokens.sol\":2783:3211  function transfer(address recipient, uint256 amount) public virtual override returns (bool) {... */\n    tag_19:\n      tag_88\n      0x04\n      dup1\n      calldatasize\n      sub\n      dup2\n      add\n      swap1\n      tag_89\n      swap2\n      swap1\n      tag_31\n      jump\t// in\n    tag_89:\n      tag_90\n      jump\t// in\n    tag_88:\n      mload(0x40)\n      tag_91\n      swap2\n      swap1\n      tag_34\n      jump\t// in\n    tag_91:\n      mload(0x40)\n      dup1\n      swap2\n      sub\n      swap1\n      return\n        /* \"https://github.com/OpenZeppelin/openzeppelin-contracts/blob/v4.8.3/contracts/token/ERC20/ERC20.sol\":3974:4123  function allowance(address owner, address spender) public view virtual override returns (uint256) {... */\n    tag_20:\n      tag_92\n      0x04\n      dup1\n      calldatasize\n      sub\n      dup2\n      add\n      swap1\n      tag_93\n      swap2\n      swap1\n      tag_94\n      jump\t// in\n    tag_93:\n      tag_95\n      jump\t// in\n    tag_92:\n      mload(0x40)\n      tag_96\n      swap2\n      swap1\n      tag_40\n      jump\t// in\n    tag_96:\n      mload(0x40)\n      dup1\n      swap2\n      sub\n      swap1\n      return\n        /* \"https://github.com/OpenZeppelin/openzeppelin-contracts/blob/v4.8.3/contracts/access/Ownable.sol\":2081:2279  function transferOwnership(address newOwner) public virtual onlyOwner {... */\n    tag_21:\n      tag_97\n      0x04\n      dup1\n      calldatasize\n      sub\n      dup2\n      add\n      swap1\n      tag_98\n      swap2\n      swap1\n      tag_43\n      jump\t// in\n    tag_98:\n      tag_99\n      jump\t// in\n    tag_97:\n      stop\n        /* \"https://github.com/OpenZeppelin/openzeppelin-contracts/blob/v4.8.3/contracts/token/ERC20/ERC20.sol\":2154:2252  function name() public view virtual override returns (string memory) {... */\n    tag_26:\n        /* \"https://github.com/OpenZeppelin/openzeppelin-contracts/blob/v4.8.3/contracts/token/ERC20/ERC20.sol\":2208:2221  string memory */\n      0x60\n        /* \"https://github.com/OpenZeppelin/openzeppelin-contracts/blob/v4.8.3/contracts/token/ERC20/ERC20.sol\":2240:2245  _name */\n      0x03\n        /* \"https://github.com/OpenZeppelin/openzeppelin-contracts/blob/v4.8.3/contracts/token/ERC20/ERC20.sol\":2233:2245  return _name */\n      dup1\n      sload\n      tag_101\n      swap1\n      tag_102\n      jump\t// in\n    tag_101:\n      dup1\n      0x1f\n      add\n      0x20\n      dup1\n      swap2\n      div\n      mul\n      0x20\n      add\n      mload(0x40)\n      swap1\n      dup2\n      add\n      0x40\n      mstore\n      dup1\n      swap3\n      swap2\n      swap1\n      dup2\n      dup2\n      mstore\n      0x20\n      add\n      dup3\n      dup1\n      sload\n      tag_103\n      swap1\n      tag_102\n      jump\t// in\n    tag_103:\n      dup1\n      iszero\n      tag_104\n      jumpi\n      dup1\n      0x1f\n      lt\n      tag_105\n      jumpi\n      0x0100\n      dup1\n      dup4\n      sload\n      div\n      mul\n      dup4\n      mstore\n      swap2\n      0x20\n      add\n      swap2\n      jump(tag_104)\n    tag_105:\n      dup3\n      add\n      swap2\n      swap1\n      0x00\n      mstore\n      keccak256(0x00, 0x20)\n      swap1\n    tag_106:\n      dup2\n      sload\n      dup2\n      mstore\n      swap1\n      0x01\n      add\n      swap1\n      0x20\n      add\n      dup1\n      dup4\n      gt\n      tag_106\n      jumpi\n      dup3\n      swap1\n      sub\n      0x1f\n      and\n      dup3\n      add\n      swap2\n    tag_104:\n      pop\n      pop\n      pop\n      pop\n      pop\n      swap1\n      pop\n        /* \"https://github.com/OpenZeppelin/openzeppelin-contracts/blob/v4.8.3/contracts/token/ERC20/ERC20.sol\":2154:2252  function name() public view virtual override returns (string memory) {... */\n      swap1\n      jump\t// out\n        /* \"contract/tokens.sol\":3219:3576  function approve(address spender, uint256 amount) public virtual override returns (bool) {... */\n    tag_32:\n        /* \"contract/tokens.sol\":3302:3306  bool */\n      0x00\n        /* \"contract/tokens.sol\":3319:3330  uint256 fee */\n      dup1\n        /* \"contract/tokens.sol\":3333:3347  estimateFee(0) */\n      tag_108\n        /* \"contract/tokens.sol\":3345:3346  0 */\n      0x00\n        /* \"contract/tokens.sol\":3333:3344  estimateFee */\n      tag_38\n        /* \"contract/tokens.sol\":3333:3347  estimateFee(0) */\n      jump\t// in\n    tag_108:\n        /* \"contract/tokens.sol\":3319:3347  uint256 fee = estimateFee(0) */\n      swap1\n      pop\n        /* \"contract/tokens.sol\":3395:3398  fee */\n      dup1\n        /* \"contract/tokens.sol\":3368:3391  balanceOf(_msgSender()) */\n      tag_109\n        /* \"contract/tokens.sol\":3378:3390  _msgSender() */\n      tag_110\n        /* \"contract/tokens.sol\":3378:3388  _msgSender */\n      tag_111\n        /* \"contract/tokens.sol\":3378:3390  _msgSender() */\n      jump\t// in\n    tag_110:\n        /* \"contract/tokens.sol\":3368:3377  balanceOf */\n      tag_74\n        /* \"contract/tokens.sol\":3368:3391  balanceOf(_msgSender()) */\n      jump\t// in\n    tag_109:\n        /* \"contract/tokens.sol\":3368:3398  balanceOf(_msgSender()) >= fee */\n      lt\n      iszero\n        /* \"contract/tokens.sol\":3360:3444  require(balanceOf(_msgSender()) >= fee, \"VRC25: not enough tokens for approval fee\") */\n      tag_112\n      jumpi\n      mload(0x40)\n      0x08c379a000000000000000000000000000000000000000000000000000000000\n      dup2\n      mstore\n      0x04\n      add\n      tag_113\n      swap1\n      tag_114\n      jump\t// in\n    tag_113:\n      mload(0x40)\n      dup1\n      swap2\n      sub\n      swap1\n      revert\n    tag_112:\n        /* \"contract/tokens.sol\":3457:3490  _chargeFeeFrom(_msgSender(), fee) */\n      tag_115\n        /* \"contract/tokens.sol\":3472:3484  _msgSender() */\n      tag_116\n        /* \"contract/tokens.sol\":3472:3482  _msgSender */\n      tag_111\n        /* \"contract/tokens.sol\":3472:3484  _msgSender() */\n      jump\t// in\n    tag_116:\n        /* \"contract/tokens.sol\":3486:3489  fee */\n      dup3\n        /* \"contract/tokens.sol\":3457:3471  _chargeFeeFrom */\n      tag_117\n        /* \"contract/tokens.sol\":3457:3490  _chargeFeeFrom(_msgSender(), fee) */\n      jump\t// in\n    tag_115:\n        /* \"contract/tokens.sol\":3501:3546  super._approve(_msgSender(), spender, amount) */\n      tag_118\n        /* \"contract/tokens.sol\":3516:3528  _msgSender() */\n      tag_119\n        /* \"contract/tokens.sol\":3516:3526  _msgSender */\n      tag_111\n        /* \"contract/tokens.sol\":3516:3528  _msgSender() */\n      jump\t// in\n    tag_119:\n        /* \"contract/tokens.sol\":3530:3537  spender */\n      dup6\n        /* \"contract/tokens.sol\":3539:3545  amount */\n      dup6\n        /* \"contract/tokens.sol\":3501:3515  super._approve */\n      tag_120\n        /* \"contract/tokens.sol\":3501:3546  super._approve(_msgSender(), spender, amount) */\n      jump\t// in\n    tag_118:\n        /* \"contract/tokens.sol\":3564:3568  true */\n      0x01\n        /* \"contract/tokens.sol\":3557:3568  return true */\n      swap2\n      pop\n      pop\n        /* \"contract/tokens.sol\":3219:3576  function approve(address spender, uint256 amount) public virtual override returns (bool) {... */\n      swap3\n      swap2\n      pop\n      pop\n      jump\t// out\n        /* \"contract/tokens.sol\":2205:2378  function estimateFee(uint256 value) public view override returns (uint256) {... */\n    tag_38:\n        /* \"contract/tokens.sol\":2271:2278  uint256 */\n      0x00\n        /* \"contract/tokens.sol\":2342:2370  value.div(1000).add(_minFee) */\n      tag_122\n        /* \"contract/tokens.sol\":2362:2369  _minFee */\n      sload(0x06)\n        /* \"contract/tokens.sol\":2342:2357  value.div(1000) */\n      tag_123\n        /* \"contract/tokens.sol\":2352:2356  1000 */\n      0x03e8\n        /* \"contract/tokens.sol\":2342:2347  value */\n      dup6\n        /* \"contract/tokens.sol\":2342:2351  value.div */\n      tag_124\n      swap1\n        /* \"contract/tokens.sol\":2342:2357  value.div(1000) */\n      swap2\n      swap1\n      0xffffffff\n      and\n      jump\t// in\n    tag_123:\n        /* \"contract/tokens.sol\":2342:2361  value.div(1000).add */\n      tag_125\n      swap1\n        /* \"contract/tokens.sol\":2342:2370  value.div(1000).add(_minFee) */\n      swap2\n      swap1\n      0xffffffff\n      and\n      jump\t// in\n    tag_122:\n        /* \"contract/tokens.sol\":2335:2370  return value.div(1000).add(_minFee) */\n      swap1\n      pop\n        /* \"contract/tokens.sol\":2205:2378  function estimateFee(uint256 value) public view override returns (uint256) {... */\n      swap2\n      swap1\n      pop\n      jump\t// out\n        /* \"contract/tokens.sol\":2386:2500  function isContract(address account) public view returns (bool){... */\n    tag_44:\n        /* \"contract/tokens.sol\":2444:2448  bool */\n      0x00\n        /* \"contract/tokens.sol\":2490:2491  0 */\n      dup1\n        /* \"contract/tokens.sol\":2468:2475  account */\n      dup3\n        /* \"contract/tokens.sol\":2468:2487  account.code.length */\n      0xffffffffffffffffffffffffffffffffffffffff\n      and\n      extcodesize\n        /* \"contract/tokens.sol\":2468:2491  account.code.length > 0 */\n      gt\n        /* \"contract/tokens.sol\":2461:2491  return account.code.length > 0 */\n      swap1\n      pop\n        /* \"contract/tokens.sol\":2386:2500  function isContract(address account) public view returns (bool){... */\n      swap2\n      swap1\n      pop\n      jump\t// out\n        /* \"https://github.com/OpenZeppelin/openzeppelin-contracts/blob/v4.8.3/contracts/token/ERC20/ERC20.sol\":3242:3348  function totalSupply() public view virtual override returns (uint256) {... */\n    tag_47:\n        /* \"https://github.com/OpenZeppelin/openzeppelin-contracts/blob/v4.8.3/contracts/token/ERC20/ERC20.sol\":3303:3310  uint256 */\n      0x00\n        /* \"https://github.com/OpenZeppelin/openzeppelin-contracts/blob/v4.8.3/contracts/token/ERC20/ERC20.sol\":3329:3341  _totalSupply */\n      sload(0x02)\n        /* \"https://github.com/OpenZeppelin/openzeppelin-contracts/blob/v4.8.3/contracts/token/ERC20/ERC20.sol\":3322:3341  return _totalSupply */\n      swap1\n      pop\n        /* \"https://github.com/OpenZeppelin/openzeppelin-contracts/blob/v4.8.3/contracts/token/ERC20/ERC20.sol\":3242:3348  function totalSupply() public view virtual override returns (uint256) {... */\n      swap1\n      jump\t// out\n        /* \"contract/tokens.sol\":1917:2007  function issuer() public view override returns (address) {... */\n    tag_50:\n        /* \"contract/tokens.sol\":1965:1972  address */\n      0x00\n        /* \"contract/tokens.sol\":1992:1999  owner() */\n      tag_129\n        /* \"contract/tokens.sol\":1992:1997  owner */\n      tag_79\n        /* \"contract/tokens.sol\":1992:1999  owner() */\n      jump\t// in\n    tag_129:\n        /* \"contract/tokens.sol\":1985:1999  return owner() */\n      swap1\n      pop\n        /* \"contract/tokens.sol\":1917:2007  function issuer() public view override returns (address) {... */\n      swap1\n      jump\t// out\n        /* \"contract/tokens.sol\":3584:4229  function transferFrom(address sender, address recipient, uint256 amount) public virtual override returns (bool) {... */\n    tag_56:\n        /* \"contract/tokens.sol\":3690:3694  bool */\n      0x00\n        /* \"contract/tokens.sol\":3707:3718  uint256 fee */\n      dup1\n        /* \"contract/tokens.sol\":3721:3740  estimateFee(amount) */\n      tag_131\n        /* \"contract/tokens.sol\":3733:3739  amount */\n      dup4\n        /* \"contract/tokens.sol\":3721:3732  estimateFee */\n      tag_38\n        /* \"contract/tokens.sol\":3721:3740  estimateFee(amount) */\n      jump\t// in\n    tag_131:\n        /* \"contract/tokens.sol\":3707:3740  uint256 fee = estimateFee(amount) */\n      swap1\n      pop\n        /* \"contract/tokens.sol\":3751:3770  uint256 totalAmount */\n      0x00\n        /* \"contract/tokens.sol\":3773:3788  amount.add(fee) */\n      tag_132\n        /* \"contract/tokens.sol\":3784:3787  fee */\n      dup3\n        /* \"contract/tokens.sol\":3773:3779  amount */\n      dup6\n        /* \"contract/tokens.sol\":3773:3783  amount.add */\n      tag_125\n      swap1\n        /* \"contract/tokens.sol\":3773:3788  amount.add(fee) */\n      swap2\n      swap1\n      0xffffffff\n      and\n      jump\t// in\n    tag_132:\n        /* \"contract/tokens.sol\":3751:3788  uint256 totalAmount = amount.add(fee) */\n      swap1\n      pop\n        /* \"contract/tokens.sol\":3844:3855  totalAmount */\n      dup1\n        /* \"contract/tokens.sol\":3809:3840  allowance(sender, _msgSender()) */\n      tag_133\n        /* \"contract/tokens.sol\":3819:3825  sender */\n      dup8\n        /* \"contract/tokens.sol\":3827:3839  _msgSender() */\n      tag_134\n        /* \"contract/tokens.sol\":3827:3837  _msgSender */\n      tag_111\n        /* \"contract/tokens.sol\":3827:3839  _msgSender() */\n      jump\t// in\n    tag_134:\n        /* \"contract/tokens.sol\":3809:3818  allowance */\n      tag_95\n        /* \"contract/tokens.sol\":3809:3840  allowance(sender, _msgSender()) */\n      jump\t// in\n    tag_133:\n        /* \"contract/tokens.sol\":3809:3855  allowance(sender, _msgSender()) >= totalAmount */\n      lt\n      iszero\n        /* \"contract/tokens.sol\":3801:3908  require(allowance(sender, _msgSender()) >= totalAmount, \"VRC25: not enough allowance for transfer and fee\") */\n      tag_135\n      jumpi\n      mload(0x40)\n      0x08c379a000000000000000000000000000000000000000000000000000000000\n      dup2\n      mstore\n      0x04\n      add\n      tag_136\n      swap1\n      tag_137\n      jump\t// in\n    tag_136:\n      mload(0x40)\n      dup1\n      swap2\n      sub\n      swap1\n      revert\n    tag_135:\n        /* \"contract/tokens.sol\":3948:3959  totalAmount */\n      dup1\n        /* \"contract/tokens.sol\":3927:3944  balanceOf(sender) */\n      tag_138\n        /* \"contract/tokens.sol\":3937:3943  sender */\n      dup8\n        /* \"contract/tokens.sol\":3927:3936  balanceOf */\n      tag_74\n        /* \"contract/tokens.sol\":3927:3944  balanceOf(sender) */\n      jump\t// in\n    tag_138:\n        /* \"contract/tokens.sol\":3927:3959  balanceOf(sender) >= totalAmount */\n      lt\n      iszero\n        /* \"contract/tokens.sol\":3919:4009  require(balanceOf(sender) >= totalAmount, \"VRC25: not enough tokens for transfer and fee\") */\n      tag_139\n      jumpi\n      mload(0x40)\n      0x08c379a000000000000000000000000000000000000000000000000000000000\n      dup2\n      mstore\n      0x04\n      add\n      tag_140\n      swap1\n      tag_141\n      jump\t// in\n    tag_140:\n      mload(0x40)\n      dup1\n      swap2\n      sub\n      swap1\n      revert\n    tag_139:\n        /* \"contract/tokens.sol\":4022:4049  _chargeFeeFrom(sender, fee) */\n      tag_142\n        /* \"contract/tokens.sol\":4037:4043  sender */\n      dup7\n        /* \"contract/tokens.sol\":4045:4048  fee */\n      dup4\n        /* \"contract/tokens.sol\":4022:4036  _chargeFeeFrom */\n      tag_117\n        /* \"contract/tokens.sol\":4022:4049  _chargeFeeFrom(sender, fee) */\n      jump\t// in\n    tag_142:\n        /* \"contract/tokens.sol\":4060:4102  super._transfer(sender, recipient, amount) */\n      tag_143\n        /* \"contract/tokens.sol\":4076:4082  sender */\n      dup7\n        /* \"contract/tokens.sol\":4084:4093  recipient */\n      dup7\n        /* \"contract/tokens.sol\":4095:4101  amount */\n      dup7\n        /* \"contract/tokens.sol\":4060:4075  super._transfer */\n      tag_144\n        /* \"contract/tokens.sol\":4060:4102  super._transfer(sender, recipient, amount) */\n      jump\t// in\n    tag_143:\n        /* \"contract/tokens.sol\":4113:4199  super._approve(sender, _msgSender(), allowance(sender, _msgSender()).sub(totalAmount)) */\n      tag_145\n        /* \"contract/tokens.sol\":4128:4134  sender */\n      dup7\n        /* \"contract/tokens.sol\":4136:4148  _msgSender() */\n      tag_146\n        /* \"contract/tokens.sol\":4136:4146  _msgSender */\n      tag_111\n        /* \"contract/tokens.sol\":4136:4148  _msgSender() */\n      jump\t// in\n    tag_146:\n        /* \"contract/tokens.sol\":4150:4198  allowance(sender, _msgSender()).sub(totalAmount) */\n      tag_147\n        /* \"contract/tokens.sol\":4186:4197  totalAmount */\n      dup5\n        /* \"contract/tokens.sol\":4150:4181  allowance(sender, _msgSender()) */\n      tag_148\n        /* \"contract/tokens.sol\":4160:4166  sender */\n      dup12\n        /* \"contract/tokens.sol\":4168:4180  _msgSender() */\n      tag_149\n        /* \"contract/tokens.sol\":4168:4178  _msgSender */\n      tag_111\n        /* \"contract/tokens.sol\":4168:4180  _msgSender() */\n      jump\t// in\n    tag_149:\n        /* \"contract/tokens.sol\":4150:4159  allowance */\n      tag_95\n        /* \"contract/tokens.sol\":4150:4181  allowance(sender, _msgSender()) */\n      jump\t// in\n    tag_148:\n        /* \"contract/tokens.sol\":4150:4185  allowance(sender, _msgSender()).sub */\n      tag_150\n      swap1\n        /* \"contract/tokens.sol\":4150:4198  allowance(sender, _msgSender()).sub(totalAmount) */\n      swap2\n      swap1\n      0xffffffff\n      and\n      jump\t// in\n    tag_147:\n        /* \"contract/tokens.sol\":4113:4127  super._approve */\n      tag_120\n        /* \"contract/tokens.sol\":4113:4199  super._approve(sender, _msgSender(), allowance(sender, _msgSender()).sub(totalAmount)) */\n      jump\t// in\n    tag_145:\n        /* \"contract/tokens.sol\":4217:4221  true */\n      0x01\n        /* \"contract/tokens.sol\":4210:4221  return true */\n      swap3\n      pop\n      pop\n      pop\n        /* \"contract/tokens.sol\":3584:4229  function transferFrom(address sender, address recipient, uint256 amount) public virtual override returns (bool) {... */\n      swap4\n      swap3\n      pop\n      pop\n      pop\n      jump\t// out\n        /* \"contract/tokens.sol\":2015:2096  function minFee() public view returns (uint256) {... */\n    tag_59:\n        /* \"contract/tokens.sol\":2054:2061  uint256 */\n      0x00\n        /* \"contract/tokens.sol\":2081:2088  _minFee */\n      sload(0x06)\n        /* \"contract/tokens.sol\":2074:2088  return _minFee */\n      swap1\n      pop\n        /* \"contract/tokens.sol\":2015:2096  function minFee() public view returns (uint256) {... */\n      swap1\n      jump\t// out\n        /* \"contract/tokens.sol\":1803:1909  function decimals() public view virtual override returns (uint8) {... */\n    tag_62:\n        /* \"contract/tokens.sol\":1861:1866  uint8 */\n      0x00\n        /* \"contract/tokens.sol\":1886:1901  _customDecimals */\n      0x07\n      0x00\n      swap1\n      sload\n      swap1\n      0x0100\n      exp\n      swap1\n      div\n      0xff\n      and\n        /* \"contract/tokens.sol\":1879:1901  return _customDecimals */\n      swap1\n      pop\n        /* \"contract/tokens.sol\":1803:1909  function decimals() public view virtual override returns (uint8) {... */\n      swap1\n      jump\t// out\n        /* \"contract/tokens.sol\":2104:2197  function setMinFee(uint256 newMinFee) public onlyOwner {... */\n    tag_67:\n        /* \"https://github.com/OpenZeppelin/openzeppelin-contracts/blob/v4.8.3/contracts/access/Ownable.sol\":1094:1107  _checkOwner() */\n      tag_154\n        /* \"https://github.com/OpenZeppelin/openzeppelin-contracts/blob/v4.8.3/contracts/access/Ownable.sol\":1094:1105  _checkOwner */\n      tag_155\n        /* \"https://github.com/OpenZeppelin/openzeppelin-contracts/blob/v4.8.3/contracts/access/Ownable.sol\":1094:1107  _checkOwner() */\n      jump\t// in\n    tag_154:\n        /* \"contract/tokens.sol\":2180:2189  newMinFee */\n      dup1\n        /* \"contract/tokens.sol\":2170:2177  _minFee */\n      0x06\n        /* \"contract/tokens.sol\":2170:2189  _minFee = newMinFee */\n      dup2\n      swap1\n      sstore\n      pop\n        /* \"contract/tokens.sol\":2104:2197  function setMinFee(uint256 newMinFee) public onlyOwner {... */\n      pop\n      jump\t// out\n        /* \"https://github.com/OpenZeppelin/openzeppelin-contracts/blob/v4.8.3/contracts/token/ERC20/ERC20.sol\":5871:6105  function increaseAllowance(address spender, uint256 addedValue) public virtual returns (bool) {... */\n    tag_70:\n        /* \"https://github.com/OpenZeppelin/openzeppelin-contracts/blob/v4.8.3/contracts/token/ERC20/ERC20.sol\":5959:5963  bool */\n      0x00\n        /* \"https://github.com/OpenZeppelin/openzeppelin-contracts/blob/v4.8.3/contracts/token/ERC20/ERC20.sol\":5975:5988  address owner */\n      dup1\n        /* \"https://github.com/OpenZeppelin/openzeppelin-contracts/blob/v4.8.3/contracts/token/ERC20/ERC20.sol\":5991:6003  _msgSender() */\n      tag_158\n        /* \"https://github.com/OpenZeppelin/openzeppelin-contracts/blob/v4.8.3/contracts/token/ERC20/ERC20.sol\":5991:6001  _msgSender */\n      tag_111\n        /* \"https://github.com/OpenZeppelin/openzeppelin-contracts/blob/v4.8.3/contracts/token/ERC20/ERC20.sol\":5991:6003  _msgSender() */\n      jump\t// in\n    tag_158:\n        /* \"https://github.com/OpenZeppelin/openzeppelin-contracts/blob/v4.8.3/contracts/token/ERC20/ERC20.sol\":5975:6003  address owner = _msgSender() */\n      swap1\n      pop\n        /* \"https://github.com/OpenZeppelin/openzeppelin-contracts/blob/v4.8.3/contracts/token/ERC20/ERC20.sol\":6013:6077  _approve(owner, spender, allowance(owner, spender) + addedValue) */\n      tag_159\n        /* \"https://github.com/OpenZeppelin/openzeppelin-contracts/blob/v4.8.3/contracts/token/ERC20/ERC20.sol\":6022:6027  owner */\n      dup2\n        /* \"https://github.com/OpenZeppelin/openzeppelin-contracts/blob/v4.8.3/contracts/token/ERC20/ERC20.sol\":6029:6036  spender */\n      dup6\n        /* \"https://github.com/OpenZeppelin/openzeppelin-contracts/blob/v4.8.3/contracts/token/ERC20/ERC20.sol\":6066:6076  addedValue */\n      dup6\n        /* \"https://github.com/OpenZeppelin/openzeppelin-contracts/blob/v4.8.3/contracts/token/ERC20/ERC20.sol\":6038:6063  allowance(owner, spender) */\n      tag_160\n        /* \"https://github.com/OpenZeppelin/openzeppelin-contracts/blob/v4.8.3/contracts/token/ERC20/ERC20.sol\":6048:6053  owner */\n      dup6\n        /* \"https://github.com/OpenZeppelin/openzeppelin-contracts/blob/v4.8.3/contracts/token/ERC20/ERC20.sol\":6055:6062  spender */\n      dup10\n        /* \"https://github.com/OpenZeppelin/openzeppelin-contracts/blob/v4.8.3/contracts/token/ERC20/ERC20.sol\":6038:6047  allowance */\n      tag_95\n        /* \"https://github.com/OpenZeppelin/openzeppelin-contracts/blob/v4.8.3/contracts/token/ERC20/ERC20.sol\":6038:6063  allowance(owner, spender) */\n      jump\t// in\n    tag_160:\n        /* \"https://github.com/OpenZeppelin/openzeppelin-contracts/blob/v4.8.3/contracts/token/ERC20/ERC20.sol\":6038:6076  allowance(owner, spender) + addedValue */\n      tag_161\n      swap2\n      swap1\n      tag_162\n      jump\t// in\n    tag_161:\n        /* \"https://github.com/OpenZeppelin/openzeppelin-contracts/blob/v4.8.3/contracts/token/ERC20/ERC20.sol\":6013:6021  _approve */\n      tag_120\n        /* \"https://github.com/OpenZeppelin/openzeppelin-contracts/blob/v4.8.3/contracts/token/ERC20/ERC20.sol\":6013:6077  _approve(owner, spender, allowance(owner, spender) + addedValue) */\n      jump\t// in\n    tag_159:\n        /* \"https://github.com/OpenZeppelin/openzeppelin-contracts/blob/v4.8.3/contracts/token/ERC20/ERC20.sol\":6094:6098  true */\n      0x01\n        /* \"https://github.com/OpenZeppelin/openzeppelin-contracts/blob/v4.8.3/contracts/token/ERC20/ERC20.sol\":6087:6098  return true */\n      swap2\n      pop\n      pop\n        /* \"https://github.com/OpenZeppelin/openzeppelin-contracts/blob/v4.8.3/contracts/token/ERC20/ERC20.sol\":5871:6105  function increaseAllowance(address spender, uint256 addedValue) public virtual returns (bool) {... */\n      swap3\n      swap2\n      pop\n      pop\n      jump\t// out\n        /* \"https://github.com/OpenZeppelin/openzeppelin-contracts/blob/v4.8.3/contracts/token/ERC20/ERC20.sol\":3406:3531  function balanceOf(address account) public view virtual override returns (uint256) {... */\n    tag_74:\n        /* \"https://github.com/OpenZeppelin/openzeppelin-contracts/blob/v4.8.3/contracts/token/ERC20/ERC20.sol\":3480:3487  uint256 */\n      0x00\n        /* \"https://github.com/OpenZeppelin/openzeppelin-contracts/blob/v4.8.3/contracts/token/ERC20/ERC20.sol\":3506:3515  _balances */\n      dup1\n        /* \"https://github.com/OpenZeppelin/openzeppelin-contracts/blob/v4.8.3/contracts/token/ERC20/ERC20.sol\":3506:3524  _balances[account] */\n      0x00\n        /* \"https://github.com/OpenZeppelin/openzeppelin-contracts/blob/v4.8.3/contracts/token/ERC20/ERC20.sol\":3516:3523  account */\n      dup4\n        /* \"https://github.com/OpenZeppelin/openzeppelin-contracts/blob/v4.8.3/contracts/token/ERC20/ERC20.sol\":3506:3524  _balances[account] */\n      0xffffffffffffffffffffffffffffffffffffffff\n      and\n      0xffffffffffffffffffffffffffffffffffffffff\n      and\n      dup2\n      mstore\n      0x20\n      add\n      swap1\n      dup2\n      mstore\n      0x20\n      add\n      0x00\n      keccak256\n      sload\n        /* \"https://github.com/OpenZeppelin/openzeppelin-contracts/blob/v4.8.3/contracts/token/ERC20/ERC20.sol\":3499:3524  return _balances[account] */\n      swap1\n      pop\n        /* \"https://github.com/OpenZeppelin/openzeppelin-contracts/blob/v4.8.3/contracts/token/ERC20/ERC20.sol\":3406:3531  function balanceOf(address account) public view virtual override returns (uint256) {... */\n      swap2\n      swap1\n      pop\n      jump\t// out\n        /* \"https://github.com/OpenZeppelin/openzeppelin-contracts/blob/v4.8.3/contracts/access/Ownable.sol\":1831:1932  function renounceOwnership() public virtual onlyOwner {... */\n    tag_77:\n        /* \"https://github.com/OpenZeppelin/openzeppelin-contracts/blob/v4.8.3/contracts/access/Ownable.sol\":1094:1107  _checkOwner() */\n      tag_165\n        /* \"https://github.com/OpenZeppelin/openzeppelin-contracts/blob/v4.8.3/contracts/access/Ownable.sol\":1094:1105  _checkOwner */\n      tag_155\n        /* \"https://github.com/OpenZeppelin/openzeppelin-contracts/blob/v4.8.3/contracts/access/Ownable.sol\":1094:1107  _checkOwner() */\n      jump\t// in\n    tag_165:\n        /* \"https://github.com/OpenZeppelin/openzeppelin-contracts/blob/v4.8.3/contracts/access/Ownable.sol\":1895:1925  _transferOwnership(address(0)) */\n      tag_167\n        /* \"https://github.com/OpenZeppelin/openzeppelin-contracts/blob/v4.8.3/contracts/access/Ownable.sol\":1922:1923  0 */\n      0x00\n        /* \"https://github.com/OpenZeppelin/openzeppelin-contracts/blob/v4.8.3/contracts/access/Ownable.sol\":1895:1913  _transferOwnership */\n      tag_168\n        /* \"https://github.com/OpenZeppelin/openzeppelin-contracts/blob/v4.8.3/contracts/access/Ownable.sol\":1895:1925  _transferOwnership(address(0)) */\n      jump\t// in\n    tag_167:\n        /* \"https://github.com/OpenZeppelin/openzeppelin-contracts/blob/v4.8.3/contracts/access/Ownable.sol\":1831:1932  function renounceOwnership() public virtual onlyOwner {... */\n      jump\t// out\n        /* \"https://github.com/OpenZeppelin/openzeppelin-contracts/blob/v4.8.3/contracts/access/Ownable.sol\":1201:1286  function owner() public view virtual returns (address) {... */\n    tag_79:\n        /* \"https://github.com/OpenZeppelin/openzeppelin-contracts/blob/v4.8.3/contracts/access/Ownable.sol\":1247:1254  address */\n      0x00\n        /* \"https://github.com/OpenZeppelin/openzeppelin-contracts/blob/v4.8.3/contracts/access/Ownable.sol\":1273:1279  _owner */\n      0x05\n      0x00\n      swap1\n      sload\n      swap1\n      0x0100\n      exp\n      swap1\n      div\n      0xffffffffffffffffffffffffffffffffffffffff\n      and\n        /* \"https://github.com/OpenZeppelin/openzeppelin-contracts/blob/v4.8.3/contracts/access/Ownable.sol\":1266:1279  return _owner */\n      swap1\n      pop\n        /* \"https://github.com/OpenZeppelin/openzeppelin-contracts/blob/v4.8.3/contracts/access/Ownable.sol\":1201:1286  function owner() public view virtual returns (address) {... */\n      swap1\n      jump\t// out\n        /* \"https://github.com/OpenZeppelin/openzeppelin-contracts/blob/v4.8.3/contracts/token/ERC20/ERC20.sol\":2365:2467  function symbol() public view virtual override returns (string memory) {... */\n    tag_82:\n        /* \"https://github.com/OpenZeppelin/openzeppelin-contracts/blob/v4.8.3/contracts/token/ERC20/ERC20.sol\":2421:2434  string memory */\n      0x60\n        /* \"https://github.com/OpenZeppelin/openzeppelin-contracts/blob/v4.8.3/contracts/token/ERC20/ERC20.sol\":2453:2460  _symbol */\n      0x04\n        /* \"https://github.com/OpenZeppelin/openzeppelin-contracts/blob/v4.8.3/contracts/token/ERC20/ERC20.sol\":2446:2460  return _symbol */\n      dup1\n      sload\n      tag_171\n      swap1\n      tag_102\n      jump\t// in\n    tag_171:\n      dup1\n      0x1f\n      add\n      0x20\n      dup1\n      swap2\n      div\n      mul\n      0x20\n      add\n      mload(0x40)\n      swap1\n      dup2\n      add\n      0x40\n      mstore\n      dup1\n      swap3\n      swap2\n      swap1\n      dup2\n      dup2\n      mstore\n      0x20\n      add\n      dup3\n      dup1\n      sload\n      tag_172\n      swap1\n      tag_102\n      jump\t// in\n    tag_172:\n      dup1\n      iszero\n      tag_173\n      jumpi\n      dup1\n      0x1f\n      lt\n      tag_174\n      jumpi\n      0x0100\n      dup1\n      dup4\n      sload\n      div\n      mul\n      dup4\n      mstore\n      swap2\n      0x20\n      add\n      swap2\n      jump(tag_173)\n    tag_174:\n      dup3\n      add\n      swap2\n      swap1\n      0x00\n      mstore\n      keccak256(0x00, 0x20)\n      swap1\n    tag_175:\n      dup2\n      sload\n      dup2\n      mstore\n      swap1\n      0x01\n      add\n      swap1\n      0x20\n      add\n      dup1\n      dup4\n      gt\n      tag_175\n      jumpi\n      dup3\n      swap1\n      sub\n      0x1f\n      and\n      dup3\n      add\n      swap2\n    tag_173:\n      pop\n      pop\n      pop\n      pop\n      pop\n      swap1\n      pop\n        /* \"https://github.com/OpenZeppelin/openzeppelin-contracts/blob/v4.8.3/contracts/token/ERC20/ERC20.sol\":2365:2467  function symbol() public view virtual override returns (string memory) {... */\n      swap1\n      jump\t// out\n        /* \"https://github.com/OpenZeppelin/openzeppelin-contracts/blob/v4.8.3/contracts/token/ERC20/ERC20.sol\":6592:7019  function decreaseAllowance(address spender, uint256 subtractedValue) public virtual returns (bool) {... */\n    tag_86:\n        /* \"https://github.com/OpenZeppelin/openzeppelin-contracts/blob/v4.8.3/contracts/token/ERC20/ERC20.sol\":6685:6689  bool */\n      0x00\n        /* \"https://github.com/OpenZeppelin/openzeppelin-contracts/blob/v4.8.3/contracts/token/ERC20/ERC20.sol\":6701:6714  address owner */\n      dup1\n        /* \"https://github.com/OpenZeppelin/openzeppelin-contracts/blob/v4.8.3/contracts/token/ERC20/ERC20.sol\":6717:6729  _msgSender() */\n      tag_177\n        /* \"https://github.com/OpenZeppelin/openzeppelin-contracts/blob/v4.8.3/contracts/token/ERC20/ERC20.sol\":6717:6727  _msgSender */\n      tag_111\n        /* \"https://github.com/OpenZeppelin/openzeppelin-contracts/blob/v4.8.3/contracts/token/ERC20/ERC20.sol\":6717:6729  _msgSender() */\n      jump\t// in\n    tag_177:\n        /* \"https://github.com/OpenZeppelin/openzeppelin-contracts/blob/v4.8.3/contracts/token/ERC20/ERC20.sol\":6701:6729  address owner = _msgSender() */\n      swap1\n      pop\n        /* \"https://github.com/OpenZeppelin/openzeppelin-contracts/blob/v4.8.3/contracts/token/ERC20/ERC20.sol\":6739:6763  uint256 currentAllowance */\n      0x00\n        /* \"https://github.com/OpenZeppelin/openzeppelin-contracts/blob/v4.8.3/contracts/token/ERC20/ERC20.sol\":6766:6791  allowance(owner, spender) */\n      tag_178\n        /* \"https://github.com/OpenZeppelin/openzeppelin-contracts/blob/v4.8.3/contracts/token/ERC20/ERC20.sol\":6776:6781  owner */\n      dup3\n        /* \"https://github.com/OpenZeppelin/openzeppelin-contracts/blob/v4.8.3/contracts/token/ERC20/ERC20.sol\":6783:6790  spender */\n      dup7\n        /* \"https://github.com/OpenZeppelin/openzeppelin-contracts/blob/v4.8.3/contracts/token/ERC20/ERC20.sol\":6766:6775  allowance */\n      tag_95\n        /* \"https://github.com/OpenZeppelin/openzeppelin-contracts/blob/v4.8.3/contracts/token/ERC20/ERC20.sol\":6766:6791  allowance(owner, spender) */\n      jump\t// in\n    tag_178:\n        /* \"https://github.com/OpenZeppelin/openzeppelin-contracts/blob/v4.8.3/contracts/token/ERC20/ERC20.sol\":6739:6791  uint256 currentAllowance = allowance(owner, spender) */\n      swap1\n      pop\n        /* \"https://github.com/OpenZeppelin/openzeppelin-contracts/blob/v4.8.3/contracts/token/ERC20/ERC20.sol\":6829:6844  subtractedValue */\n      dup4\n        /* \"https://github.com/OpenZeppelin/openzeppelin-contracts/blob/v4.8.3/contracts/token/ERC20/ERC20.sol\":6809:6825  currentAllowance */\n      dup2\n        /* \"https://github.com/OpenZeppelin/openzeppelin-contracts/blob/v4.8.3/contracts/token/ERC20/ERC20.sol\":6809:6844  currentAllowance >= subtractedValue */\n      lt\n      iszero\n        /* \"https://github.com/OpenZeppelin/openzeppelin-contracts/blob/v4.8.3/contracts/token/ERC20/ERC20.sol\":6801:6886  require(currentAllowance >= subtractedValue, \"ERC20: decreased allowance below zero\") */\n      tag_179\n      jumpi\n      mload(0x40)\n      0x08c379a000000000000000000000000000000000000000000000000000000000\n      dup2\n      mstore\n      0x04\n      add\n      tag_180\n      swap1\n      tag_181\n      jump\t// in\n    tag_180:\n      mload(0x40)\n      dup1\n      swap2\n      sub\n      swap1\n      revert\n    tag_179:\n        /* \"https://github.com/OpenZeppelin/openzeppelin-contracts/blob/v4.8.3/contracts/token/ERC20/ERC20.sol\":6920:6980  _approve(owner, spender, currentAllowance - subtractedValue) */\n      tag_182\n        /* \"https://github.com/OpenZeppelin/openzeppelin-contracts/blob/v4.8.3/contracts/token/ERC20/ERC20.sol\":6929:6934  owner */\n      dup3\n        /* \"https://github.com/OpenZeppelin/openzeppelin-contracts/blob/v4.8.3/contracts/token/ERC20/ERC20.sol\":6936:6943  spender */\n      dup7\n        /* \"https://github.com/OpenZeppelin/openzeppelin-contracts/blob/v4.8.3/contracts/token/ERC20/ERC20.sol\":6964:6979  subtractedValue */\n      dup7\n        /* \"https://github.com/OpenZeppelin/openzeppelin-contracts/blob/v4.8.3/contracts/token/ERC20/ERC20.sol\":6945:6961  currentAllowance */\n      dup5\n        /* \"https://github.com/OpenZeppelin/openzeppelin-contracts/blob/v4.8.3/contracts/token/ERC20/ERC20.sol\":6945:6979  currentAllowance - subtractedValue */\n      sub\n        /* \"https://github.com/OpenZeppelin/openzeppelin-contracts/blob/v4.8.3/contracts/token/ERC20/ERC20.sol\":6920:6928  _approve */\n      tag_120\n        /* \"https://github.com/OpenZeppelin/openzeppelin-contracts/blob/v4.8.3/contracts/token/ERC20/ERC20.sol\":6920:6980  _approve(owner, spender, currentAllowance - subtractedValue) */\n      jump\t// in\n    tag_182:\n        /* \"https://github.com/OpenZeppelin/openzeppelin-contracts/blob/v4.8.3/contracts/token/ERC20/ERC20.sol\":7008:7012  true */\n      0x01\n        /* \"https://github.com/OpenZeppelin/openzeppelin-contracts/blob/v4.8.3/contracts/token/ERC20/ERC20.sol\":7001:7012  return true */\n      swap3\n      pop\n      pop\n      pop\n        /* \"https://github.com/OpenZeppelin/openzeppelin-contracts/blob/v4.8.3/contracts/token/ERC20/ERC20.sol\":6592:7019  function decreaseAllowance(address spender, uint256 subtractedValue) public virtual returns (bool) {... */\n      swap3\n      swap2\n      pop\n      pop\n      jump\t// out\n        /* \"contract/tokens.sol\":2783:3211  function transfer(address recipient, uint256 amount) public virtual override returns (bool) {... */\n    tag_90:\n        /* \"contract/tokens.sol\":2869:2873  bool */\n      0x00\n        /* \"contract/tokens.sol\":2886:2897  uint256 fee */\n      dup1\n        /* \"contract/tokens.sol\":2900:2919  estimateFee(amount) */\n      tag_184\n        /* \"contract/tokens.sol\":2912:2918  amount */\n      dup4\n        /* \"contract/tokens.sol\":2900:2911  estimateFee */\n      tag_38\n        /* \"contract/tokens.sol\":2900:2919  estimateFee(amount) */\n      jump\t// in\n    tag_184:\n        /* \"contract/tokens.sol\":2886:2919  uint256 fee = estimateFee(amount) */\n      swap1\n      pop\n        /* \"contract/tokens.sol\":2930:2949  uint256 totalAmount */\n      0x00\n        /* \"contract/tokens.sol\":2952:2967  amount.add(fee) */\n      tag_185\n        /* \"contract/tokens.sol\":2963:2966  fee */\n      dup3\n        /* \"contract/tokens.sol\":2952:2958  amount */\n      dup6\n        /* \"contract/tokens.sol\":2952:2962  amount.add */\n      tag_125\n      swap1\n        /* \"contract/tokens.sol\":2952:2967  amount.add(fee) */\n      swap2\n      swap1\n      0xffffffff\n      and\n      jump\t// in\n    tag_185:\n        /* \"contract/tokens.sol\":2930:2967  uint256 totalAmount = amount.add(fee) */\n      swap1\n      pop\n        /* \"contract/tokens.sol\":3015:3026  totalAmount */\n      dup1\n        /* \"contract/tokens.sol\":2988:3011  balanceOf(_msgSender()) */\n      tag_186\n        /* \"contract/tokens.sol\":2998:3010  _msgSender() */\n      tag_187\n        /* \"contract/tokens.sol\":2998:3008  _msgSender */\n      tag_111\n        /* \"contract/tokens.sol\":2998:3010  _msgSender() */\n      jump\t// in\n    tag_187:\n        /* \"contract/tokens.sol\":2988:2997  balanceOf */\n      tag_74\n        /* \"contract/tokens.sol\":2988:3011  balanceOf(_msgSender()) */\n      jump\t// in\n    tag_186:\n        /* \"contract/tokens.sol\":2988:3026  balanceOf(_msgSender()) >= totalAmount */\n      lt\n      iszero\n        /* \"contract/tokens.sol\":2980:3076  require(balanceOf(_msgSender()) >= totalAmount, \"VRC25: not enough tokens for transfer and fee\") */\n      tag_188\n      jumpi\n      mload(0x40)\n      0x08c379a000000000000000000000000000000000000000000000000000000000\n      dup2\n      mstore\n      0x04\n      add\n      tag_189\n      swap1\n      tag_141\n      jump\t// in\n    tag_189:\n      mload(0x40)\n      dup1\n      swap2\n      sub\n      swap1\n      revert\n    tag_188:\n        /* \"contract/tokens.sol\":3089:3122  _chargeFeeFrom(_msgSender(), fee) */\n      tag_190\n        /* \"contract/tokens.sol\":3104:3116  _msgSender() */\n      tag_191\n        /* \"contract/tokens.sol\":3104:3114  _msgSender */\n      tag_111\n        /* \"contract/tokens.sol\":3104:3116  _msgSender() */\n      jump\t// in\n    tag_191:\n        /* \"contract/tokens.sol\":3118:3121  fee */\n      dup4\n        /* \"contract/tokens.sol\":3089:3103  _chargeFeeFrom */\n      tag_117\n        /* \"contract/tokens.sol\":3089:3122  _chargeFeeFrom(_msgSender(), fee) */\n      jump\t// in\n    tag_190:\n        /* \"contract/tokens.sol\":3133:3181  super._transfer(_msgSender(), recipient, amount) */\n      tag_192\n        /* \"contract/tokens.sol\":3149:3161  _msgSender() */\n      tag_193\n        /* \"contract/tokens.sol\":3149:3159  _msgSender */\n      tag_111\n        /* \"contract/tokens.sol\":3149:3161  _msgSender() */\n      jump\t// in\n    tag_193:\n        /* \"contract/tokens.sol\":3163:3172  recipient */\n      dup7\n        /* \"contract/tokens.sol\":3174:3180  amount */\n      dup7\n        /* \"contract/tokens.sol\":3133:3148  super._transfer */\n      tag_144\n        /* \"contract/tokens.sol\":3133:3181  super._transfer(_msgSender(), recipient, amount) */\n      jump\t// in\n    tag_192:\n        /* \"contract/tokens.sol\":3199:3203  true */\n      0x01\n        /* \"contract/tokens.sol\":3192:3203  return true */\n      swap3\n      pop\n      pop\n      pop\n        /* \"contract/tokens.sol\":2783:3211  function transfer(address recipient, uint256 amount) public virtual override returns (bool) {... */\n      swap3\n      swap2\n      pop\n      pop\n      jump\t// out\n        /* \"https://github.com/OpenZeppelin/openzeppelin-contracts/blob/v4.8.3/contracts/token/ERC20/ERC20.sol\":3974:4123  function allowance(address owner, address spender) public view virtual override returns (uint256) {... */\n    tag_95:\n        /* \"https://github.com/OpenZeppelin/openzeppelin-contracts/blob/v4.8.3/contracts/token/ERC20/ERC20.sol\":4063:4070  uint256 */\n      0x00\n        /* \"https://github.com/OpenZeppelin/openzeppelin-contracts/blob/v4.8.3/contracts/token/ERC20/ERC20.sol\":4089:4100  _allowances */\n      0x01\n        /* \"https://github.com/OpenZeppelin/openzeppelin-contracts/blob/v4.8.3/contracts/token/ERC20/ERC20.sol\":4089:4107  _allowances[owner] */\n      0x00\n        /* \"https://github.com/OpenZeppelin/openzeppelin-contracts/blob/v4.8.3/contracts/token/ERC20/ERC20.sol\":4101:4106  owner */\n      dup5\n        /* \"https://github.com/OpenZeppelin/openzeppelin-contracts/blob/v4.8.3/contracts/token/ERC20/ERC20.sol\":4089:4107  _allowances[owner] */\n      0xffffffffffffffffffffffffffffffffffffffff\n      and\n      0xffffffffffffffffffffffffffffffffffffffff\n      and\n      dup2\n      mstore\n      0x20\n      add\n      swap1\n      dup2\n      mstore\n      0x20\n      add\n      0x00\n      keccak256\n        /* \"https://github.com/OpenZeppelin/openzeppelin-contracts/blob/v4.8.3/contracts/token/ERC20/ERC20.sol\":4089:4116  _allowances[owner][spender] */\n      0x00\n        /* \"https://github.com/OpenZeppelin/openzeppelin-contracts/blob/v4.8.3/contracts/token/ERC20/ERC20.sol\":4108:4115  spender */\n      dup4\n        /* \"https://github.com/OpenZeppelin/openzeppelin-contracts/blob/v4.8.3/contracts/token/ERC20/ERC20.sol\":4089:4116  _allowances[owner][spender] */\n      0xffffffffffffffffffffffffffffffffffffffff\n      and\n      0xffffffffffffffffffffffffffffffffffffffff\n      and\n      dup2\n      mstore\n      0x20\n      add\n      swap1\n      dup2\n      mstore\n      0x20\n      add\n      0x00\n      keccak256\n      sload\n        /* \"https://github.com/OpenZeppelin/openzeppelin-contracts/blob/v4.8.3/contracts/token/ERC20/ERC20.sol\":4082:4116  return _allowances[owner][spender] */\n      swap1\n      pop\n        /* \"https://github.com/OpenZeppelin/openzeppelin-contracts/blob/v4.8.3/contracts/token/ERC20/ERC20.sol\":3974:4123  function allowance(address owner, address spender) public view virtual override returns (uint256) {... */\n      swap3\n      swap2\n      pop\n      pop\n      jump\t// out\n        /* \"https://github.com/OpenZeppelin/openzeppelin-contracts/blob/v4.8.3/contracts/access/Ownable.sol\":2081:2279  function transferOwnership(address newOwner) public virtual onlyOwner {... */\n    tag_99:\n        /* \"https://github.com/OpenZeppelin/openzeppelin-contracts/blob/v4.8.3/contracts/access/Ownable.sol\":1094:1107  _checkOwner() */\n      tag_196\n        /* \"https://github.com/OpenZeppelin/openzeppelin-contracts/blob/v4.8.3/contracts/access/Ownable.sol\":1094:1105  _checkOwner */\n      tag_155\n        /* \"https://github.com/OpenZeppelin/openzeppelin-contracts/blob/v4.8.3/contracts/access/Ownable.sol\":1094:1107  _checkOwner() */\n      jump\t// in\n    tag_196:\n        /* \"https://github.com/OpenZeppelin/openzeppelin-contracts/blob/v4.8.3/contracts/access/Ownable.sol\":2189:2190  0 */\n      0x00\n        /* \"https://github.com/OpenZeppelin/openzeppelin-contracts/blob/v4.8.3/contracts/access/Ownable.sol\":2169:2191  newOwner != address(0) */\n      0xffffffffffffffffffffffffffffffffffffffff\n      and\n        /* \"https://github.com/OpenZeppelin/openzeppelin-contracts/blob/v4.8.3/contracts/access/Ownable.sol\":2169:2177  newOwner */\n      dup2\n        /* \"https://github.com/OpenZeppelin/openzeppelin-contracts/blob/v4.8.3/contracts/access/Ownable.sol\":2169:2191  newOwner != address(0) */\n      0xffffffffffffffffffffffffffffffffffffffff\n      and\n      sub\n        /* \"https://github.com/OpenZeppelin/openzeppelin-contracts/blob/v4.8.3/contracts/access/Ownable.sol\":2161:2234  require(newOwner != address(0), \"Ownable: new owner is the zero address\") */\n      tag_198\n      jumpi\n      mload(0x40)\n      0x08c379a000000000000000000000000000000000000000000000000000000000\n      dup2\n      mstore\n      0x04\n      add\n      tag_199\n      swap1\n      tag_200\n      jump\t// in\n    tag_199:\n      mload(0x40)\n      dup1\n      swap2\n      sub\n      swap1\n      revert\n    tag_198:\n        /* \"https://github.com/OpenZeppelin/openzeppelin-contracts/blob/v4.8.3/contracts/access/Ownable.sol\":2244:2272  _transferOwnership(newOwner) */\n      tag_201\n        /* \"https://github.com/OpenZeppelin/openzeppelin-contracts/blob/v4.8.3/contracts/access/Ownable.sol\":2263:2271  newOwner */\n      dup2\n        /* \"https://github.com/OpenZeppelin/openzeppelin-contracts/blob/v4.8.3/contracts/access/Ownable.sol\":2244:2262  _transferOwnership */\n      tag_168\n        /* \"https://github.com/OpenZeppelin/openzeppelin-contracts/blob/v4.8.3/contracts/access/Ownable.sol\":2244:2272  _transferOwnership(newOwner) */\n      jump\t// in\n    tag_201:\n        /* \"https://github.com/OpenZeppelin/openzeppelin-contracts/blob/v4.8.3/contracts/access/Ownable.sol\":2081:2279  function transferOwnership(address newOwner) public virtual onlyOwner {... */\n      pop\n      jump\t// out\n        /* \"https://github.com/OpenZeppelin/openzeppelin-contracts/blob/v4.8.3/contracts/utils/Context.sol\":640:736  function _msgSender() internal view virtual returns (address) {... */\n    tag_111:\n        /* \"https://github.com/OpenZeppelin/openzeppelin-contracts/blob/v4.8.3/contracts/utils/Context.sol\":693:700  address */\n      0x00\n        /* \"https://github.com/OpenZeppelin/openzeppelin-contracts/blob/v4.8.3/contracts/utils/Context.sol\":719:729  msg.sender */\n      caller\n        /* \"https://github.com/OpenZeppelin/openzeppelin-contracts/blob/v4.8.3/contracts/utils/Context.sol\":712:729  return msg.sender */\n      swap1\n      pop\n        /* \"https://github.com/OpenZeppelin/openzeppelin-contracts/blob/v4.8.3/contracts/utils/Context.sol\":640:736  function _msgSender() internal view virtual returns (address) {... */\n      swap1\n      jump\t// out\n        /* \"contract/tokens.sol\":2508:2775  function _chargeFeeFrom(address sender, uint256 amount) internal {... */\n    tag_117:\n        /* \"contract/tokens.sol\":2588:2606  isContract(sender) */\n      tag_204\n        /* \"contract/tokens.sol\":2599:2605  sender */\n      dup3\n        /* \"contract/tokens.sol\":2588:2598  isContract */\n      tag_44\n        /* \"contract/tokens.sol\":2588:2606  isContract(sender) */\n      jump\t// in\n    tag_204:\n        /* \"contract/tokens.sol\":2608:2615  return; */\n      tag_203\n        /* \"contract/tokens.sol\":2584:2615  if (isContract(sender)) return; */\n      jumpi\n        /* \"contract/tokens.sol\":2638:2639  0 */\n      0x00\n        /* \"contract/tokens.sol\":2629:2635  amount */\n      dup2\n        /* \"contract/tokens.sol\":2629:2639  amount > 0 */\n      gt\n        /* \"contract/tokens.sol\":2625:2768  if (amount > 0) {... */\n      iszero\n      tag_206\n      jumpi\n        /* \"contract/tokens.sol\":2656:2696  super._transfer(sender, owner(), amount) */\n      tag_207\n        /* \"contract/tokens.sol\":2672:2678  sender */\n      dup3\n        /* \"contract/tokens.sol\":2680:2687  owner() */\n      tag_208\n        /* \"contract/tokens.sol\":2680:2685  owner */\n      tag_79\n        /* \"contract/tokens.sol\":2680:2687  owner() */\n      jump\t// in\n    tag_208:\n        /* \"contract/tokens.sol\":2689:2695  amount */\n      dup4\n        /* \"contract/tokens.sol\":2656:2671  super._transfer */\n      tag_144\n        /* \"contract/tokens.sol\":2656:2696  super._transfer(sender, owner(), amount) */\n      jump\t// in\n    tag_207:\n        /* \"contract/tokens.sol\":2740:2747  owner() */\n      tag_209\n        /* \"contract/tokens.sol\":2740:2745  owner */\n      tag_79\n        /* \"contract/tokens.sol\":2740:2747  owner() */\n      jump\t// in\n    tag_209:\n        /* \"contract/tokens.sol\":2716:2756  Fee(sender, address(0), owner(), amount) */\n      0xffffffffffffffffffffffffffffffffffffffff\n      and\n        /* \"contract/tokens.sol\":2736:2737  0 */\n      0x00\n        /* \"contract/tokens.sol\":2716:2756  Fee(sender, address(0), owner(), amount) */\n      0xffffffffffffffffffffffffffffffffffffffff\n      and\n        /* \"contract/tokens.sol\":2720:2726  sender */\n      dup4\n        /* \"contract/tokens.sol\":2716:2756  Fee(sender, address(0), owner(), amount) */\n      0xffffffffffffffffffffffffffffffffffffffff\n      and\n      0xfcf5b3276434181e3c48bd3fe569b8939808f11e845d4b963693b9d7dbd6dd99\n        /* \"contract/tokens.sol\":2749:2755  amount */\n      dup5\n        /* \"contract/tokens.sol\":2716:2756  Fee(sender, address(0), owner(), amount) */\n      mload(0x40)\n      tag_210\n      swap2\n      swap1\n      tag_40\n      jump\t// in\n    tag_210:\n      mload(0x40)\n      dup1\n      swap2\n      sub\n      swap1\n      log4\n        /* \"contract/tokens.sol\":2625:2768  if (amount > 0) {... */\n    tag_206:\n        /* \"contract/tokens.sol\":2508:2775  function _chargeFeeFrom(address sender, uint256 amount) internal {... */\n    tag_203:\n      pop\n      pop\n      jump\t// out\n        /* \"https://github.com/OpenZeppelin/openzeppelin-contracts/blob/v4.8.3/contracts/token/ERC20/ERC20.sol\":10504:10874  function _approve(... */\n    tag_120:\n        /* \"https://github.com/OpenZeppelin/openzeppelin-contracts/blob/v4.8.3/contracts/token/ERC20/ERC20.sol\":10652:10653  0 */\n      0x00\n        /* \"https://github.com/OpenZeppelin/openzeppelin-contracts/blob/v4.8.3/contracts/token/ERC20/ERC20.sol\":10635:10654  owner != address(0) */\n      0xffffffffffffffffffffffffffffffffffffffff\n      and\n        /* \"https://github.com/OpenZeppelin/openzeppelin-contracts/blob/v4.8.3/contracts/token/ERC20/ERC20.sol\":10635:10640  owner */\n      dup4\n        /* \"https://github.com/OpenZeppelin/openzeppelin-contracts/blob/v4.8.3/contracts/token/ERC20/ERC20.sol\":10635:10654  owner != address(0) */\n      0xffffffffffffffffffffffffffffffffffffffff\n      and\n      sub\n        /* \"https://github.com/OpenZeppelin/openzeppelin-contracts/blob/v4.8.3/contracts/token/ERC20/ERC20.sol\":10627:10695  require(owner != address(0), \"ERC20: approve from the zero address\") */\n      tag_212\n      jumpi\n      mload(0x40)\n      0x08c379a000000000000000000000000000000000000000000000000000000000\n      dup2\n      mstore\n      0x04\n      add\n      tag_213\n      swap1\n      tag_214\n      jump\t// in\n    tag_213:\n      mload(0x40)\n      dup1\n      swap2\n      sub\n      swap1\n      revert\n    tag_212:\n        /* \"https://github.com/OpenZeppelin/openzeppelin-contracts/blob/v4.8.3/contracts/token/ERC20/ERC20.sol\":10732:10733  0 */\n      0x00\n        /* \"https://github.com/OpenZeppelin/openzeppelin-contracts/blob/v4.8.3/contracts/token/ERC20/ERC20.sol\":10713:10734  spender != address(0) */\n      0xffffffffffffffffffffffffffffffffffffffff\n      and\n        /* \"https://github.com/OpenZeppelin/openzeppelin-contracts/blob/v4.8.3/contracts/token/ERC20/ERC20.sol\":10713:10720  spender */\n      dup3\n        /* \"https://github.com/OpenZeppelin/openzeppelin-contracts/blob/v4.8.3/contracts/token/ERC20/ERC20.sol\":10713:10734  spender != address(0) */\n      0xffffffffffffffffffffffffffffffffffffffff\n      and\n      sub\n        /* \"https://github.com/OpenZeppelin/openzeppelin-contracts/blob/v4.8.3/contracts/token/ERC20/ERC20.sol\":10705:10773  require(spender != address(0), \"ERC20: approve to the zero address\") */\n      tag_215\n      jumpi\n      mload(0x40)\n      0x08c379a000000000000000000000000000000000000000000000000000000000\n      dup2\n      mstore\n      0x04\n      add\n      tag_216\n      swap1\n      tag_217\n      jump\t// in\n    tag_216:\n      mload(0x40)\n      dup1\n      swap2\n      sub\n      swap1\n      revert\n    tag_215:\n        /* \"https://github.com/OpenZeppelin/openzeppelin-contracts/blob/v4.8.3/contracts/token/ERC20/ERC20.sol\":10814:10820  amount */\n      dup1\n        /* \"https://github.com/OpenZeppelin/openzeppelin-contracts/blob/v4.8.3/contracts/token/ERC20/ERC20.sol\":10784:10795  _allowances */\n      0x01\n        /* \"https://github.com/OpenZeppelin/openzeppelin-contracts/blob/v4.8.3/contracts/token/ERC20/ERC20.sol\":10784:10802  _allowances[owner] */\n      0x00\n        /* \"https://github.com/OpenZeppelin/openzeppelin-contracts/blob/v4.8.3/contracts/token/ERC20/ERC20.sol\":10796:10801  owner */\n      dup6\n        /* \"https://github.com/OpenZeppelin/openzeppelin-contracts/blob/v4.8.3/contracts/token/ERC20/ERC20.sol\":10784:10802  _allowances[owner] */\n      0xffffffffffffffffffffffffffffffffffffffff\n      and\n      0xffffffffffffffffffffffffffffffffffffffff\n      and\n      dup2\n      mstore\n      0x20\n      add\n      swap1\n      dup2\n      mstore\n      0x20\n      add\n      0x00\n      keccak256\n        /* \"https://github.com/OpenZeppelin/openzeppelin-contracts/blob/v4.8.3/contracts/token/ERC20/ERC20.sol\":10784:10811  _allowances[owner][spender] */\n      0x00\n        /* \"https://github.com/OpenZeppelin/openzeppelin-contracts/blob/v4.8.3/contracts/token/ERC20/ERC20.sol\":10803:10810  spender */\n      dup5\n        /* \"https://github.com/OpenZeppelin/openzeppelin-contracts/blob/v4.8.3/contracts/token/ERC20/ERC20.sol\":10784:10811  _allowances[owner][spender] */\n      0xffffffffffffffffffffffffffffffffffffffff\n      and\n      0xffffffffffffffffffffffffffffffffffffffff\n      and\n      dup2\n      mstore\n      0x20\n      add\n      swap1\n      dup2\n      mstore\n      0x20\n      add\n      0x00\n      keccak256\n        /* \"https://github.com/OpenZeppelin/openzeppelin-contracts/blob/v4.8.3/contracts/token/ERC20/ERC20.sol\":10784:10820  _allowances[owner][spender] = amount */\n      dup2\n      swap1\n      sstore\n      pop\n        /* \"https://github.com/OpenZeppelin/openzeppelin-contracts/blob/v4.8.3/contracts/token/ERC20/ERC20.sol\":10851:10858  spender */\n      dup2\n        /* \"https://github.com/OpenZeppelin/openzeppelin-contracts/blob/v4.8.3/contracts/token/ERC20/ERC20.sol\":10835:10867  Approval(owner, spender, amount) */\n      0xffffffffffffffffffffffffffffffffffffffff\n      and\n        /* \"https://github.com/OpenZeppelin/openzeppelin-contracts/blob/v4.8.3/contracts/token/ERC20/ERC20.sol\":10844:10849  owner */\n      dup4\n        /* \"https://github.com/OpenZeppelin/openzeppelin-contracts/blob/v4.8.3/contracts/token/ERC20/ERC20.sol\":10835:10867  Approval(owner, spender, amount) */\n      0xffffffffffffffffffffffffffffffffffffffff\n      and\n      0x8c5be1e5ebec7d5bd14f71427d1e84f3dd0314c0f7b2291e5b200ac8c7c3b925\n        /* \"https://github.com/OpenZeppelin/openzeppelin-contracts/blob/v4.8.3/contracts/token/ERC20/ERC20.sol\":10860:10866  amount */\n      dup4\n        /* \"https://github.com/OpenZeppelin/openzeppelin-contracts/blob/v4.8.3/contracts/token/ERC20/ERC20.sol\":10835:10867  Approval(owner, spender, amount) */\n      mload(0x40)\n      tag_218\n      swap2\n      swap1\n      tag_40\n      jump\t// in\n    tag_218:\n      mload(0x40)\n      dup1\n      swap2\n      sub\n      swap1\n      log3\n        /* \"https://github.com/OpenZeppelin/openzeppelin-contracts/blob/v4.8.3/contracts/token/ERC20/ERC20.sol\":10504:10874  function _approve(... */\n      pop\n      pop\n      pop\n      jump\t// out\n        /* \"https://github.com/OpenZeppelin/openzeppelin-contracts/blob/v4.8.3/contracts/utils/math/SafeMath.sol\":3850:3946  function div(uint256 a, uint256 b) internal pure returns (uint256) {... */\n    tag_124:\n        /* \"https://github.com/OpenZeppelin/openzeppelin-contracts/blob/v4.8.3/contracts/utils/math/SafeMath.sol\":3908:3915  uint256 */\n      0x00\n        /* \"https://github.com/OpenZeppelin/openzeppelin-contracts/blob/v4.8.3/contracts/utils/math/SafeMath.sol\":3938:3939  b */\n      dup2\n        /* \"https://github.com/OpenZeppelin/openzeppelin-contracts/blob/v4.8.3/contracts/utils/math/SafeMath.sol\":3934:3935  a */\n      dup4\n        /* \"https://github.com/OpenZeppelin/openzeppelin-contracts/blob/v4.8.3/contracts/utils/math/SafeMath.sol\":3934:3939  a / b */\n      tag_220\n      swap2\n      swap1\n      tag_221\n      jump\t// in\n    tag_220:\n        /* \"https://github.com/OpenZeppelin/openzeppelin-contracts/blob/v4.8.3/contracts/utils/math/SafeMath.sol\":3927:3939  return a / b */\n      swap1\n      pop\n        /* \"https://github.com/OpenZeppelin/openzeppelin-contracts/blob/v4.8.3/contracts/utils/math/SafeMath.sol\":3850:3946  function div(uint256 a, uint256 b) internal pure returns (uint256) {... */\n      swap3\n      swap2\n      pop\n      pop\n      jump\t// out\n        /* \"https://github.com/OpenZeppelin/openzeppelin-contracts/blob/v4.8.3/contracts/utils/math/SafeMath.sol\":2755:2851  function add(uint256 a, uint256 b) internal pure returns (uint256) {... */\n    tag_125:\n        /* \"https://github.com/OpenZeppelin/openzeppelin-contracts/blob/v4.8.3/contracts/utils/math/SafeMath.sol\":2813:2820  uint256 */\n      0x00\n        /* \"https://github.com/OpenZeppelin/openzeppelin-contracts/blob/v4.8.3/contracts/utils/math/SafeMath.sol\":2843:2844  b */\n      dup2\n        /* \"https://github.com/OpenZeppelin/openzeppelin-contracts/blob/v4.8.3/contracts/utils/math/SafeMath.sol\":2839:2840  a */\n      dup4\n        /* \"https://github.com/OpenZeppelin/openzeppelin-contracts/blob/v4.8.3/contracts/utils/math/SafeMath.sol\":2839:2844  a + b */\n      tag_223\n      swap2\n      swap1\n      tag_162\n      jump\t// in\n    tag_223:\n        /* \"https://github.com/OpenZeppelin/openzeppelin-contracts/blob/v4.8.3/contracts/utils/math/SafeMath.sol\":2832:2844  return a + b */\n      swap1\n      pop\n        /* \"https://github.com/OpenZeppelin/openzeppelin-contracts/blob/v4.8.3/contracts/utils/math/SafeMath.sol\":2755:2851  function add(uint256 a, uint256 b) internal pure returns (uint256) {... */\n      swap3\n      swap2\n      pop\n      pop\n      jump\t// out\n        /* \"https://github.com/OpenZeppelin/openzeppelin-contracts/blob/v4.8.3/contracts/token/ERC20/ERC20.sol\":7473:8291  function _transfer(... */\n    tag_144:\n        /* \"https://github.com/OpenZeppelin/openzeppelin-contracts/blob/v4.8.3/contracts/token/ERC20/ERC20.sol\":7615:7616  0 */\n      0x00\n        /* \"https://github.com/OpenZeppelin/openzeppelin-contracts/blob/v4.8.3/contracts/token/ERC20/ERC20.sol\":7599:7617  from != address(0) */\n      0xffffffffffffffffffffffffffffffffffffffff\n      and\n        /* \"https://github.com/OpenZeppelin/openzeppelin-contracts/blob/v4.8.3/contracts/token/ERC20/ERC20.sol\":7599:7603  from */\n      dup4\n        /* \"https://github.com/OpenZeppelin/openzeppelin-contracts/blob/v4.8.3/contracts/token/ERC20/ERC20.sol\":7599:7617  from != address(0) */\n      0xffffffffffffffffffffffffffffffffffffffff\n      and\n      sub\n        /* \"https://github.com/OpenZeppelin/openzeppelin-contracts/blob/v4.8.3/contracts/token/ERC20/ERC20.sol\":7591:7659  require(from != address(0), \"ERC20: transfer from the zero address\") */\n      tag_225\n      jumpi\n      mload(0x40)\n      0x08c379a000000000000000000000000000000000000000000000000000000000\n      dup2\n      mstore\n      0x04\n      add\n      tag_226\n      swap1\n      tag_227\n      jump\t// in\n    tag_226:\n      mload(0x40)\n      dup1\n      swap2\n      sub\n      swap1\n      revert\n    tag_225:\n        /* \"https://github.com/OpenZeppelin/openzeppelin-contracts/blob/v4.8.3/contracts/token/ERC20/ERC20.sol\":7691:7692  0 */\n      0x00\n        /* \"https://github.com/OpenZeppelin/openzeppelin-contracts/blob/v4.8.3/contracts/token/ERC20/ERC20.sol\":7677:7693  to != address(0) */\n      0xffffffffffffffffffffffffffffffffffffffff\n      and\n        /* \"https://github.com/OpenZeppelin/openzeppelin-contracts/blob/v4.8.3/contracts/token/ERC20/ERC20.sol\":7677:7679  to */\n      dup3\n        /* \"https://github.com/OpenZeppelin/openzeppelin-contracts/blob/v4.8.3/contracts/token/ERC20/ERC20.sol\":7677:7693  to != address(0) */\n      0xffffffffffffffffffffffffffffffffffffffff\n      and\n      sub\n        /* \"https://github.com/OpenZeppelin/openzeppelin-contracts/blob/v4.8.3/contracts/token/ERC20/ERC20.sol\":7669:7733  require(to != address(0), \"ERC20: transfer to the zero address\") */\n      tag_228\n      jumpi\n      mload(0x40)\n      0x08c379a000000000000000000000000000000000000000000000000000000000\n      dup2\n      mstore\n      0x04\n      add\n      tag_229\n      swap1\n      tag_230\n      jump\t// in\n    tag_229:\n      mload(0x40)\n      dup1\n      swap2\n      sub\n      swap1\n      revert\n    tag_228:\n        /* \"https://github.com/OpenZeppelin/openzeppelin-contracts/blob/v4.8.3/contracts/token/ERC20/ERC20.sol\":7744:7782  _beforeTokenTransfer(from, to, amount) */\n      tag_231\n        /* \"https://github.com/OpenZeppelin/openzeppelin-contracts/blob/v4.8.3/contracts/token/ERC20/ERC20.sol\":7765:7769  from */\n      dup4\n        /* \"https://github.com/OpenZeppelin/openzeppelin-contracts/blob/v4.8.3/contracts/token/ERC20/ERC20.sol\":7771:7773  to */\n      dup4\n        /* \"https://github.com/OpenZeppelin/openzeppelin-contracts/blob/v4.8.3/contracts/token/ERC20/ERC20.sol\":7775:7781  amount */\n      dup4\n        /* \"https://github.com/OpenZeppelin/openzeppelin-contracts/blob/v4.8.3/contracts/token/ERC20/ERC20.sol\":7744:7764  _beforeTokenTransfer */\n      tag_232\n        /* \"https://github.com/OpenZeppelin/openzeppelin-contracts/blob/v4.8.3/contracts/token/ERC20/ERC20.sol\":7744:7782  _beforeTokenTransfer(from, to, amount) */\n      jump\t// in\n    tag_231:\n        /* \"https://github.com/OpenZeppelin/openzeppelin-contracts/blob/v4.8.3/contracts/token/ERC20/ERC20.sol\":7793:7812  uint256 fromBalance */\n      0x00\n        /* \"https://github.com/OpenZeppelin/openzeppelin-contracts/blob/v4.8.3/contracts/token/ERC20/ERC20.sol\":7815:7824  _balances */\n      dup1\n        /* \"https://github.com/OpenZeppelin/openzeppelin-contracts/blob/v4.8.3/contracts/token/ERC20/ERC20.sol\":7815:7830  _balances[from] */\n      0x00\n        /* \"https://github.com/OpenZeppelin/openzeppelin-contracts/blob/v4.8.3/contracts/token/ERC20/ERC20.sol\":7825:7829  from */\n      dup6\n        /* \"https://github.com/OpenZeppelin/openzeppelin-contracts/blob/v4.8.3/contracts/token/ERC20/ERC20.sol\":7815:7830  _balances[from] */\n      0xffffffffffffffffffffffffffffffffffffffff\n      and\n      0xffffffffffffffffffffffffffffffffffffffff\n      and\n      dup2\n      mstore\n      0x20\n      add\n      swap1\n      dup2\n      mstore\n      0x20\n      add\n      0x00\n      keccak256\n      sload\n        /* \"https://github.com/OpenZeppelin/openzeppelin-contracts/blob/v4.8.3/contracts/token/ERC20/ERC20.sol\":7793:7830  uint256 fromBalance = _balances[from] */\n      swap1\n      pop\n        /* \"https://github.com/OpenZeppelin/openzeppelin-contracts/blob/v4.8.3/contracts/token/ERC20/ERC20.sol\":7863:7869  amount */\n      dup2\n        /* \"https://github.com/OpenZeppelin/openzeppelin-contracts/blob/v4.8.3/contracts/token/ERC20/ERC20.sol\":7848:7859  fromBalance */\n      dup2\n        /* \"https://github.com/OpenZeppelin/openzeppelin-contracts/blob/v4.8.3/contracts/token/ERC20/ERC20.sol\":7848:7869  fromBalance >= amount */\n      lt\n      iszero\n        /* \"https://github.com/OpenZeppelin/openzeppelin-contracts/blob/v4.8.3/contracts/token/ERC20/ERC20.sol\":7840:7912  require(fromBalance >= amount, \"ERC20: transfer amount exceeds balance\") */\n      tag_233\n      jumpi\n      mload(0x40)\n      0x08c379a000000000000000000000000000000000000000000000000000000000\n      dup2\n      mstore\n      0x04\n      add\n      tag_234\n      swap1\n      tag_235\n      jump\t// in\n    tag_234:\n      mload(0x40)\n      dup1\n      swap2\n      sub\n      swap1\n      revert\n    tag_233:\n        /* \"https://github.com/OpenZeppelin/openzeppelin-contracts/blob/v4.8.3/contracts/token/ERC20/ERC20.sol\":7978:7984  amount */\n      dup2\n        /* \"https://github.com/OpenZeppelin/openzeppelin-contracts/blob/v4.8.3/contracts/token/ERC20/ERC20.sol\":7964:7975  fromBalance */\n      dup2\n        /* \"https://github.com/OpenZeppelin/openzeppelin-contracts/blob/v4.8.3/contracts/token/ERC20/ERC20.sol\":7964:7984  fromBalance - amount */\n      sub\n        /* \"https://github.com/OpenZeppelin/openzeppelin-contracts/blob/v4.8.3/contracts/token/ERC20/ERC20.sol\":7946:7955  _balances */\n      0x00\n        /* \"https://github.com/OpenZeppelin/openzeppelin-contracts/blob/v4.8.3/contracts/token/ERC20/ERC20.sol\":7946:7961  _balances[from] */\n      dup1\n        /* \"https://github.com/OpenZeppelin/openzeppelin-contracts/blob/v4.8.3/contracts/token/ERC20/ERC20.sol\":7956:7960  from */\n      dup7\n        /* \"https://github.com/OpenZeppelin/openzeppelin-contracts/blob/v4.8.3/contracts/token/ERC20/ERC20.sol\":7946:7961  _balances[from] */\n      0xffffffffffffffffffffffffffffffffffffffff\n      and\n      0xffffffffffffffffffffffffffffffffffffffff\n      and\n      dup2\n      mstore\n      0x20\n      add\n      swap1\n      dup2\n      mstore\n      0x20\n      add\n      0x00\n      keccak256\n        /* \"https://github.com/OpenZeppelin/openzeppelin-contracts/blob/v4.8.3/contracts/token/ERC20/ERC20.sol\":7946:7984  _balances[from] = fromBalance - amount */\n      dup2\n      swap1\n      sstore\n      pop\n        /* \"https://github.com/OpenZeppelin/openzeppelin-contracts/blob/v4.8.3/contracts/token/ERC20/ERC20.sol\":8178:8184  amount */\n      dup2\n        /* \"https://github.com/OpenZeppelin/openzeppelin-contracts/blob/v4.8.3/contracts/token/ERC20/ERC20.sol\":8161:8170  _balances */\n      0x00\n        /* \"https://github.com/OpenZeppelin/openzeppelin-contracts/blob/v4.8.3/contracts/token/ERC20/ERC20.sol\":8161:8174  _balances[to] */\n      dup1\n        /* \"https://github.com/OpenZeppelin/openzeppelin-contracts/blob/v4.8.3/contracts/token/ERC20/ERC20.sol\":8171:8173  to */\n      dup6\n        /* \"https://github.com/OpenZeppelin/openzeppelin-contracts/blob/v4.8.3/contracts/token/ERC20/ERC20.sol\":8161:8174  _balances[to] */\n      0xffffffffffffffffffffffffffffffffffffffff\n      and\n      0xffffffffffffffffffffffffffffffffffffffff\n      and\n      dup2\n      mstore\n      0x20\n      add\n      swap1\n      dup2\n      mstore\n      0x20\n      add\n      0x00\n      keccak256\n      0x00\n        /* \"https://github.com/OpenZeppelin/openzeppelin-contracts/blob/v4.8.3/contracts/token/ERC20/ERC20.sol\":8161:8184  _balances[to] += amount */\n      dup3\n      dup3\n      sload\n      add\n      swap3\n      pop\n      pop\n      dup2\n      swap1\n      sstore\n      pop\n        /* \"https://github.com/OpenZeppelin/openzeppelin-contracts/blob/v4.8.3/contracts/token/ERC20/ERC20.sol\":8225:8227  to */\n      dup3\n        /* \"https://github.com/OpenZeppelin/openzeppelin-contracts/blob/v4.8.3/contracts/token/ERC20/ERC20.sol\":8210:8236  Transfer(from, to, amount) */\n      0xffffffffffffffffffffffffffffffffffffffff\n      and\n        /* \"https://github.com/OpenZeppelin/openzeppelin-contracts/blob/v4.8.3/contracts/token/ERC20/ERC20.sol\":8219:8223  from */\n      dup5\n        /* \"https://github.com/OpenZeppelin/openzeppelin-contracts/blob/v4.8.3/contracts/token/ERC20/ERC20.sol\":8210:8236  Transfer(from, to, amount) */\n      0xffffffffffffffffffffffffffffffffffffffff\n      and\n      0xddf252ad1be2c89b69c2b068fc378daa952ba7f163c4a11628f55a4df523b3ef\n        /* \"https://github.com/OpenZeppelin/openzeppelin-contracts/blob/v4.8.3/contracts/token/ERC20/ERC20.sol\":8229:8235  amount */\n      dup5\n        /* \"https://github.com/OpenZeppelin/openzeppelin-contracts/blob/v4.8.3/contracts/token/ERC20/ERC20.sol\":8210:8236  Transfer(from, to, amount) */\n      mload(0x40)\n      tag_236\n      swap2\n      swap1\n      tag_40\n      jump\t// in\n    tag_236:\n      mload(0x40)\n      dup1\n      swap2\n      sub\n      swap1\n      log3\n        /* \"https://github.com/OpenZeppelin/openzeppelin-contracts/blob/v4.8.3/contracts/token/ERC20/ERC20.sol\":8247:8284  _afterTokenTransfer(from, to, amount) */\n      tag_237\n        /* \"https://github.com/OpenZeppelin/openzeppelin-contracts/blob/v4.8.3/contracts/token/ERC20/ERC20.sol\":8267:8271  from */\n      dup5\n        /* \"https://github.com/OpenZeppelin/openzeppelin-contracts/blob/v4.8.3/contracts/token/ERC20/ERC20.sol\":8273:8275  to */\n      dup5\n        /* \"https://github.com/OpenZeppelin/openzeppelin-contracts/blob/v4.8.3/contracts/token/ERC20/ERC20.sol\":8277:8283  amount */\n      dup5\n        /* \"https://github.com/OpenZeppelin/openzeppelin-contracts/blob/v4.8.3/contracts/token/ERC20/ERC20.sol\":8247:8266  _afterTokenTransfer */\n      tag_238\n        /* \"https://github.com/OpenZeppelin/openzeppelin-contracts/blob/v4.8.3/contracts/token/ERC20/ERC20.sol\":8247:8284  _afterTokenTransfer(from, to, amount) */\n      jump\t// in\n    tag_237:\n        /* \"https://github.com/OpenZeppelin/openzeppelin-contracts/blob/v4.8.3/contracts/token/ERC20/ERC20.sol\":7581:8291  {... */\n      pop\n        /* \"https://github.com/OpenZeppelin/openzeppelin-contracts/blob/v4.8.3/contracts/token/ERC20/ERC20.sol\":7473:8291  function _transfer(... */\n      pop\n      pop\n      pop\n      jump\t// out\n        /* \"https://github.com/OpenZeppelin/openzeppelin-contracts/blob/v4.8.3/contracts/utils/math/SafeMath.sol\":3122:3218  function sub(uint256 a, uint256 b) internal pure returns (uint256) {... */\n    tag_150:\n        /* \"https://github.com/OpenZeppelin/openzeppelin-contracts/blob/v4.8.3/contracts/utils/math/SafeMath.sol\":3180:3187  uint256 */\n      0x00\n        /* \"https://github.com/OpenZeppelin/openzeppelin-contracts/blob/v4.8.3/contracts/utils/math/SafeMath.sol\":3210:3211  b */\n      dup2\n        /* \"https://github.com/OpenZeppelin/openzeppelin-contracts/blob/v4.8.3/contracts/utils/math/SafeMath.sol\":3206:3207  a */\n      dup4\n        /* \"https://github.com/OpenZeppelin/openzeppelin-contracts/blob/v4.8.3/contracts/utils/math/SafeMath.sol\":3206:3211  a - b */\n      tag_240\n      swap2\n      swap1\n      tag_241\n      jump\t// in\n    tag_240:\n        /* \"https://github.com/OpenZeppelin/openzeppelin-contracts/blob/v4.8.3/contracts/utils/math/SafeMath.sol\":3199:3211  return a - b */\n      swap1\n      pop\n        /* \"https://github.com/OpenZeppelin/openzeppelin-contracts/blob/v4.8.3/contracts/utils/math/SafeMath.sol\":3122:3218  function sub(uint256 a, uint256 b) internal pure returns (uint256) {... */\n      swap3\n      swap2\n      pop\n      pop\n      jump\t// out\n        /* \"https://github.com/OpenZeppelin/openzeppelin-contracts/blob/v4.8.3/contracts/access/Ownable.sol\":1359:1489  function _checkOwner() internal view virtual {... */\n    tag_155:\n        /* \"https://github.com/OpenZeppelin/openzeppelin-contracts/blob/v4.8.3/contracts/access/Ownable.sol\":1433:1445  _msgSender() */\n      tag_243\n        /* \"https://github.com/OpenZeppelin/openzeppelin-contracts/blob/v4.8.3/contracts/access/Ownable.sol\":1433:1443  _msgSender */\n      tag_111\n        /* \"https://github.com/OpenZeppelin/openzeppelin-contracts/blob/v4.8.3/contracts/access/Ownable.sol\":1433:1445  _msgSender() */\n      jump\t// in\n    tag_243:\n        /* \"https://github.com/OpenZeppelin/openzeppelin-contracts/blob/v4.8.3/contracts/access/Ownable.sol\":1422:1445  owner() == _msgSender() */\n      0xffffffffffffffffffffffffffffffffffffffff\n      and\n        /* \"https://github.com/OpenZeppelin/openzeppelin-contracts/blob/v4.8.3/contracts/access/Ownable.sol\":1422:1429  owner() */\n      tag_244\n        /* \"https://github.com/OpenZeppelin/openzeppelin-contracts/blob/v4.8.3/contracts/access/Ownable.sol\":1422:1427  owner */\n      tag_79\n        /* \"https://github.com/OpenZeppelin/openzeppelin-contracts/blob/v4.8.3/contracts/access/Ownable.sol\":1422:1429  owner() */\n      jump\t// in\n    tag_244:\n        /* \"https://github.com/OpenZeppelin/openzeppelin-contracts/blob/v4.8.3/contracts/access/Ownable.sol\":1422:1445  owner() == _msgSender() */\n      0xffffffffffffffffffffffffffffffffffffffff\n      and\n      eq\n        /* \"https://github.com/OpenZeppelin/openzeppelin-contracts/blob/v4.8.3/contracts/access/Ownable.sol\":1414:1482  require(owner() == _msgSender(), \"Ownable: caller is not the owner\") */\n      tag_245\n      jumpi\n      mload(0x40)\n      0x08c379a000000000000000000000000000000000000000000000000000000000\n      dup2\n      mstore\n      0x04\n      add\n      tag_246\n      swap1\n      tag_247\n      jump\t// in\n    tag_246:\n      mload(0x40)\n      dup1\n      swap2\n      sub\n      swap1\n      revert\n    tag_245:\n        /* \"https://github.com/OpenZeppelin/openzeppelin-contracts/blob/v4.8.3/contracts/access/Ownable.sol\":1359:1489  function _checkOwner() internal view virtual {... */\n      jump\t// out\n        /* \"https://github.com/OpenZeppelin/openzeppelin-contracts/blob/v4.8.3/contracts/access/Ownable.sol\":2433:2620  function _transferOwnership(address newOwner) internal virtual {... */\n    tag_168:\n        /* \"https://github.com/OpenZeppelin/openzeppelin-contracts/blob/v4.8.3/contracts/access/Ownable.sol\":2506:2522  address oldOwner */\n      0x00\n        /* \"https://github.com/OpenZeppelin/openzeppelin-contracts/blob/v4.8.3/contracts/access/Ownable.sol\":2525:2531  _owner */\n      0x05\n      0x00\n      swap1\n      sload\n      swap1\n      0x0100\n      exp\n      swap1\n      div\n      0xffffffffffffffffffffffffffffffffffffffff\n      and\n        /* \"https://github.com/OpenZeppelin/openzeppelin-contracts/blob/v4.8.3/contracts/access/Ownable.sol\":2506:2531  address oldOwner = _owner */\n      swap1\n      pop\n        /* \"https://github.com/OpenZeppelin/openzeppelin-contracts/blob/v4.8.3/contracts/access/Ownable.sol\":2550:2558  newOwner */\n      dup2\n        /* \"https://github.com/OpenZeppelin/openzeppelin-contracts/blob/v4.8.3/contracts/access/Ownable.sol\":2541:2547  _owner */\n      0x05\n      0x00\n        /* \"https://github.com/OpenZeppelin/openzeppelin-contracts/blob/v4.8.3/contracts/access/Ownable.sol\":2541:2558  _owner = newOwner */\n      0x0100\n      exp\n      dup2\n      sload\n      dup2\n      0xffffffffffffffffffffffffffffffffffffffff\n      mul\n      not\n      and\n      swap1\n      dup4\n      0xffffffffffffffffffffffffffffffffffffffff\n      and\n      mul\n      or\n      swap1\n      sstore\n      pop\n        /* \"https://github.com/OpenZeppelin/openzeppelin-contracts/blob/v4.8.3/contracts/access/Ownable.sol\":2604:2612  newOwner */\n      dup2\n        /* \"https://github.com/OpenZeppelin/openzeppelin-contracts/blob/v4.8.3/contracts/access/Ownable.sol\":2573:2613  OwnershipTransferred(oldOwner, newOwner) */\n      0xffffffffffffffffffffffffffffffffffffffff\n      and\n        /* \"https://github.com/OpenZeppelin/openzeppelin-contracts/blob/v4.8.3/contracts/access/Ownable.sol\":2594:2602  oldOwner */\n      dup2\n        /* \"https://github.com/OpenZeppelin/openzeppelin-contracts/blob/v4.8.3/contracts/access/Ownable.sol\":2573:2613  OwnershipTransferred(oldOwner, newOwner) */\n      0xffffffffffffffffffffffffffffffffffffffff\n      and\n      0x8be0079c531659141344cd1fd0a4f28419497f9722a3daafe3b4186f6b6457e0\n      mload(0x40)\n      mload(0x40)\n      dup1\n      swap2\n      sub\n      swap1\n      log3\n        /* \"https://github.com/OpenZeppelin/openzeppelin-contracts/blob/v4.8.3/contracts/access/Ownable.sol\":2496:2620  {... */\n      pop\n        /* \"https://github.com/OpenZeppelin/openzeppelin-contracts/blob/v4.8.3/contracts/access/Ownable.sol\":2433:2620  function _transferOwnership(address newOwner) internal virtual {... */\n      pop\n      jump\t// out\n        /* \"https://github.com/OpenZeppelin/openzeppelin-contracts/blob/v4.8.3/contracts/token/ERC20/ERC20.sol\":12180:12301  function _beforeTokenTransfer(... */\n    tag_232:\n      pop\n      pop\n      pop\n      jump\t// out\n        /* \"https://github.com/OpenZeppelin/openzeppelin-contracts/blob/v4.8.3/contracts/token/ERC20/ERC20.sol\":12889:13009  function _afterTokenTransfer(... */\n    tag_238:\n      pop\n      pop\n      pop\n      jump\t// out\n        /* \"#utility.yul\":7:106   */\n    tag_251:\n        /* \"#utility.yul\":59:65   */\n      0x00\n        /* \"#utility.yul\":93:98   */\n      dup2\n        /* \"#utility.yul\":87:99   */\n      mload\n        /* \"#utility.yul\":77:99   */\n      swap1\n      pop\n        /* \"#utility.yul\":7:106   */\n      swap2\n      swap1\n      pop\n      jump\t// out\n        /* \"#utility.yul\":112:281   */\n    tag_252:\n        /* \"#utility.yul\":196:207   */\n      0x00\n        /* \"#utility.yul\":230:236   */\n      dup3\n        /* \"#utility.yul\":225:228   */\n      dup3\n        /* \"#utility.yul\":218:237   */\n      mstore\n        /* \"#utility.yul\":270:274   */\n      0x20\n        /* \"#utility.yul\":265:268   */\n      dup3\n        /* \"#utility.yul\":261:275   */\n      add\n        /* \"#utility.yul\":246:275   */\n      swap1\n      pop\n        /* \"#utility.yul\":112:281   */\n      swap3\n      swap2\n      pop\n      pop\n      jump\t// out\n        /* \"#utility.yul\":287:533   */\n    tag_253:\n        /* \"#utility.yul\":368:369   */\n      0x00\n        /* \"#utility.yul\":378:491   */\n    tag_301:\n        /* \"#utility.yul\":392:398   */\n      dup4\n        /* \"#utility.yul\":389:390   */\n      dup2\n        /* \"#utility.yul\":386:399   */\n      lt\n        /* \"#utility.yul\":378:491   */\n      iszero\n      tag_303\n      jumpi\n        /* \"#utility.yul\":477:478   */\n      dup1\n        /* \"#utility.yul\":472:475   */\n      dup3\n        /* \"#utility.yul\":468:479   */\n      add\n        /* \"#utility.yul\":462:480   */\n      mload\n        /* \"#utility.yul\":458:459   */\n      dup2\n        /* \"#utility.yul\":453:456   */\n      dup5\n        /* \"#utility.yul\":449:460   */\n      add\n        /* \"#utility.yul\":442:481   */\n      mstore\n        /* \"#utility.yul\":414:416   */\n      0x20\n        /* \"#utility.yul\":411:412   */\n      dup2\n        /* \"#utility.yul\":407:417   */\n      add\n        /* \"#utility.yul\":402:417   */\n      swap1\n      pop\n        /* \"#utility.yul\":378:491   */\n      jump(tag_301)\n    tag_303:\n        /* \"#utility.yul\":525:526   */\n      0x00\n        /* \"#utility.yul\":516:522   */\n      dup5\n        /* \"#utility.yul\":511:514   */\n      dup5\n        /* \"#utility.yul\":507:523   */\n      add\n        /* \"#utility.yul\":500:527   */\n      mstore\n        /* \"#utility.yul\":349:533   */\n      pop\n        /* \"#utility.yul\":287:533   */\n      pop\n      pop\n      pop\n      jump\t// out\n        /* \"#utility.yul\":539:641   */\n    tag_254:\n        /* \"#utility.yul\":580:586   */\n      0x00\n        /* \"#utility.yul\":631:633   */\n      0x1f\n        /* \"#utility.yul\":627:634   */\n      not\n        /* \"#utility.yul\":622:624   */\n      0x1f\n        /* \"#utility.yul\":615:620   */\n      dup4\n        /* \"#utility.yul\":611:625   */\n      add\n        /* \"#utility.yul\":607:635   */\n      and\n        /* \"#utility.yul\":597:635   */\n      swap1\n      pop\n        /* \"#utility.yul\":539:641   */\n      swap2\n      swap1\n      pop\n      jump\t// out\n        /* \"#utility.yul\":647:1024   */\n    tag_255:\n        /* \"#utility.yul\":735:738   */\n      0x00\n        /* \"#utility.yul\":763:802   */\n      tag_306\n        /* \"#utility.yul\":796:801   */\n      dup3\n        /* \"#utility.yul\":763:802   */\n      tag_251\n      jump\t// in\n    tag_306:\n        /* \"#utility.yul\":818:889   */\n      tag_307\n        /* \"#utility.yul\":882:888   */\n      dup2\n        /* \"#utility.yul\":877:880   */\n      dup6\n        /* \"#utility.yul\":818:889   */\n      tag_252\n      jump\t// in\n    tag_307:\n        /* \"#utility.yul\":811:889   */\n      swap4\n      pop\n        /* \"#utility.yul\":898:963   */\n      tag_308\n        /* \"#utility.yul\":956:962   */\n      dup2\n        /* \"#utility.yul\":951:954   */\n      dup6\n        /* \"#utility.yul\":944:948   */\n      0x20\n        /* \"#utility.yul\":937:942   */\n      dup7\n        /* \"#utility.yul\":933:949   */\n      add\n        /* \"#utility.yul\":898:963   */\n      tag_253\n      jump\t// in\n    tag_308:\n        /* \"#utility.yul\":988:1017   */\n      tag_309\n        /* \"#utility.yul\":1010:1016   */\n      dup2\n        /* \"#utility.yul\":988:1017   */\n      tag_254\n      jump\t// in\n    tag_309:\n        /* \"#utility.yul\":983:986   */\n      dup5\n        /* \"#utility.yul\":979:1018   */\n      add\n        /* \"#utility.yul\":972:1018   */\n      swap2\n      pop\n        /* \"#utility.yul\":739:1024   */\n      pop\n        /* \"#utility.yul\":647:1024   */\n      swap3\n      swap2\n      pop\n      pop\n      jump\t// out\n        /* \"#utility.yul\":1030:1343   */\n    tag_28:\n        /* \"#utility.yul\":1143:1147   */\n      0x00\n        /* \"#utility.yul\":1181:1183   */\n      0x20\n        /* \"#utility.yul\":1170:1179   */\n      dup3\n        /* \"#utility.yul\":1166:1184   */\n      add\n        /* \"#utility.yul\":1158:1184   */\n      swap1\n      pop\n        /* \"#utility.yul\":1230:1239   */\n      dup2\n        /* \"#utility.yul\":1224:1228   */\n      dup2\n        /* \"#utility.yul\":1220:1240   */\n      sub\n        /* \"#utility.yul\":1216:1217   */\n      0x00\n        /* \"#utility.yul\":1205:1214   */\n      dup4\n        /* \"#utility.yul\":1201:1218   */\n      add\n        /* \"#utility.yul\":1194:1241   */\n      mstore\n        /* \"#utility.yul\":1258:1336   */\n      tag_311\n        /* \"#utility.yul\":1331:1335   */\n      dup2\n        /* \"#utility.yul\":1322:1328   */\n      dup5\n        /* \"#utility.yul\":1258:1336   */\n      tag_255\n      jump\t// in\n    tag_311:\n        /* \"#utility.yul\":1250:1336   */\n      swap1\n      pop\n        /* \"#utility.yul\":1030:1343   */\n      swap3\n      swap2\n      pop\n      pop\n      jump\t// out\n        /* \"#utility.yul\":1430:1547   */\n    tag_257:\n        /* \"#utility.yul\":1539:1540   */\n      0x00\n        /* \"#utility.yul\":1536:1537   */\n      dup1\n        /* \"#utility.yul\":1529:1541   */\n      revert\n        /* \"#utility.yul\":1676:1802   */\n    tag_259:\n        /* \"#utility.yul\":1713:1720   */\n      0x00\n        /* \"#utility.yul\":1753:1795   */\n      0xffffffffffffffffffffffffffffffffffffffff\n        /* \"#utility.yul\":1746:1751   */\n      dup3\n        /* \"#utility.yul\":1742:1796   */\n      and\n        /* \"#utility.yul\":1731:1796   */\n      swap1\n      pop\n        /* \"#utility.yul\":1676:1802   */\n      swap2\n      swap1\n      pop\n      jump\t// out\n        /* \"#utility.yul\":1808:1904   */\n    tag_260:\n        /* \"#utility.yul\":1845:1852   */\n      0x00\n        /* \"#utility.yul\":1874:1898   */\n      tag_317\n        /* \"#utility.yul\":1892:1897   */\n      dup3\n        /* \"#utility.yul\":1874:1898   */\n      tag_259\n      jump\t// in\n    tag_317:\n        /* \"#utility.yul\":1863:1898   */\n      swap1\n      pop\n        /* \"#utility.yul\":1808:1904   */\n      swap2\n      swap1\n      pop\n      jump\t// out\n        /* \"#utility.yul\":1910:2032   */\n    tag_261:\n        /* \"#utility.yul\":1983:2007   */\n      tag_319\n        /* \"#utility.yul\":2001:2006   */\n      dup2\n        /* \"#utility.yul\":1983:2007   */\n      tag_260\n      jump\t// in\n    tag_319:\n        /* \"#utility.yul\":1976:1981   */\n      dup2\n        /* \"#utility.yul\":1973:2008   */\n      eq\n        /* \"#utility.yul\":1963:2026   */\n      tag_320\n      jumpi\n        /* \"#utility.yul\":2022:2023   */\n      0x00\n        /* \"#utility.yul\":2019:2020   */\n      dup1\n        /* \"#utility.yul\":2012:2024   */\n      revert\n        /* \"#utility.yul\":1963:2026   */\n    tag_320:\n        /* \"#utility.yul\":1910:2032   */\n      pop\n      jump\t// out\n        /* \"#utility.yul\":2038:2177   */\n    tag_262:\n        /* \"#utility.yul\":2084:2089   */\n      0x00\n        /* \"#utility.yul\":2122:2128   */\n      dup2\n        /* \"#utility.yul\":2109:2129   */\n      calldataload\n        /* \"#utility.yul\":2100:2129   */\n      swap1\n      pop\n        /* \"#utility.yul\":2138:2171   */\n      tag_322\n        /* \"#utility.yul\":2165:2170   */\n      dup2\n        /* \"#utility.yul\":2138:2171   */\n      tag_261\n      jump\t// in\n    tag_322:\n        /* \"#utility.yul\":2038:2177   */\n      swap3\n      swap2\n      pop\n      pop\n      jump\t// out\n        /* \"#utility.yul\":2183:2260   */\n    tag_263:\n        /* \"#utility.yul\":2220:2227   */\n      0x00\n        /* \"#utility.yul\":2249:2254   */\n      dup2\n        /* \"#utility.yul\":2238:2254   */\n      swap1\n      pop\n        /* \"#utility.yul\":2183:2260   */\n      swap2\n      swap1\n      pop\n      jump\t// out\n        /* \"#utility.yul\":2266:2388   */\n    tag_264:\n        /* \"#utility.yul\":2339:2363   */\n      tag_325\n        /* \"#utility.yul\":2357:2362   */\n      dup2\n        /* \"#utility.yul\":2339:2363   */\n      tag_263\n      jump\t// in\n    tag_325:\n        /* \"#utility.yul\":2332:2337   */\n      dup2\n        /* \"#utility.yul\":2329:2364   */\n      eq\n        /* \"#utility.yul\":2319:2382   */\n      tag_326\n      jumpi\n        /* \"#utility.yul\":2378:2379   */\n      0x00\n        /* \"#utility.yul\":2375:2376   */\n      dup1\n        /* \"#utility.yul\":2368:2380   */\n      revert\n        /* \"#utility.yul\":2319:2382   */\n    tag_326:\n        /* \"#utility.yul\":2266:2388   */\n      pop\n      jump\t// out\n        /* \"#utility.yul\":2394:2533   */\n    tag_265:\n        /* \"#utility.yul\":2440:2445   */\n      0x00\n        /* \"#utility.yul\":2478:2484   */\n      dup2\n        /* \"#utility.yul\":2465:2485   */\n      calldataload\n        /* \"#utility.yul\":2456:2485   */\n      swap1\n      pop\n        /* \"#utility.yul\":2494:2527   */\n      tag_328\n        /* \"#utility.yul\":2521:2526   */\n      dup2\n        /* \"#utility.yul\":2494:2527   */\n      tag_264\n      jump\t// in\n    tag_328:\n        /* \"#utility.yul\":2394:2533   */\n      swap3\n      swap2\n      pop\n      pop\n      jump\t// out\n        /* \"#utility.yul\":2539:3013   */\n    tag_31:\n        /* \"#utility.yul\":2607:2613   */\n      0x00\n        /* \"#utility.yul\":2615:2621   */\n      dup1\n        /* \"#utility.yul\":2664:2666   */\n      0x40\n        /* \"#utility.yul\":2652:2661   */\n      dup4\n        /* \"#utility.yul\":2643:2650   */\n      dup6\n        /* \"#utility.yul\":2639:2662   */\n      sub\n        /* \"#utility.yul\":2635:2667   */\n      slt\n        /* \"#utility.yul\":2632:2751   */\n      iszero\n      tag_330\n      jumpi\n        /* \"#utility.yul\":2670:2749   */\n      tag_331\n      tag_257\n      jump\t// in\n    tag_331:\n        /* \"#utility.yul\":2632:2751   */\n    tag_330:\n        /* \"#utility.yul\":2790:2791   */\n      0x00\n        /* \"#utility.yul\":2815:2868   */\n      tag_332\n        /* \"#utility.yul\":2860:2867   */\n      dup6\n        /* \"#utility.yul\":2851:2857   */\n      dup3\n        /* \"#utility.yul\":2840:2849   */\n      dup7\n        /* \"#utility.yul\":2836:2858   */\n      add\n        /* \"#utility.yul\":2815:2868   */\n      tag_262\n      jump\t// in\n    tag_332:\n        /* \"#utility.yul\":2805:2868   */\n      swap3\n      pop\n        /* \"#utility.yul\":2761:2878   */\n      pop\n        /* \"#utility.yul\":2917:2919   */\n      0x20\n        /* \"#utility.yul\":2943:2996   */\n      tag_333\n        /* \"#utility.yul\":2988:2995   */\n      dup6\n        /* \"#utility.yul\":2979:2985   */\n      dup3\n        /* \"#utility.yul\":2968:2977   */\n      dup7\n        /* \"#utility.yul\":2964:2986   */\n      add\n        /* \"#utility.yul\":2943:2996   */\n      tag_265\n      jump\t// in\n    tag_333:\n        /* \"#utility.yul\":2933:2996   */\n      swap2\n      pop\n        /* \"#utility.yul\":2888:3006   */\n      pop\n        /* \"#utility.yul\":2539:3013   */\n      swap3\n      pop\n      swap3\n      swap1\n      pop\n      jump\t// out\n        /* \"#utility.yul\":3019:3109   */\n    tag_266:\n        /* \"#utility.yul\":3053:3060   */\n      0x00\n        /* \"#utility.yul\":3096:3101   */\n      dup2\n        /* \"#utility.yul\":3089:3102   */\n      iszero\n        /* \"#utility.yul\":3082:3103   */\n      iszero\n        /* \"#utility.yul\":3071:3103   */\n      swap1\n      pop\n        /* \"#utility.yul\":3019:3109   */\n      swap2\n      swap1\n      pop\n      jump\t// out\n        /* \"#utility.yul\":3115:3224   */\n    tag_267:\n        /* \"#utility.yul\":3196:3217   */\n      tag_336\n        /* \"#utility.yul\":3211:3216   */\n      dup2\n        /* \"#utility.yul\":3196:3217   */\n      tag_266\n      jump\t// in\n    tag_336:\n        /* \"#utility.yul\":3191:3194   */\n      dup3\n        /* \"#utility.yul\":3184:3218   */\n      mstore\n        /* \"#utility.yul\":3115:3224   */\n      pop\n      pop\n      jump\t// out\n        /* \"#utility.yul\":3230:3440   */\n    tag_34:\n        /* \"#utility.yul\":3317:3321   */\n      0x00\n        /* \"#utility.yul\":3355:3357   */\n      0x20\n        /* \"#utility.yul\":3344:3353   */\n      dup3\n        /* \"#utility.yul\":3340:3358   */\n      add\n        /* \"#utility.yul\":3332:3358   */\n      swap1\n      pop\n        /* \"#utility.yul\":3368:3433   */\n      tag_338\n        /* \"#utility.yul\":3430:3431   */\n      0x00\n        /* \"#utility.yul\":3419:3428   */\n      dup4\n        /* \"#utility.yul\":3415:3432   */\n      add\n        /* \"#utility.yul\":3406:3412   */\n      dup5\n        /* \"#utility.yul\":3368:3433   */\n      tag_267\n      jump\t// in\n    tag_338:\n        /* \"#utility.yul\":3230:3440   */\n      swap3\n      swap2\n      pop\n      pop\n      jump\t// out\n        /* \"#utility.yul\":3446:3775   */\n    tag_37:\n        /* \"#utility.yul\":3505:3511   */\n      0x00\n        /* \"#utility.yul\":3554:3556   */\n      0x20\n        /* \"#utility.yul\":3542:3551   */\n      dup3\n        /* \"#utility.yul\":3533:3540   */\n      dup5\n        /* \"#utility.yul\":3529:3552   */\n      sub\n        /* \"#utility.yul\":3525:3557   */\n      slt\n        /* \"#utility.yul\":3522:3641   */\n      iszero\n      tag_340\n      jumpi\n        /* \"#utility.yul\":3560:3639   */\n      tag_341\n      tag_257\n      jump\t// in\n    tag_341:\n        /* \"#utility.yul\":3522:3641   */\n    tag_340:\n        /* \"#utility.yul\":3680:3681   */\n      0x00\n        /* \"#utility.yul\":3705:3758   */\n      tag_342\n        /* \"#utility.yul\":3750:3757   */\n      dup5\n        /* \"#utility.yul\":3741:3747   */\n      dup3\n        /* \"#utility.yul\":3730:3739   */\n      dup6\n        /* \"#utility.yul\":3726:3748   */\n      add\n        /* \"#utility.yul\":3705:3758   */\n      tag_265\n      jump\t// in\n    tag_342:\n        /* \"#utility.yul\":3695:3758   */\n      swap2\n      pop\n        /* \"#utility.yul\":3651:3768   */\n      pop\n        /* \"#utility.yul\":3446:3775   */\n      swap3\n      swap2\n      pop\n      pop\n      jump\t// out\n        /* \"#utility.yul\":3781:3899   */\n    tag_268:\n        /* \"#utility.yul\":3868:3892   */\n      tag_344\n        /* \"#utility.yul\":3886:3891   */\n      dup2\n        /* \"#utility.yul\":3868:3892   */\n      tag_263\n      jump\t// in\n    tag_344:\n        /* \"#utility.yul\":3863:3866   */\n      dup3\n        /* \"#utility.yul\":3856:3893   */\n      mstore\n        /* \"#utility.yul\":3781:3899   */\n      pop\n      pop\n      jump\t// out\n        /* \"#utility.yul\":3905:4127   */\n    tag_40:\n        /* \"#utility.yul\":3998:4002   */\n      0x00\n        /* \"#utility.yul\":4036:4038   */\n      0x20\n        /* \"#utility.yul\":4025:4034   */\n      dup3\n        /* \"#utility.yul\":4021:4039   */\n      add\n        /* \"#utility.yul\":4013:4039   */\n      swap1\n      pop\n        /* \"#utility.yul\":4049:4120   */\n      tag_346\n        /* \"#utility.yul\":4117:4118   */\n      0x00\n        /* \"#utility.yul\":4106:4115   */\n      dup4\n        /* \"#utility.yul\":4102:4119   */\n      add\n        /* \"#utility.yul\":4093:4099   */\n      dup5\n        /* \"#utility.yul\":4049:4120   */\n      tag_268\n      jump\t// in\n    tag_346:\n        /* \"#utility.yul\":3905:4127   */\n      swap3\n      swap2\n      pop\n      pop\n      jump\t// out\n        /* \"#utility.yul\":4133:4462   */\n    tag_43:\n        /* \"#utility.yul\":4192:4198   */\n      0x00\n        /* \"#utility.yul\":4241:4243   */\n      0x20\n        /* \"#utility.yul\":4229:4238   */\n      dup3\n        /* \"#utility.yul\":4220:4227   */\n      dup5\n        /* \"#utility.yul\":4216:4239   */\n      sub\n        /* \"#utility.yul\":4212:4244   */\n      slt\n        /* \"#utility.yul\":4209:4328   */\n      iszero\n      tag_348\n      jumpi\n        /* \"#utility.yul\":4247:4326   */\n      tag_349\n      tag_257\n      jump\t// in\n    tag_349:\n        /* \"#utility.yul\":4209:4328   */\n    tag_348:\n        /* \"#utility.yul\":4367:4368   */\n      0x00\n        /* \"#utility.yul\":4392:4445   */\n      tag_350\n        /* \"#utility.yul\":4437:4444   */\n      dup5\n        /* \"#utility.yul\":4428:4434   */\n      dup3\n        /* \"#utility.yul\":4417:4426   */\n      dup6\n        /* \"#utility.yul\":4413:4435   */\n      add\n        /* \"#utility.yul\":4392:4445   */\n      tag_262\n      jump\t// in\n    tag_350:\n        /* \"#utility.yul\":4382:4445   */\n      swap2\n      pop\n        /* \"#utility.yul\":4338:4455   */\n      pop\n        /* \"#utility.yul\":4133:4462   */\n      swap3\n      swap2\n      pop\n      pop\n      jump\t// out\n        /* \"#utility.yul\":4468:4586   */\n    tag_269:\n        /* \"#utility.yul\":4555:4579   */\n      tag_352\n        /* \"#utility.yul\":4573:4578   */\n      dup2\n        /* \"#utility.yul\":4555:4579   */\n      tag_260\n      jump\t// in\n    tag_352:\n        /* \"#utility.yul\":4550:4553   */\n      dup3\n        /* \"#utility.yul\":4543:4580   */\n      mstore\n        /* \"#utility.yul\":4468:4586   */\n      pop\n      pop\n      jump\t// out\n        /* \"#utility.yul\":4592:4814   */\n    tag_52:\n        /* \"#utility.yul\":4685:4689   */\n      0x00\n        /* \"#utility.yul\":4723:4725   */\n      0x20\n        /* \"#utility.yul\":4712:4721   */\n      dup3\n        /* \"#utility.yul\":4708:4726   */\n      add\n        /* \"#utility.yul\":4700:4726   */\n      swap1\n      pop\n        /* \"#utility.yul\":4736:4807   */\n      tag_354\n        /* \"#utility.yul\":4804:4805   */\n      0x00\n        /* \"#utility.yul\":4793:4802   */\n      dup4\n        /* \"#utility.yul\":4789:4806   */\n      add\n        /* \"#utility.yul\":4780:4786   */\n      dup5\n        /* \"#utility.yul\":4736:4807   */\n      tag_269\n      jump\t// in\n    tag_354:\n        /* \"#utility.yul\":4592:4814   */\n      swap3\n      swap2\n      pop\n      pop\n      jump\t// out\n        /* \"#utility.yul\":4820:5439   */\n    tag_55:\n        /* \"#utility.yul\":4897:4903   */\n      0x00\n        /* \"#utility.yul\":4905:4911   */\n      dup1\n        /* \"#utility.yul\":4913:4919   */\n      0x00\n        /* \"#utility.yul\":4962:4964   */\n      0x60\n        /* \"#utility.yul\":4950:4959   */\n      dup5\n        /* \"#utility.yul\":4941:4948   */\n      dup7\n        /* \"#utility.yul\":4937:4960   */\n      sub\n        /* \"#utility.yul\":4933:4965   */\n      slt\n        /* \"#utility.yul\":4930:5049   */\n      iszero\n      tag_356\n      jumpi\n        /* \"#utility.yul\":4968:5047   */\n      tag_357\n      tag_257\n      jump\t// in\n    tag_357:\n        /* \"#utility.yul\":4930:5049   */\n    tag_356:\n        /* \"#utility.yul\":5088:5089   */\n      0x00\n        /* \"#utility.yul\":5113:5166   */\n      tag_358\n        /* \"#utility.yul\":5158:5165   */\n      dup7\n        /* \"#utility.yul\":5149:5155   */\n      dup3\n        /* \"#utility.yul\":5138:5147   */\n      dup8\n        /* \"#utility.yul\":5134:5156   */\n      add\n        /* \"#utility.yul\":5113:5166   */\n      tag_262\n      jump\t// in\n    tag_358:\n        /* \"#utility.yul\":5103:5166   */\n      swap4\n      pop\n        /* \"#utility.yul\":5059:5176   */\n      pop\n        /* \"#utility.yul\":5215:5217   */\n      0x20\n        /* \"#utility.yul\":5241:5294   */\n      tag_359\n        /* \"#utility.yul\":5286:5293   */\n      dup7\n        /* \"#utility.yul\":5277:5283   */\n      dup3\n        /* \"#utility.yul\":5266:5275   */\n      dup8\n        /* \"#utility.yul\":5262:5284   */\n      add\n        /* \"#utility.yul\":5241:5294   */\n      tag_262\n      jump\t// in\n    tag_359:\n        /* \"#utility.yul\":5231:5294   */\n      swap3\n      pop\n        /* \"#utility.yul\":5186:5304   */\n      pop\n        /* \"#utility.yul\":5343:5345   */\n      0x40\n        /* \"#utility.yul\":5369:5422   */\n      tag_360\n        /* \"#utility.yul\":5414:5421   */\n      dup7\n        /* \"#utility.yul\":5405:5411   */\n      dup3\n        /* \"#utility.yul\":5394:5403   */\n      dup8\n        /* \"#utility.yul\":5390:5412   */\n      add\n        /* \"#utility.yul\":5369:5422   */\n      tag_265\n      jump\t// in\n    tag_360:\n        /* \"#utility.yul\":5359:5422   */\n      swap2\n      pop\n        /* \"#utility.yul\":5314:5432   */\n      pop\n        /* \"#utility.yul\":4820:5439   */\n      swap3\n      pop\n      swap3\n      pop\n      swap3\n      jump\t// out\n        /* \"#utility.yul\":5445:5531   */\n    tag_270:\n        /* \"#utility.yul\":5480:5487   */\n      0x00\n        /* \"#utility.yul\":5520:5524   */\n      0xff\n        /* \"#utility.yul\":5513:5518   */\n      dup3\n        /* \"#utility.yul\":5509:5525   */\n      and\n        /* \"#utility.yul\":5498:5525   */\n      swap1\n      pop\n        /* \"#utility.yul\":5445:5531   */\n      swap2\n      swap1\n      pop\n      jump\t// out\n        /* \"#utility.yul\":5537:5649   */\n    tag_271:\n        /* \"#utility.yul\":5620:5642   */\n      tag_363\n        /* \"#utility.yul\":5636:5641   */\n      dup2\n        /* \"#utility.yul\":5620:5642   */\n      tag_270\n      jump\t// in\n    tag_363:\n        /* \"#utility.yul\":5615:5618   */\n      dup3\n        /* \"#utility.yul\":5608:5643   */\n      mstore\n        /* \"#utility.yul\":5537:5649   */\n      pop\n      pop\n      jump\t// out\n        /* \"#utility.yul\":5655:5869   */\n    tag_64:\n        /* \"#utility.yul\":5744:5748   */\n      0x00\n        /* \"#utility.yul\":5782:5784   */\n      0x20\n        /* \"#utility.yul\":5771:5780   */\n      dup3\n        /* \"#utility.yul\":5767:5785   */\n      add\n        /* \"#utility.yul\":5759:5785   */\n      swap1\n      pop\n        /* \"#utility.yul\":5795:5862   */\n      tag_365\n        /* \"#utility.yul\":5859:5860   */\n      0x00\n        /* \"#utility.yul\":5848:5857   */\n      dup4\n        /* \"#utility.yul\":5844:5861   */\n      add\n        /* \"#utility.yul\":5835:5841   */\n      dup5\n        /* \"#utility.yul\":5795:5862   */\n      tag_271\n      jump\t// in\n    tag_365:\n        /* \"#utility.yul\":5655:5869   */\n      swap3\n      swap2\n      pop\n      pop\n      jump\t// out\n        /* \"#utility.yul\":5875:6349   */\n    tag_94:\n        /* \"#utility.yul\":5943:5949   */\n      0x00\n        /* \"#utility.yul\":5951:5957   */\n      dup1\n        /* \"#utility.yul\":6000:6002   */\n      0x40\n        /* \"#utility.yul\":5988:5997   */\n      dup4\n        /* \"#utility.yul\":5979:5986   */\n      dup6\n        /* \"#utility.yul\":5975:5998   */\n      sub\n        /* \"#utility.yul\":5971:6003   */\n      slt\n        /* \"#utility.yul\":5968:6087   */\n      iszero\n      tag_367\n      jumpi\n        /* \"#utility.yul\":6006:6085   */\n      tag_368\n      tag_257\n      jump\t// in\n    tag_368:\n        /* \"#utility.yul\":5968:6087   */\n    tag_367:\n        /* \"#utility.yul\":6126:6127   */\n      0x00\n        /* \"#utility.yul\":6151:6204   */\n      tag_369\n        /* \"#utility.yul\":6196:6203   */\n      dup6\n        /* \"#utility.yul\":6187:6193   */\n      dup3\n        /* \"#utility.yul\":6176:6185   */\n      dup7\n        /* \"#utility.yul\":6172:6194   */\n      add\n        /* \"#utility.yul\":6151:6204   */\n      tag_262\n      jump\t// in\n    tag_369:\n        /* \"#utility.yul\":6141:6204   */\n      swap3\n      pop\n        /* \"#utility.yul\":6097:6214   */\n      pop\n        /* \"#utility.yul\":6253:6255   */\n      0x20\n        /* \"#utility.yul\":6279:6332   */\n      tag_370\n        /* \"#utility.yul\":6324:6331   */\n      dup6\n        /* \"#utility.yul\":6315:6321   */\n      dup3\n        /* \"#utility.yul\":6304:6313   */\n      dup7\n        /* \"#utility.yul\":6300:6322   */\n      add\n        /* \"#utility.yul\":6279:6332   */\n      tag_262\n      jump\t// in\n    tag_370:\n        /* \"#utility.yul\":6269:6332   */\n      swap2\n      pop\n        /* \"#utility.yul\":6224:6342   */\n      pop\n        /* \"#utility.yul\":5875:6349   */\n      swap3\n      pop\n      swap3\n      swap1\n      pop\n      jump\t// out\n        /* \"#utility.yul\":6355:6535   */\n    tag_272:\n        /* \"#utility.yul\":6403:6480   */\n      0x4e487b7100000000000000000000000000000000000000000000000000000000\n        /* \"#utility.yul\":6400:6401   */\n      0x00\n        /* \"#utility.yul\":6393:6481   */\n      mstore\n        /* \"#utility.yul\":6500:6504   */\n      0x22\n        /* \"#utility.yul\":6497:6498   */\n      0x04\n        /* \"#utility.yul\":6490:6505   */\n      mstore\n        /* \"#utility.yul\":6524:6528   */\n      0x24\n        /* \"#utility.yul\":6521:6522   */\n      0x00\n        /* \"#utility.yul\":6514:6529   */\n      revert\n        /* \"#utility.yul\":6541:6861   */\n    tag_102:\n        /* \"#utility.yul\":6585:6591   */\n      0x00\n        /* \"#utility.yul\":6622:6623   */\n      0x02\n        /* \"#utility.yul\":6616:6620   */\n      dup3\n        /* \"#utility.yul\":6612:6624   */\n      div\n        /* \"#utility.yul\":6602:6624   */\n      swap1\n      pop\n        /* \"#utility.yul\":6669:6670   */\n      0x01\n        /* \"#utility.yul\":6663:6667   */\n      dup3\n        /* \"#utility.yul\":6659:6671   */\n      and\n        /* \"#utility.yul\":6690:6708   */\n      dup1\n        /* \"#utility.yul\":6680:6761   */\n      tag_373\n      jumpi\n        /* \"#utility.yul\":6746:6750   */\n      0x7f\n        /* \"#utility.yul\":6738:6744   */\n      dup3\n        /* \"#utility.yul\":6734:6751   */\n      and\n        /* \"#utility.yul\":6724:6751   */\n      swap2\n      pop\n        /* \"#utility.yul\":6680:6761   */\n    tag_373:\n        /* \"#utility.yul\":6808:6810   */\n      0x20\n        /* \"#utility.yul\":6800:6806   */\n      dup3\n        /* \"#utility.yul\":6797:6811   */\n      lt\n        /* \"#utility.yul\":6777:6795   */\n      dup2\n        /* \"#utility.yul\":6774:6812   */\n      sub\n        /* \"#utility.yul\":6771:6855   */\n      tag_374\n      jumpi\n        /* \"#utility.yul\":6827:6845   */\n      tag_375\n      tag_272\n      jump\t// in\n    tag_375:\n        /* \"#utility.yul\":6771:6855   */\n    tag_374:\n        /* \"#utility.yul\":6592:6861   */\n      pop\n        /* \"#utility.yul\":6541:6861   */\n      swap2\n      swap1\n      pop\n      jump\t// out\n        /* \"#utility.yul\":6867:7095   */\n    tag_273:\n        /* \"#utility.yul\":7007:7041   */\n      0x56524332353a206e6f7420656e6f75676820746f6b656e7320666f7220617070\n        /* \"#utility.yul\":7003:7004   */\n      0x00\n        /* \"#utility.yul\":6995:7001   */\n      dup3\n        /* \"#utility.yul\":6991:7005   */\n      add\n        /* \"#utility.yul\":6984:7042   */\n      mstore\n        /* \"#utility.yul\":7076:7087   */\n      0x726f76616c206665650000000000000000000000000000000000000000000000\n        /* \"#utility.yul\":7071:7073   */\n      0x20\n        /* \"#utility.yul\":7063:7069   */\n      dup3\n        /* \"#utility.yul\":7059:7074   */\n      add\n        /* \"#utility.yul\":7052:7088   */\n      mstore\n        /* \"#utility.yul\":6867:7095   */\n      pop\n      jump\t// out\n        /* \"#utility.yul\":7101:7467   */\n    tag_274:\n        /* \"#utility.yul\":7243:7246   */\n      0x00\n        /* \"#utility.yul\":7264:7331   */\n      tag_378\n        /* \"#utility.yul\":7328:7330   */\n      0x29\n        /* \"#utility.yul\":7323:7326   */\n      dup4\n        /* \"#utility.yul\":7264:7331   */\n      tag_252\n      jump\t// in\n    tag_378:\n        /* \"#utility.yul\":7257:7331   */\n      swap2\n      pop\n        /* \"#utility.yul\":7340:7433   */\n      tag_379\n        /* \"#utility.yul\":7429:7432   */\n      dup3\n        /* \"#utility.yul\":7340:7433   */\n      tag_273\n      jump\t// in\n    tag_379:\n        /* \"#utility.yul\":7458:7460   */\n      0x40\n        /* \"#utility.yul\":7453:7456   */\n      dup3\n        /* \"#utility.yul\":7449:7461   */\n      add\n        /* \"#utility.yul\":7442:7461   */\n      swap1\n      pop\n        /* \"#utility.yul\":7101:7467   */\n      swap2\n      swap1\n      pop\n      jump\t// out\n        /* \"#utility.yul\":7473:7892   */\n    tag_114:\n        /* \"#utility.yul\":7639:7643   */\n      0x00\n        /* \"#utility.yul\":7677:7679   */\n      0x20\n        /* \"#utility.yul\":7666:7675   */\n      dup3\n        /* \"#utility.yul\":7662:7680   */\n      add\n        /* \"#utility.yul\":7654:7680   */\n      swap1\n      pop\n        /* \"#utility.yul\":7726:7735   */\n      dup2\n        /* \"#utility.yul\":7720:7724   */\n      dup2\n        /* \"#utility.yul\":7716:7736   */\n      sub\n        /* \"#utility.yul\":7712:7713   */\n      0x00\n        /* \"#utility.yul\":7701:7710   */\n      dup4\n        /* \"#utility.yul\":7697:7714   */\n      add\n        /* \"#utility.yul\":7690:7737   */\n      mstore\n        /* \"#utility.yul\":7754:7885   */\n      tag_381\n        /* \"#utility.yul\":7880:7884   */\n      dup2\n        /* \"#utility.yul\":7754:7885   */\n      tag_274\n      jump\t// in\n    tag_381:\n        /* \"#utility.yul\":7746:7885   */\n      swap1\n      pop\n        /* \"#utility.yul\":7473:7892   */\n      swap2\n      swap1\n      pop\n      jump\t// out\n        /* \"#utility.yul\":7898:8133   */\n    tag_275:\n        /* \"#utility.yul\":8038:8072   */\n      0x56524332353a206e6f7420656e6f75676820616c6c6f77616e636520666f7220\n        /* \"#utility.yul\":8034:8035   */\n      0x00\n        /* \"#utility.yul\":8026:8032   */\n      dup3\n        /* \"#utility.yul\":8022:8036   */\n      add\n        /* \"#utility.yul\":8015:8073   */\n      mstore\n        /* \"#utility.yul\":8107:8125   */\n      0x7472616e7366657220616e642066656500000000000000000000000000000000\n        /* \"#utility.yul\":8102:8104   */\n      0x20\n        /* \"#utility.yul\":8094:8100   */\n      dup3\n        /* \"#utility.yul\":8090:8105   */\n      add\n        /* \"#utility.yul\":8083:8126   */\n      mstore\n        /* \"#utility.yul\":7898:8133   */\n      pop\n      jump\t// out\n        /* \"#utility.yul\":8139:8505   */\n    tag_276:\n        /* \"#utility.yul\":8281:8284   */\n      0x00\n        /* \"#utility.yul\":8302:8369   */\n      tag_384\n        /* \"#utility.yul\":8366:8368   */\n      0x30\n        /* \"#utility.yul\":8361:8364   */\n      dup4\n        /* \"#utility.yul\":8302:8369   */\n      tag_252\n      jump\t// in\n    tag_384:\n        /* \"#utility.yul\":8295:8369   */\n      swap2\n      pop\n        /* \"#utility.yul\":8378:8471   */\n      tag_385\n        /* \"#utility.yul\":8467:8470   */\n      dup3\n        /* \"#utility.yul\":8378:8471   */\n      tag_275\n      jump\t// in\n    tag_385:\n        /* \"#utility.yul\":8496:8498   */\n      0x40\n        /* \"#utility.yul\":8491:8494   */\n      dup3\n        /* \"#utility.yul\":8487:8499   */\n      add\n        /* \"#utility.yul\":8480:8499   */\n      swap1\n      pop\n        /* \"#utility.yul\":8139:8505   */\n      swap2\n      swap1\n      pop\n      jump\t// out\n        /* \"#utility.yul\":8511:8930   */\n    tag_137:\n        /* \"#utility.yul\":8677:8681   */\n      0x00\n        /* \"#utility.yul\":8715:8717   */\n      0x20\n        /* \"#utility.yul\":8704:8713   */\n      dup3\n        /* \"#utility.yul\":8700:8718   */\n      add\n        /* \"#utility.yul\":8692:8718   */\n      swap1\n      pop\n        /* \"#utility.yul\":8764:8773   */\n      dup2\n        /* \"#utility.yul\":8758:8762   */\n      dup2\n        /* \"#utility.yul\":8754:8774   */\n      sub\n        /* \"#utility.yul\":8750:8751   */\n      0x00\n        /* \"#utility.yul\":8739:8748   */\n      dup4\n        /* \"#utility.yul\":8735:8752   */\n      add\n        /* \"#utility.yul\":8728:8775   */\n      mstore\n        /* \"#utility.yul\":8792:8923   */\n      tag_387\n        /* \"#utility.yul\":8918:8922   */\n      dup2\n        /* \"#utility.yul\":8792:8923   */\n      tag_276\n      jump\t// in\n    tag_387:\n        /* \"#utility.yul\":8784:8923   */\n      swap1\n      pop\n        /* \"#utility.yul\":8511:8930   */\n      swap2\n      swap1\n      pop\n      jump\t// out\n        /* \"#utility.yul\":8936:9168   */\n    tag_277:\n        /* \"#utility.yul\":9076:9110   */\n      0x56524332353a206e6f7420656e6f75676820746f6b656e7320666f7220747261\n        /* \"#utility.yul\":9072:9073   */\n      0x00\n        /* \"#utility.yul\":9064:9070   */\n      dup3\n        /* \"#utility.yul\":9060:9074   */\n      add\n        /* \"#utility.yul\":9053:9111   */\n      mstore\n        /* \"#utility.yul\":9145:9160   */\n      0x6e7366657220616e642066656500000000000000000000000000000000000000\n        /* \"#utility.yul\":9140:9142   */\n      0x20\n        /* \"#utility.yul\":9132:9138   */\n      dup3\n        /* \"#utility.yul\":9128:9143   */\n      add\n        /* \"#utility.yul\":9121:9161   */\n      mstore\n        /* \"#utility.yul\":8936:9168   */\n      pop\n      jump\t// out\n        /* \"#utility.yul\":9174:9540   */\n    tag_278:\n        /* \"#utility.yul\":9316:9319   */\n      0x00\n        /* \"#utility.yul\":9337:9404   */\n      tag_390\n        /* \"#utility.yul\":9401:9403   */\n      0x2d\n        /* \"#utility.yul\":9396:9399   */\n      dup4\n        /* \"#utility.yul\":9337:9404   */\n      tag_252\n      jump\t// in\n    tag_390:\n        /* \"#utility.yul\":9330:9404   */\n      swap2\n      pop\n        /* \"#utility.yul\":9413:9506   */\n      tag_391\n        /* \"#utility.yul\":9502:9505   */\n      dup3\n        /* \"#utility.yul\":9413:9506   */\n      tag_277\n      jump\t// in\n    tag_391:\n        /* \"#utility.yul\":9531:9533   */\n      0x40\n        /* \"#utility.yul\":9526:9529   */\n      dup3\n        /* \"#utility.yul\":9522:9534   */\n      add\n        /* \"#utility.yul\":9515:9534   */\n      swap1\n      pop\n        /* \"#utility.yul\":9174:9540   */\n      swap2\n      swap1\n      pop\n      jump\t// out\n        /* \"#utility.yul\":9546:9965   */\n    tag_141:\n        /* \"#utility.yul\":9712:9716   */\n      0x00\n        /* \"#utility.yul\":9750:9752   */\n      0x20\n        /* \"#utility.yul\":9739:9748   */\n      dup3\n        /* \"#utility.yul\":9735:9753   */\n      add\n        /* \"#utility.yul\":9727:9753   */\n      swap1\n      pop\n        /* \"#utility.yul\":9799:9808   */\n      dup2\n        /* \"#utility.yul\":9793:9797   */\n      dup2\n        /* \"#utility.yul\":9789:9809   */\n      sub\n        /* \"#utility.yul\":9785:9786   */\n      0x00\n        /* \"#utility.yul\":9774:9783   */\n      dup4\n        /* \"#utility.yul\":9770:9787   */\n      add\n        /* \"#utility.yul\":9763:9810   */\n      mstore\n        /* \"#utility.yul\":9827:9958   */\n      tag_393\n        /* \"#utility.yul\":9953:9957   */\n      dup2\n        /* \"#utility.yul\":9827:9958   */\n      tag_278\n      jump\t// in\n    tag_393:\n        /* \"#utility.yul\":9819:9958   */\n      swap1\n      pop\n        /* \"#utility.yul\":9546:9965   */\n      swap2\n      swap1\n      pop\n      jump\t// out\n        /* \"#utility.yul\":9971:10151   */\n    tag_279:\n        /* \"#utility.yul\":10019:10096   */\n      0x4e487b7100000000000000000000000000000000000000000000000000000000\n        /* \"#utility.yul\":10016:10017   */\n      0x00\n        /* \"#utility.yul\":10009:10097   */\n      mstore\n        /* \"#utility.yul\":10116:10120   */\n      0x11\n        /* \"#utility.yul\":10113:10114   */\n      0x04\n        /* \"#utility.yul\":10106:10121   */\n      mstore\n        /* \"#utility.yul\":10140:10144   */\n      0x24\n        /* \"#utility.yul\":10137:10138   */\n      0x00\n        /* \"#utility.yul\":10130:10145   */\n      revert\n        /* \"#utility.yul\":10157:10348   */\n    tag_162:\n        /* \"#utility.yul\":10197:10200   */\n      0x00\n        /* \"#utility.yul\":10216:10236   */\n      tag_396\n        /* \"#utility.yul\":10234:10235   */\n      dup3\n        /* \"#utility.yul\":10216:10236   */\n      tag_263\n      jump\t// in\n    tag_396:\n        /* \"#utility.yul\":10211:10236   */\n      swap2\n      pop\n        /* \"#utility.yul\":10250:10270   */\n      tag_397\n        /* \"#utility.yul\":10268:10269   */\n      dup4\n        /* \"#utility.yul\":10250:10270   */\n      tag_263\n      jump\t// in\n    tag_397:\n        /* \"#utility.yul\":10245:10270   */\n      swap3\n      pop\n        /* \"#utility.yul\":10293:10294   */\n      dup3\n        /* \"#utility.yul\":10290:10291   */\n      dup3\n        /* \"#utility.yul\":10286:10295   */\n      add\n        /* \"#utility.yul\":10279:10295   */\n      swap1\n      pop\n        /* \"#utility.yul\":10314:10317   */\n      dup1\n        /* \"#utility.yul\":10311:10312   */\n      dup3\n        /* \"#utility.yul\":10308:10318   */\n      gt\n        /* \"#utility.yul\":10305:10341   */\n      iszero\n      tag_398\n      jumpi\n        /* \"#utility.yul\":10321:10339   */\n      tag_399\n      tag_279\n      jump\t// in\n    tag_399:\n        /* \"#utility.yul\":10305:10341   */\n    tag_398:\n        /* \"#utility.yul\":10157:10348   */\n      swap3\n      swap2\n      pop\n      pop\n      jump\t// out\n        /* \"#utility.yul\":10354:10578   */\n    tag_280:\n        /* \"#utility.yul\":10494:10528   */\n      0x45524332303a2064656372656173656420616c6c6f77616e63652062656c6f77\n        /* \"#utility.yul\":10490:10491   */\n      0x00\n        /* \"#utility.yul\":10482:10488   */\n      dup3\n        /* \"#utility.yul\":10478:10492   */\n      add\n        /* \"#utility.yul\":10471:10529   */\n      mstore\n        /* \"#utility.yul\":10563:10570   */\n      0x207a65726f000000000000000000000000000000000000000000000000000000\n        /* \"#utility.yul\":10558:10560   */\n      0x20\n        /* \"#utility.yul\":10550:10556   */\n      dup3\n        /* \"#utility.yul\":10546:10561   */\n      add\n        /* \"#utility.yul\":10539:10571   */\n      mstore\n        /* \"#utility.yul\":10354:10578   */\n      pop\n      jump\t// out\n        /* \"#utility.yul\":10584:10950   */\n    tag_281:\n        /* \"#utility.yul\":10726:10729   */\n      0x00\n        /* \"#utility.yul\":10747:10814   */\n      tag_402\n        /* \"#utility.yul\":10811:10813   */\n      0x25\n        /* \"#utility.yul\":10806:10809   */\n      dup4\n        /* \"#utility.yul\":10747:10814   */\n      tag_252\n      jump\t// in\n    tag_402:\n        /* \"#utility.yul\":10740:10814   */\n      swap2\n      pop\n        /* \"#utility.yul\":10823:10916   */\n      tag_403\n        /* \"#utility.yul\":10912:10915   */\n      dup3\n        /* \"#utility.yul\":10823:10916   */\n      tag_280\n      jump\t// in\n    tag_403:\n        /* \"#utility.yul\":10941:10943   */\n      0x40\n        /* \"#utility.yul\":10936:10939   */\n      dup3\n        /* \"#utility.yul\":10932:10944   */\n      add\n        /* \"#utility.yul\":10925:10944   */\n      swap1\n      pop\n        /* \"#utility.yul\":10584:10950   */\n      swap2\n      swap1\n      pop\n      jump\t// out\n        /* \"#utility.yul\":10956:11375   */\n    tag_181:\n        /* \"#utility.yul\":11122:11126   */\n      0x00\n        /* \"#utility.yul\":11160:11162   */\n      0x20\n        /* \"#utility.yul\":11149:11158   */\n      dup3\n        /* \"#utility.yul\":11145:11163   */\n      add\n        /* \"#utility.yul\":11137:11163   */\n      swap1\n      pop\n        /* \"#utility.yul\":11209:11218   */\n      dup2\n        /* \"#utility.yul\":11203:11207   */\n      dup2\n        /* \"#utility.yul\":11199:11219   */\n      sub\n        /* \"#utility.yul\":11195:11196   */\n      0x00\n        /* \"#utility.yul\":11184:11193   */\n      dup4\n        /* \"#utility.yul\":11180:11197   */\n      add\n        /* \"#utility.yul\":11173:11220   */\n      mstore\n        /* \"#utility.yul\":11237:11368   */\n      tag_405\n        /* \"#utility.yul\":11363:11367   */\n      dup2\n        /* \"#utility.yul\":11237:11368   */\n      tag_281\n      jump\t// in\n    tag_405:\n        /* \"#utility.yul\":11229:11368   */\n      swap1\n      pop\n        /* \"#utility.yul\":10956:11375   */\n      swap2\n      swap1\n      pop\n      jump\t// out\n        /* \"#utility.yul\":11381:11606   */\n    tag_282:\n        /* \"#utility.yul\":11521:11555   */\n      0x4f776e61626c653a206e6577206f776e657220697320746865207a65726f2061\n        /* \"#utility.yul\":11517:11518   */\n      0x00\n        /* \"#utility.yul\":11509:11515   */\n      dup3\n        /* \"#utility.yul\":11505:11519   */\n      add\n        /* \"#utility.yul\":11498:11556   */\n      mstore\n        /* \"#utility.yul\":11590:11598   */\n      0x6464726573730000000000000000000000000000000000000000000000000000\n        /* \"#utility.yul\":11585:11587   */\n      0x20\n        /* \"#utility.yul\":11577:11583   */\n      dup3\n        /* \"#utility.yul\":11573:11588   */\n      add\n        /* \"#utility.yul\":11566:11599   */\n      mstore\n        /* \"#utility.yul\":11381:11606   */\n      pop\n      jump\t// out\n        /* \"#utility.yul\":11612:11978   */\n    tag_283:\n        /* \"#utility.yul\":11754:11757   */\n      0x00\n        /* \"#utility.yul\":11775:11842   */\n      tag_408\n        /* \"#utility.yul\":11839:11841   */\n      0x26\n        /* \"#utility.yul\":11834:11837   */\n      dup4\n        /* \"#utility.yul\":11775:11842   */\n      tag_252\n      jump\t// in\n    tag_408:\n        /* \"#utility.yul\":11768:11842   */\n      swap2\n      pop\n        /* \"#utility.yul\":11851:11944   */\n      tag_409\n        /* \"#utility.yul\":11940:11943   */\n      dup3\n        /* \"#utility.yul\":11851:11944   */\n      tag_282\n      jump\t// in\n    tag_409:\n        /* \"#utility.yul\":11969:11971   */\n      0x40\n        /* \"#utility.yul\":11964:11967   */\n      dup3\n        /* \"#utility.yul\":11960:11972   */\n      add\n        /* \"#utility.yul\":11953:11972   */\n      swap1\n      pop\n        /* \"#utility.yul\":11612:11978   */\n      swap2\n      swap1\n      pop\n      jump\t// out\n        /* \"#utility.yul\":11984:12403   */\n    tag_200:\n        /* \"#utility.yul\":12150:12154   */\n      0x00\n        /* \"#utility.yul\":12188:12190   */\n      0x20\n        /* \"#utility.yul\":12177:12186   */\n      dup3\n        /* \"#utility.yul\":12173:12191   */\n      add\n        /* \"#utility.yul\":12165:12191   */\n      swap1\n      pop\n        /* \"#utility.yul\":12237:12246   */\n      dup2\n        /* \"#utility.yul\":12231:12235   */\n      dup2\n        /* \"#utility.yul\":12227:12247   */\n      sub\n        /* \"#utility.yul\":12223:12224   */\n      0x00\n        /* \"#utility.yul\":12212:12221   */\n      dup4\n        /* \"#utility.yul\":12208:12225   */\n      add\n        /* \"#utility.yul\":12201:12248   */\n      mstore\n        /* \"#utility.yul\":12265:12396   */\n      tag_411\n        /* \"#utility.yul\":12391:12395   */\n      dup2\n        /* \"#utility.yul\":12265:12396   */\n      tag_283\n      jump\t// in\n    tag_411:\n        /* \"#utility.yul\":12257:12396   */\n      swap1\n      pop\n        /* \"#utility.yul\":11984:12403   */\n      swap2\n      swap1\n      pop\n      jump\t// out\n        /* \"#utility.yul\":12409:12632   */\n    tag_284:\n        /* \"#utility.yul\":12549:12583   */\n      0x45524332303a20617070726f76652066726f6d20746865207a65726f20616464\n        /* \"#utility.yul\":12545:12546   */\n      0x00\n        /* \"#utility.yul\":12537:12543   */\n      dup3\n        /* \"#utility.yul\":12533:12547   */\n      add\n        /* \"#utility.yul\":12526:12584   */\n      mstore\n        /* \"#utility.yul\":12618:12624   */\n      0x7265737300000000000000000000000000000000000000000000000000000000\n        /* \"#utility.yul\":12613:12615   */\n      0x20\n        /* \"#utility.yul\":12605:12611   */\n      dup3\n        /* \"#utility.yul\":12601:12616   */\n      add\n        /* \"#utility.yul\":12594:12625   */\n      mstore\n        /* \"#utility.yul\":12409:12632   */\n      pop\n      jump\t// out\n        /* \"#utility.yul\":12638:13004   */\n    tag_285:\n        /* \"#utility.yul\":12780:12783   */\n      0x00\n        /* \"#utility.yul\":12801:12868   */\n      tag_414\n        /* \"#utility.yul\":12865:12867   */\n      0x24\n        /* \"#utility.yul\":12860:12863   */\n      dup4\n        /* \"#utility.yul\":12801:12868   */\n      tag_252\n      jump\t// in\n    tag_414:\n        /* \"#utility.yul\":12794:12868   */\n      swap2\n      pop\n        /* \"#utility.yul\":12877:12970   */\n      tag_415\n        /* \"#utility.yul\":12966:12969   */\n      dup3\n        /* \"#utility.yul\":12877:12970   */\n      tag_284\n      jump\t// in\n    tag_415:\n        /* \"#utility.yul\":12995:12997   */\n      0x40\n        /* \"#utility.yul\":12990:12993   */\n      dup3\n        /* \"#utility.yul\":12986:12998   */\n      add\n        /* \"#utility.yul\":12979:12998   */\n      swap1\n      pop\n        /* \"#utility.yul\":12638:13004   */\n      swap2\n      swap1\n      pop\n      jump\t// out\n        /* \"#utility.yul\":13010:13429   */\n    tag_214:\n        /* \"#utility.yul\":13176:13180   */\n      0x00\n        /* \"#utility.yul\":13214:13216   */\n      0x20\n        /* \"#utility.yul\":13203:13212   */\n      dup3\n        /* \"#utility.yul\":13199:13217   */\n      add\n        /* \"#utility.yul\":13191:13217   */\n      swap1\n      pop\n        /* \"#utility.yul\":13263:13272   */\n      dup2\n        /* \"#utility.yul\":13257:13261   */\n      dup2\n        /* \"#utility.yul\":13253:13273   */\n      sub\n        /* \"#utility.yul\":13249:13250   */\n      0x00\n        /* \"#utility.yul\":13238:13247   */\n      dup4\n        /* \"#utility.yul\":13234:13251   */\n      add\n        /* \"#utility.yul\":13227:13274   */\n      mstore\n        /* \"#utility.yul\":13291:13422   */\n      tag_417\n        /* \"#utility.yul\":13417:13421   */\n      dup2\n        /* \"#utility.yul\":13291:13422   */\n      tag_285\n      jump\t// in\n    tag_417:\n        /* \"#utility.yul\":13283:13422   */\n      swap1\n      pop\n        /* \"#utility.yul\":13010:13429   */\n      swap2\n      swap1\n      pop\n      jump\t// out\n        /* \"#utility.yul\":13435:13656   */\n    tag_286:\n        /* \"#utility.yul\":13575:13609   */\n      0x45524332303a20617070726f766520746f20746865207a65726f206164647265\n        /* \"#utility.yul\":13571:13572   */\n      0x00\n        /* \"#utility.yul\":13563:13569   */\n      dup3\n        /* \"#utility.yul\":13559:13573   */\n      add\n        /* \"#utility.yul\":13552:13610   */\n      mstore\n        /* \"#utility.yul\":13644:13648   */\n      0x7373000000000000000000000000000000000000000000000000000000000000\n        /* \"#utility.yul\":13639:13641   */\n      0x20\n        /* \"#utility.yul\":13631:13637   */\n      dup3\n        /* \"#utility.yul\":13627:13642   */\n      add\n        /* \"#utility.yul\":13620:13649   */\n      mstore\n        /* \"#utility.yul\":13435:13656   */\n      pop\n      jump\t// out\n        /* \"#utility.yul\":13662:14028   */\n    tag_287:\n        /* \"#utility.yul\":13804:13807   */\n      0x00\n        /* \"#utility.yul\":13825:13892   */\n      tag_420\n        /* \"#utility.yul\":13889:13891   */\n      0x22\n        /* \"#utility.yul\":13884:13887   */\n      dup4\n        /* \"#utility.yul\":13825:13892   */\n      tag_252\n      jump\t// in\n    tag_420:\n        /* \"#utility.yul\":13818:13892   */\n      swap2\n      pop\n        /* \"#utility.yul\":13901:13994   */\n      tag_421\n        /* \"#utility.yul\":13990:13993   */\n      dup3\n        /* \"#utility.yul\":13901:13994   */\n      tag_286\n      jump\t// in\n    tag_421:\n        /* \"#utility.yul\":14019:14021   */\n      0x40\n        /* \"#utility.yul\":14014:14017   */\n      dup3\n        /* \"#utility.yul\":14010:14022   */\n      add\n        /* \"#utility.yul\":14003:14022   */\n      swap1\n      pop\n        /* \"#utility.yul\":13662:14028   */\n      swap2\n      swap1\n      pop\n      jump\t// out\n        /* \"#utility.yul\":14034:14453   */\n    tag_217:\n        /* \"#utility.yul\":14200:14204   */\n      0x00\n        /* \"#utility.yul\":14238:14240   */\n      0x20\n        /* \"#utility.yul\":14227:14236   */\n      dup3\n        /* \"#utility.yul\":14223:14241   */\n      add\n        /* \"#utility.yul\":14215:14241   */\n      swap1\n      pop\n        /* \"#utility.yul\":14287:14296   */\n      dup2\n        /* \"#utility.yul\":14281:14285   */\n      dup2\n        /* \"#utility.yul\":14277:14297   */\n      sub\n        /* \"#utility.yul\":14273:14274   */\n      0x00\n        /* \"#utility.yul\":14262:14271   */\n      dup4\n        /* \"#utility.yul\":14258:14275   */\n      add\n        /* \"#utility.yul\":14251:14298   */\n      mstore\n        /* \"#utility.yul\":14315:14446   */\n      tag_423\n        /* \"#utility.yul\":14441:14445   */\n      dup2\n        /* \"#utility.yul\":14315:14446   */\n      tag_287\n      jump\t// in\n    tag_423:\n        /* \"#utility.yul\":14307:14446   */\n      swap1\n      pop\n        /* \"#utility.yul\":14034:14453   */\n      swap2\n      swap1\n      pop\n      jump\t// out\n        /* \"#utility.yul\":14459:14639   */\n    tag_288:\n        /* \"#utility.yul\":14507:14584   */\n      0x4e487b7100000000000000000000000000000000000000000000000000000000\n        /* \"#utility.yul\":14504:14505   */\n      0x00\n        /* \"#utility.yul\":14497:14585   */\n      mstore\n        /* \"#utility.yul\":14604:14608   */\n      0x12\n        /* \"#utility.yul\":14601:14602   */\n      0x04\n        /* \"#utility.yul\":14594:14609   */\n      mstore\n        /* \"#utility.yul\":14628:14632   */\n      0x24\n        /* \"#utility.yul\":14625:14626   */\n      0x00\n        /* \"#utility.yul\":14618:14633   */\n      revert\n        /* \"#utility.yul\":14645:14830   */\n    tag_221:\n        /* \"#utility.yul\":14685:14686   */\n      0x00\n        /* \"#utility.yul\":14702:14722   */\n      tag_426\n        /* \"#utility.yul\":14720:14721   */\n      dup3\n        /* \"#utility.yul\":14702:14722   */\n      tag_263\n      jump\t// in\n    tag_426:\n        /* \"#utility.yul\":14697:14722   */\n      swap2\n      pop\n        /* \"#utility.yul\":14736:14756   */\n      tag_427\n        /* \"#utility.yul\":14754:14755   */\n      dup4\n        /* \"#utility.yul\":14736:14756   */\n      tag_263\n      jump\t// in\n    tag_427:\n        /* \"#utility.yul\":14731:14756   */\n      swap3\n      pop\n        /* \"#utility.yul\":14775:14776   */\n      dup3\n        /* \"#utility.yul\":14765:14800   */\n      tag_428\n      jumpi\n        /* \"#utility.yul\":14780:14798   */\n      tag_429\n      tag_288\n      jump\t// in\n    tag_429:\n        /* \"#utility.yul\":14765:14800   */\n    tag_428:\n        /* \"#utility.yul\":14822:14823   */\n      dup3\n        /* \"#utility.yul\":14819:14820   */\n      dup3\n        /* \"#utility.yul\":14815:14824   */\n      div\n        /* \"#utility.yul\":14810:14824   */\n      swap1\n      pop\n        /* \"#utility.yul\":14645:14830   */\n      swap3\n      swap2\n      pop\n      pop\n      jump\t// out\n        /* \"#utility.yul\":14836:15060   */\n    tag_289:\n        /* \"#utility.yul\":14976:15010   */\n      0x45524332303a207472616e736665722066726f6d20746865207a65726f206164\n        /* \"#utility.yul\":14972:14973   */\n      0x00\n        /* \"#utility.yul\":14964:14970   */\n      dup3\n        /* \"#utility.yul\":14960:14974   */\n      add\n        /* \"#utility.yul\":14953:15011   */\n      mstore\n        /* \"#utility.yul\":15045:15052   */\n      0x6472657373000000000000000000000000000000000000000000000000000000\n        /* \"#utility.yul\":15040:15042   */\n      0x20\n        /* \"#utility.yul\":15032:15038   */\n      dup3\n        /* \"#utility.yul\":15028:15043   */\n      add\n        /* \"#utility.yul\":15021:15053   */\n      mstore\n        /* \"#utility.yul\":14836:15060   */\n      pop\n      jump\t// out\n        /* \"#utility.yul\":15066:15432   */\n    tag_290:\n        /* \"#utility.yul\":15208:15211   */\n      0x00\n        /* \"#utility.yul\":15229:15296   */\n      tag_432\n        /* \"#utility.yul\":15293:15295   */\n      0x25\n        /* \"#utility.yul\":15288:15291   */\n      dup4\n        /* \"#utility.yul\":15229:15296   */\n      tag_252\n      jump\t// in\n    tag_432:\n        /* \"#utility.yul\":15222:15296   */\n      swap2\n      pop\n        /* \"#utility.yul\":15305:15398   */\n      tag_433\n        /* \"#utility.yul\":15394:15397   */\n      dup3\n        /* \"#utility.yul\":15305:15398   */\n      tag_289\n      jump\t// in\n    tag_433:\n        /* \"#utility.yul\":15423:15425   */\n      0x40\n        /* \"#utility.yul\":15418:15421   */\n      dup3\n        /* \"#utility.yul\":15414:15426   */\n      add\n        /* \"#utility.yul\":15407:15426   */\n      swap1\n      pop\n        /* \"#utility.yul\":15066:15432   */\n      swap2\n      swap1\n      pop\n      jump\t// out\n        /* \"#utility.yul\":15438:15857   */\n    tag_227:\n        /* \"#utility.yul\":15604:15608   */\n      0x00\n        /* \"#utility.yul\":15642:15644   */\n      0x20\n        /* \"#utility.yul\":15631:15640   */\n      dup3\n        /* \"#utility.yul\":15627:15645   */\n      add\n        /* \"#utility.yul\":15619:15645   */\n      swap1\n      pop\n        /* \"#utility.yul\":15691:15700   */\n      dup2\n        /* \"#utility.yul\":15685:15689   */\n      dup2\n        /* \"#utility.yul\":15681:15701   */\n      sub\n        /* \"#utility.yul\":15677:15678   */\n      0x00\n        /* \"#utility.yul\":15666:15675   */\n      dup4\n        /* \"#utility.yul\":15662:15679   */\n      add\n        /* \"#utility.yul\":15655:15702   */\n      mstore\n        /* \"#utility.yul\":15719:15850   */\n      tag_435\n        /* \"#utility.yul\":15845:15849   */\n      dup2\n        /* \"#utility.yul\":15719:15850   */\n      tag_290\n      jump\t// in\n    tag_435:\n        /* \"#utility.yul\":15711:15850   */\n      swap1\n      pop\n        /* \"#utility.yul\":15438:15857   */\n      swap2\n      swap1\n      pop\n      jump\t// out\n        /* \"#utility.yul\":15863:16085   */\n    tag_291:\n        /* \"#utility.yul\":16003:16037   */\n      0x45524332303a207472616e7366657220746f20746865207a65726f2061646472\n        /* \"#utility.yul\":15999:16000   */\n      0x00\n        /* \"#utility.yul\":15991:15997   */\n      dup3\n        /* \"#utility.yul\":15987:16001   */\n      add\n        /* \"#utility.yul\":15980:16038   */\n      mstore\n        /* \"#utility.yul\":16072:16077   */\n      0x6573730000000000000000000000000000000000000000000000000000000000\n        /* \"#utility.yul\":16067:16069   */\n      0x20\n        /* \"#utility.yul\":16059:16065   */\n      dup3\n        /* \"#utility.yul\":16055:16070   */\n      add\n        /* \"#utility.yul\":16048:16078   */\n      mstore\n        /* \"#utility.yul\":15863:16085   */\n      pop\n      jump\t// out\n        /* \"#utility.yul\":16091:16457   */\n    tag_292:\n        /* \"#utility.yul\":16233:16236   */\n      0x00\n        /* \"#utility.yul\":16254:16321   */\n      tag_438\n        /* \"#utility.yul\":16318:16320   */\n      0x23\n        /* \"#utility.yul\":16313:16316   */\n      dup4\n        /* \"#utility.yul\":16254:16321   */\n      tag_252\n      jump\t// in\n    tag_438:\n        /* \"#utility.yul\":16247:16321   */\n      swap2\n      pop\n        /* \"#utility.yul\":16330:16423   */\n      tag_439\n        /* \"#utility.yul\":16419:16422   */\n      dup3\n        /* \"#utility.yul\":16330:16423   */\n      tag_291\n      jump\t// in\n    tag_439:\n        /* \"#utility.yul\":16448:16450   */\n      0x40\n        /* \"#utility.yul\":16443:16446   */\n      dup3\n        /* \"#utility.yul\":16439:16451   */\n      add\n        /* \"#utility.yul\":16432:16451   */\n      swap1\n      pop\n        /* \"#utility.yul\":16091:16457   */\n      swap2\n      swap1\n      pop\n      jump\t// out\n        /* \"#utility.yul\":16463:16882   */\n    tag_230:\n        /* \"#utility.yul\":16629:16633   */\n      0x00\n        /* \"#utility.yul\":16667:16669   */\n      0x20\n        /* \"#utility.yul\":16656:16665   */\n      dup3\n        /* \"#utility.yul\":16652:16670   */\n      add\n        /* \"#utility.yul\":16644:16670   */\n      swap1\n      pop\n        /* \"#utility.yul\":16716:16725   */\n      dup2\n        /* \"#utility.yul\":16710:16714   */\n      dup2\n        /* \"#utility.yul\":16706:16726   */\n      sub\n        /* \"#utility.yul\":16702:16703   */\n      0x00\n        /* \"#utility.yul\":16691:16700   */\n      dup4\n        /* \"#utility.yul\":16687:16704   */\n      add\n        /* \"#utility.yul\":16680:16727   */\n      mstore\n        /* \"#utility.yul\":16744:16875   */\n      tag_441\n        /* \"#utility.yul\":16870:16874   */\n      dup2\n        /* \"#utility.yul\":16744:16875   */\n      tag_292\n      jump\t// in\n    tag_441:\n        /* \"#utility.yul\":16736:16875   */\n      swap1\n      pop\n        /* \"#utility.yul\":16463:16882   */\n      swap2\n      swap1\n      pop\n      jump\t// out\n        /* \"#utility.yul\":16888:17113   */\n    tag_293:\n        /* \"#utility.yul\":17028:17062   */\n      0x45524332303a207472616e7366657220616d6f756e7420657863656564732062\n        /* \"#utility.yul\":17024:17025   */\n      0x00\n        /* \"#utility.yul\":17016:17022   */\n      dup3\n        /* \"#utility.yul\":17012:17026   */\n      add\n        /* \"#utility.yul\":17005:17063   */\n      mstore\n        /* \"#utility.yul\":17097:17105   */\n      0x616c616e63650000000000000000000000000000000000000000000000000000\n        /* \"#utility.yul\":17092:17094   */\n      0x20\n        /* \"#utility.yul\":17084:17090   */\n      dup3\n        /* \"#utility.yul\":17080:17095   */\n      add\n        /* \"#utility.yul\":17073:17106   */\n      mstore\n        /* \"#utility.yul\":16888:17113   */\n      pop\n      jump\t// out\n        /* \"#utility.yul\":17119:17485   */\n    tag_294:\n        /* \"#utility.yul\":17261:17264   */\n      0x00\n        /* \"#utility.yul\":17282:17349   */\n      tag_444\n        /* \"#utility.yul\":17346:17348   */\n      0x26\n        /* \"#utility.yul\":17341:17344   */\n      dup4\n        /* \"#utility.yul\":17282:17349   */\n      tag_252\n      jump\t// in\n    tag_444:\n        /* \"#utility.yul\":17275:17349   */\n      swap2\n      pop\n        /* \"#utility.yul\":17358:17451   */\n      tag_445\n        /* \"#utility.yul\":17447:17450   */\n      dup3\n        /* \"#utility.yul\":17358:17451   */\n      tag_293\n      jump\t// in\n    tag_445:\n        /* \"#utility.yul\":17476:17478   */\n      0x40\n        /* \"#utility.yul\":17471:17474   */\n      dup3\n        /* \"#utility.yul\":17467:17479   */\n      add\n        /* \"#utility.yul\":17460:17479   */\n      swap1\n      pop\n        /* \"#utility.yul\":17119:17485   */\n      swap2\n      swap1\n      pop\n      jump\t// out\n        /* \"#utility.yul\":17491:17910   */\n    tag_235:\n        /* \"#utility.yul\":17657:17661   */\n      0x00\n        /* \"#utility.yul\":17695:17697   */\n      0x20\n        /* \"#utility.yul\":17684:17693   */\n      dup3\n        /* \"#utility.yul\":17680:17698   */\n      add\n        /* \"#utility.yul\":17672:17698   */\n      swap1\n      pop\n        /* \"#utility.yul\":17744:17753   */\n      dup2\n        /* \"#utility.yul\":17738:17742   */\n      dup2\n        /* \"#utility.yul\":17734:17754   */\n      sub\n        /* \"#utility.yul\":17730:17731   */\n      0x00\n        /* \"#utility.yul\":17719:17728   */\n      dup4\n        /* \"#utility.yul\":17715:17732   */\n      add\n        /* \"#utility.yul\":17708:17755   */\n      mstore\n        /* \"#utility.yul\":17772:17903   */\n      tag_447\n        /* \"#utility.yul\":17898:17902   */\n      dup2\n        /* \"#utility.yul\":17772:17903   */\n      tag_294\n      jump\t// in\n    tag_447:\n        /* \"#utility.yul\":17764:17903   */\n      swap1\n      pop\n        /* \"#utility.yul\":17491:17910   */\n      swap2\n      swap1\n      pop\n      jump\t// out\n        /* \"#utility.yul\":17916:18110   */\n    tag_241:\n        /* \"#utility.yul\":17956:17960   */\n      0x00\n        /* \"#utility.yul\":17976:17996   */\n      tag_449\n        /* \"#utility.yul\":17994:17995   */\n      dup3\n        /* \"#utility.yul\":17976:17996   */\n      tag_263\n      jump\t// in\n    tag_449:\n        /* \"#utility.yul\":17971:17996   */\n      swap2\n      pop\n        /* \"#utility.yul\":18010:18030   */\n      tag_450\n        /* \"#utility.yul\":18028:18029   */\n      dup4\n        /* \"#utility.yul\":18010:18030   */\n      tag_263\n      jump\t// in\n    tag_450:\n        /* \"#utility.yul\":18005:18030   */\n      swap3\n      pop\n        /* \"#utility.yul\":18054:18055   */\n      dup3\n        /* \"#utility.yul\":18051:18052   */\n      dup3\n        /* \"#utility.yul\":18047:18056   */\n      sub\n        /* \"#utility.yul\":18039:18056   */\n      swap1\n      pop\n        /* \"#utility.yul\":18078:18079   */\n      dup2\n        /* \"#utility.yul\":18072:18076   */\n      dup2\n        /* \"#utility.yul\":18069:18080   */\n      gt\n        /* \"#utility.yul\":18066:18103   */\n      iszero\n      tag_451\n      jumpi\n        /* \"#utility.yul\":18083:18101   */\n      tag_452\n      tag_279\n      jump\t// in\n    tag_452:\n        /* \"#utility.yul\":18066:18103   */\n    tag_451:\n        /* \"#utility.yul\":17916:18110   */\n      swap3\n      swap2\n      pop\n      pop\n      jump\t// out\n        /* \"#utility.yul\":18116:18298   */\n    tag_295:\n        /* \"#utility.yul\":18256:18290   */\n      0x4f776e61626c653a2063616c6c6572206973206e6f7420746865206f776e6572\n        /* \"#utility.yul\":18252:18253   */\n      0x00\n        /* \"#utility.yul\":18244:18250   */\n      dup3\n        /* \"#utility.yul\":18240:18254   */\n      add\n        /* \"#utility.yul\":18233:18291   */\n      mstore\n        /* \"#utility.yul\":18116:18298   */\n      pop\n      jump\t// out\n        /* \"#utility.yul\":18304:18670   */\n    tag_296:\n        /* \"#utility.yul\":18446:18449   */\n      0x00\n        /* \"#utility.yul\":18467:18534   */\n      tag_455\n        /* \"#utility.yul\":18531:18533   */\n      0x20\n        /* \"#utility.yul\":18526:18529   */\n      dup4\n        /* \"#utility.yul\":18467:18534   */\n      tag_252\n      jump\t// in\n    tag_455:\n        /* \"#utility.yul\":18460:18534   */\n      swap2\n      pop\n        /* \"#utility.yul\":18543:18636   */\n      tag_456\n        /* \"#utility.yul\":18632:18635   */\n      dup3\n        /* \"#utility.yul\":18543:18636   */\n      tag_295\n      jump\t// in\n    tag_456:\n        /* \"#utility.yul\":18661:18663   */\n      0x20\n        /* \"#utility.yul\":18656:18659   */\n      dup3\n        /* \"#utility.yul\":18652:18664   */\n      add\n        /* \"#utility.yul\":18645:18664   */\n      swap1\n      pop\n        /* \"#utility.yul\":18304:18670   */\n      swap2\n      swap1\n      pop\n      jump\t// out\n        /* \"#utility.yul\":18676:19095   */\n    tag_247:\n        /* \"#utility.yul\":18842:18846   */\n      0x00\n        /* \"#utility.yul\":18880:18882   */\n      0x20\n        /* \"#utility.yul\":18869:18878   */\n      dup3\n        /* \"#utility.yul\":18865:18883   */\n      add\n        /* \"#utility.yul\":18857:18883   */\n      swap1\n      pop\n        /* \"#utility.yul\":18929:18938   */\n      dup2\n        /* \"#utility.yul\":18923:18927   */\n      dup2\n        /* \"#utility.yul\":18919:18939   */\n      sub\n        /* \"#utility.yul\":18915:18916   */\n      0x00\n        /* \"#utility.yul\":18904:18913   */\n      dup4\n        /* \"#utility.yul\":18900:18917   */\n      add\n        /* \"#utility.yul\":18893:18940   */\n      mstore\n        /* \"#utility.yul\":18957:19088   */\n      tag_458\n        /* \"#utility.yul\":19083:19087   */\n      dup2\n        /* \"#utility.yul\":18957:19088   */\n      tag_296\n      jump\t// in\n    tag_458:\n        /* \"#utility.yul\":18949:19088   */\n      swap1\n      pop\n        /* \"#utility.yul\":18676:19095   */\n      swap2\n      swap1\n      pop\n      jump\t// out\n\n    auxdata: 0xa26469706673582212204529400c056b31015062ca68775e64db4e14bac3b10f08a7a15c10178810b1e964736f6c63430008110033\n}\n",
				"bytecode": {
					"linkReferences": {},
					"object": "60806040523480156200001157600080fd5b50604051620025d2380380620025d283398181016040528101906200003791906200050f565b848481600390816200004a919062000816565b5080600490816200005c919062000816565b5050506200007f62000073620000be60201b60201c565b620000c660201b60201c565b8060068190555082600760006101000a81548160ff021916908360ff160217905550620000b333836200018c60201b60201c565b505050505062000a18565b600033905090565b6000600560009054906101000a900473ffffffffffffffffffffffffffffffffffffffff16905081600560006101000a81548173ffffffffffffffffffffffffffffffffffffffff021916908373ffffffffffffffffffffffffffffffffffffffff1602179055508173ffffffffffffffffffffffffffffffffffffffff168173ffffffffffffffffffffffffffffffffffffffff167f8be0079c531659141344cd1fd0a4f28419497f9722a3daafe3b4186f6b6457e060405160405180910390a35050565b600073ffffffffffffffffffffffffffffffffffffffff168273ffffffffffffffffffffffffffffffffffffffff1603620001fe576040517f08c379a0000000000000000000000000000000000000000000000000000000008152600401620001f5906200095e565b60405180910390fd5b6200021260008383620002f960201b60201c565b8060026000828254620002269190620009af565b92505081905550806000808473ffffffffffffffffffffffffffffffffffffffff1673ffffffffffffffffffffffffffffffffffffffff168152602001908152602001600020600082825401925050819055508173ffffffffffffffffffffffffffffffffffffffff16600073ffffffffffffffffffffffffffffffffffffffff167fddf252ad1be2c89b69c2b068fc378daa952ba7f163c4a11628f55a4df523b3ef83604051620002d99190620009fb565b60405180910390a3620002f560008383620002fe60201b60201c565b5050565b505050565b505050565b6000604051905090565b600080fd5b600080fd5b600080fd5b600080fd5b6000601f19601f8301169050919050565b7f4e487b7100000000000000000000000000000000000000000000000000000000600052604160045260246000fd5b6200036c8262000321565b810181811067ffffffffffffffff821117156200038e576200038d62000332565b5b80604052505050565b6000620003a362000303565b9050620003b1828262000361565b919050565b600067ffffffffffffffff821115620003d457620003d362000332565b5b620003df8262000321565b9050602081019050919050565b60005b838110156200040c578082015181840152602081019050620003ef565b60008484015250505050565b60006200042f6200042984620003b6565b62000397565b9050828152602081018484840111156200044e576200044d6200031c565b5b6200045b848285620003ec565b509392505050565b600082601f8301126200047b576200047a62000317565b5b81516200048d84826020860162000418565b91505092915050565b600060ff82169050919050565b620004ae8162000496565b8114620004ba57600080fd5b50565b600081519050620004ce81620004a3565b92915050565b6000819050919050565b620004e981620004d4565b8114620004f557600080fd5b50565b6000815190506200050981620004de565b92915050565b600080600080600060a086880312156200052e576200052d6200030d565b5b600086015167ffffffffffffffff8111156200054f576200054e62000312565b5b6200055d8882890162000463565b955050602086015167ffffffffffffffff81111562000581576200058062000312565b5b6200058f8882890162000463565b9450506040620005a288828901620004bd565b9350506060620005b588828901620004f8565b9250506080620005c888828901620004f8565b9150509295509295909350565b600081519050919050565b7f4e487b7100000000000000000000000000000000000000000000000000000000600052602260045260246000fd5b600060028204905060018216806200062857607f821691505b6020821081036200063e576200063d620005e0565b5b50919050565b60008190508160005260206000209050919050565b60006020601f8301049050919050565b600082821b905092915050565b600060088302620006a87fffffffffffffffffffffffffffffffffffffffffffffffffffffffffffffffff8262000669565b620006b4868362000669565b95508019841693508086168417925050509392505050565b6000819050919050565b6000620006f7620006f1620006eb84620004d4565b620006cc565b620004d4565b9050919050565b6000819050919050565b6200071383620006d6565b6200072b6200072282620006fe565b84845462000676565b825550505050565b600090565b6200074262000733565b6200074f81848462000708565b505050565b5b8181101562000777576200076b60008262000738565b60018101905062000755565b5050565b601f821115620007c657620007908162000644565b6200079b8462000659565b81016020851015620007ab578190505b620007c3620007ba8562000659565b83018262000754565b50505b505050565b600082821c905092915050565b6000620007eb60001984600802620007cb565b1980831691505092915050565b6000620008068383620007d8565b9150826002028217905092915050565b6200082182620005d5565b67ffffffffffffffff8111156200083d576200083c62000332565b5b6200084982546200060f565b620008568282856200077b565b600060209050601f8311600181146200088e576000841562000879578287015190505b620008858582620007f8565b865550620008f5565b601f1984166200089e8662000644565b60005b82811015620008c857848901518255600182019150602085019450602081019050620008a1565b86831015620008e85784890151620008e4601f891682620007d8565b8355505b6001600288020188555050505b505050505050565b600082825260208201905092915050565b7f45524332303a206d696e7420746f20746865207a65726f206164647265737300600082015250565b600062000946601f83620008fd565b915062000953826200090e565b602082019050919050565b60006020820190508181036000830152620009798162000937565b9050919050565b7f4e487b7100000000000000000000000000000000000000000000000000000000600052601160045260246000fd5b6000620009bc82620004d4565b9150620009c983620004d4565b9250828201905080821115620009e457620009e362000980565b5b92915050565b620009f581620004d4565b82525050565b600060208201905062000a126000830184620009ea565b92915050565b611baa8062000a286000396000f3fe608060405234801561001057600080fd5b50600436106101215760003560e01c806331ac9920116100ad57806395d89b411161007157806395d89b4114610320578063a457c2d71461033e578063a9059cbb1461036e578063dd62ed3e1461039e578063f2fde38b146103ce57610121565b806331ac99201461027c578063395093511461029857806370a08231146102c8578063715018a6146102f85780638da5cb5b1461030257610121565b806318160ddd116100f457806318160ddd146101d45780631d143848146101f257806323b872dd1461021057806324ec759014610240578063313ce5671461025e57610121565b806306fdde0314610126578063095ea7b314610144578063127e8e4d1461017457806316279055146101a4575b600080fd5b61012e6103ea565b60405161013b9190611154565b60405180910390f35b61015e6004803603810190610159919061120f565b61047c565b60405161016b919061126a565b60405180910390f35b61018e60048036038101906101899190611285565b61050b565b60405161019b91906112c1565b60405180910390f35b6101be60048036038101906101b991906112dc565b61053d565b6040516101cb919061126a565b60405180910390f35b6101dc610560565b6040516101e991906112c1565b60405180910390f35b6101fa61056a565b6040516102079190611318565b60405180910390f35b61022a60048036038101906102259190611333565b610579565b604051610237919061126a565b60405180910390f35b610248610692565b60405161025591906112c1565b60405180910390f35b61026661069c565b60405161027391906113a2565b60405180910390f35b61029660048036038101906102919190611285565b6106b3565b005b6102b260048036038101906102ad919061120f565b6106c5565b6040516102bf919061126a565b60405180910390f35b6102e260048036038101906102dd91906112dc565b6106fc565b6040516102ef91906112c1565b60405180910390f35b610300610744565b005b61030a610758565b6040516103179190611318565b60405180910390f35b610328610782565b6040516103359190611154565b60405180910390f35b6103586004803603810190610353919061120f565b610814565b604051610365919061126a565b60405180910390f35b6103886004803603810190610383919061120f565b61088b565b604051610395919061126a565b60405180910390f35b6103b860048036038101906103b391906113bd565b610931565b6040516103c591906112c1565b60405180910390f35b6103e860048036038101906103e391906112dc565b6109b8565b005b6060600380546103f99061142c565b80601f01602080910402602001604051908101604052809291908181526020018280546104259061142c565b80156104725780601f1061044757610100808354040283529160200191610472565b820191906000526020600020905b81548152906001019060200180831161045557829003601f168201915b5050505050905090565b600080610489600061050b565b90508061049c610497610a3b565b6106fc565b10156104dd576040517f08c379a00000000000000000000000000000000000000000000000000000000081526004016104d4906114cf565b60405180910390fd5b6104ee6104e8610a3b565b82610a43565b6105006104f9610a3b565b8585610af5565b600191505092915050565b60006105366006546105286103e885610cbe90919063ffffffff16565b610cd490919063ffffffff16565b9050919050565b6000808273ffffffffffffffffffffffffffffffffffffffff163b119050919050565b6000600254905090565b6000610574610758565b905090565b6000806105858361050b565b9050600061059c8285610cd490919063ffffffff16565b9050806105b0876105ab610a3b565b610931565b10156105f1576040517f08c379a00000000000000000000000000000000000000000000000000000000081526004016105e890611561565b60405180910390fd5b806105fb876106fc565b101561063c576040517f08c379a0000000000000000000000000000000000000000000000000000000008152600401610633906115f3565b60405180910390fd5b6106468683610a43565b610651868686610cea565b6106858661065d610a3b565b610680846106728b61066d610a3b565b610931565b610f6090919063ffffffff16565b610af5565b6001925050509392505050565b6000600654905090565b6000600760009054906101000a900460ff16905090565b6106bb610f76565b8060068190555050565b6000806106d0610a3b565b90506106f18185856106e28589610931565b6106ec9190611642565b610af5565b600191505092915050565b60008060008373ffffffffffffffffffffffffffffffffffffffff1673ffffffffffffffffffffffffffffffffffffffff168152602001908152602001600020549050919050565b61074c610f76565b6107566000610ff4565b565b6000600560009054906101000a900473ffffffffffffffffffffffffffffffffffffffff16905090565b6060600480546107919061142c565b80601f01602080910402602001604051908101604052809291908181526020018280546107bd9061142c565b801561080a5780601f106107df5761010080835404028352916020019161080a565b820191906000526020600020905b8154815290600101906020018083116107ed57829003601f168201915b5050505050905090565b60008061081f610a3b565b9050600061082d8286610931565b905083811015610872576040517f08c379a0000000000000000000000000000000000000000000000000000000008152600401610869906116e8565b60405180910390fd5b61087f8286868403610af5565b60019250505092915050565b6000806108978361050b565b905060006108ae8285610cd490919063ffffffff16565b9050806108c16108bc610a3b565b6106fc565b1015610902576040517f08c379a00000000000000000000000000000000000000000000000000000000081526004016108f9906115f3565b60405180910390fd5b61091361090d610a3b565b83610a43565b61092561091e610a3b565b8686610cea565b60019250505092915050565b6000600160008473ffffffffffffffffffffffffffffffffffffffff1673ffffffffffffffffffffffffffffffffffffffff16815260200190815260200160002060008373ffffffffffffffffffffffffffffffffffffffff1673ffffffffffffffffffffffffffffffffffffffff16815260200190815260200160002054905092915050565b6109c0610f76565b600073ffffffffffffffffffffffffffffffffffffffff168173ffffffffffffffffffffffffffffffffffffffff1603610a2f576040517f08c379a0000000000000000000000000000000000000000000000000000000008152600401610a269061177a565b60405180910390fd5b610a3881610ff4565b50565b600033905090565b610a4c8261053d565b610af1576000811115610af057610a6b82610a65610758565b83610cea565b610a73610758565b73ffffffffffffffffffffffffffffffffffffffff16600073ffffffffffffffffffffffffffffffffffffffff168373ffffffffffffffffffffffffffffffffffffffff167ffcf5b3276434181e3c48bd3fe569b8939808f11e845d4b963693b9d7dbd6dd9984604051610ae791906112c1565b60405180910390a45b5b5050565b600073ffffffffffffffffffffffffffffffffffffffff168373ffffffffffffffffffffffffffffffffffffffff1603610b64576040517f08c379a0000000000000000000000000000000000000000000000000000000008152600401610b5b9061180c565b60405180910390fd5b600073ffffffffffffffffffffffffffffffffffffffff168273ffffffffffffffffffffffffffffffffffffffff1603610bd3576040517f08c379a0000000000000000000000000000000000000000000000000000000008152600401610bca9061189e565b60405180910390fd5b80600160008573ffffffffffffffffffffffffffffffffffffffff1673ffffffffffffffffffffffffffffffffffffffff16815260200190815260200160002060008473ffffffffffffffffffffffffffffffffffffffff1673ffffffffffffffffffffffffffffffffffffffff168152602001908152602001600020819055508173ffffffffffffffffffffffffffffffffffffffff168373ffffffffffffffffffffffffffffffffffffffff167f8c5be1e5ebec7d5bd14f71427d1e84f3dd0314c0f7b2291e5b200ac8c7c3b92583604051610cb191906112c1565b60405180910390a3505050565b60008183610ccc91906118ed565b905092915050565b60008183610ce29190611642565b905092915050565b600073ffffffffffffffffffffffffffffffffffffffff168373ffffffffffffffffffffffffffffffffffffffff1603610d59576040517f08c379a0000000000000000000000000000000000000000000000000000000008152600401610d5090611990565b60405180910390fd5b600073ffffffffffffffffffffffffffffffffffffffff168273ffffffffffffffffffffffffffffffffffffffff1603610dc8576040517f08c379a0000000000000000000000000000000000000000000000000000000008152600401610dbf90611a22565b60405180910390fd5b610dd38383836110ba565b60008060008573ffffffffffffffffffffffffffffffffffffffff1673ffffffffffffffffffffffffffffffffffffffff16815260200190815260200160002054905081811015610e59576040517f08c379a0000000000000000000000000000000000000000000000000000000008152600401610e5090611ab4565b60405180910390fd5b8181036000808673ffffffffffffffffffffffffffffffffffffffff1673ffffffffffffffffffffffffffffffffffffffff16815260200190815260200160002081905550816000808573ffffffffffffffffffffffffffffffffffffffff1673ffffffffffffffffffffffffffffffffffffffff168152602001908152602001600020600082825401925050819055508273ffffffffffffffffffffffffffffffffffffffff168473ffffffffffffffffffffffffffffffffffffffff167fddf252ad1be2c89b69c2b068fc378daa952ba7f163c4a11628f55a4df523b3ef84604051610f4791906112c1565b60405180910390a3610f5a8484846110bf565b50505050565b60008183610f6e9190611ad4565b905092915050565b610f7e610a3b565b73ffffffffffffffffffffffffffffffffffffffff16610f9c610758565b73ffffffffffffffffffffffffffffffffffffffff1614610ff2576040517f08c379a0000000000000000000000000000000000000000000000000000000008152600401610fe990611b54565b60405180910390fd5b565b6000600560009054906101000a900473ffffffffffffffffffffffffffffffffffffffff16905081600560006101000a81548173ffffffffffffffffffffffffffffffffffffffff021916908373ffffffffffffffffffffffffffffffffffffffff1602179055508173ffffffffffffffffffffffffffffffffffffffff168173ffffffffffffffffffffffffffffffffffffffff167f8be0079c531659141344cd1fd0a4f28419497f9722a3daafe3b4186f6b6457e060405160405180910390a35050565b505050565b505050565b600081519050919050565b600082825260208201905092915050565b60005b838110156110fe5780820151818401526020810190506110e3565b60008484015250505050565b6000601f19601f8301169050919050565b6000611126826110c4565b61113081856110cf565b93506111408185602086016110e0565b6111498161110a565b840191505092915050565b6000602082019050818103600083015261116e818461111b565b905092915050565b600080fd5b600073ffffffffffffffffffffffffffffffffffffffff82169050919050565b60006111a68261117b565b9050919050565b6111b68161119b565b81146111c157600080fd5b50565b6000813590506111d3816111ad565b92915050565b6000819050919050565b6111ec816111d9565b81146111f757600080fd5b50565b600081359050611209816111e3565b92915050565b6000806040838503121561122657611225611176565b5b6000611234858286016111c4565b9250506020611245858286016111fa565b9150509250929050565b60008115159050919050565b6112648161124f565b82525050565b600060208201905061127f600083018461125b565b92915050565b60006020828403121561129b5761129a611176565b5b60006112a9848285016111fa565b91505092915050565b6112bb816111d9565b82525050565b60006020820190506112d660008301846112b2565b92915050565b6000602082840312156112f2576112f1611176565b5b6000611300848285016111c4565b91505092915050565b6113128161119b565b82525050565b600060208201905061132d6000830184611309565b92915050565b60008060006060848603121561134c5761134b611176565b5b600061135a868287016111c4565b935050602061136b868287016111c4565b925050604061137c868287016111fa565b9150509250925092565b600060ff82169050919050565b61139c81611386565b82525050565b60006020820190506113b76000830184611393565b92915050565b600080604083850312156113d4576113d3611176565b5b60006113e2858286016111c4565b92505060206113f3858286016111c4565b9150509250929050565b7f4e487b7100000000000000000000000000000000000000000000000000000000600052602260045260246000fd5b6000600282049050600182168061144457607f821691505b602082108103611457576114566113fd565b5b50919050565b7f56524332353a206e6f7420656e6f75676820746f6b656e7320666f722061707060008201527f726f76616c206665650000000000000000000000000000000000000000000000602082015250565b60006114b96029836110cf565b91506114c48261145d565b604082019050919050565b600060208201905081810360008301526114e8816114ac565b9050919050565b7f56524332353a206e6f7420656e6f75676820616c6c6f77616e636520666f722060008201527f7472616e7366657220616e642066656500000000000000000000000000000000602082015250565b600061154b6030836110cf565b9150611556826114ef565b604082019050919050565b6000602082019050818103600083015261157a8161153e565b9050919050565b7f56524332353a206e6f7420656e6f75676820746f6b656e7320666f722074726160008201527f6e7366657220616e642066656500000000000000000000000000000000000000602082015250565b60006115dd602d836110cf565b91506115e882611581565b604082019050919050565b6000602082019050818103600083015261160c816115d0565b9050919050565b7f4e487b7100000000000000000000000000000000000000000000000000000000600052601160045260246000fd5b600061164d826111d9565b9150611658836111d9565b92508282019050808211156116705761166f611613565b5b92915050565b7f45524332303a2064656372656173656420616c6c6f77616e63652062656c6f7760008201527f207a65726f000000000000000000000000000000000000000000000000000000602082015250565b60006116d26025836110cf565b91506116dd82611676565b604082019050919050565b60006020820190508181036000830152611701816116c5565b9050919050565b7f4f776e61626c653a206e6577206f776e657220697320746865207a65726f206160008201527f6464726573730000000000000000000000000000000000000000000000000000602082015250565b60006117646026836110cf565b915061176f82611708565b604082019050919050565b6000602082019050818103600083015261179381611757565b9050919050565b7f45524332303a20617070726f76652066726f6d20746865207a65726f2061646460008201527f7265737300000000000000000000000000000000000000000000000000000000602082015250565b60006117f66024836110cf565b91506118018261179a565b604082019050919050565b60006020820190508181036000830152611825816117e9565b9050919050565b7f45524332303a20617070726f766520746f20746865207a65726f20616464726560008201527f7373000000000000000000000000000000000000000000000000000000000000602082015250565b60006118886022836110cf565b91506118938261182c565b604082019050919050565b600060208201905081810360008301526118b78161187b565b9050919050565b7f4e487b7100000000000000000000000000000000000000000000000000000000600052601260045260246000fd5b60006118f8826111d9565b9150611903836111d9565b925082611913576119126118be565b5b828204905092915050565b7f45524332303a207472616e736665722066726f6d20746865207a65726f20616460008201527f6472657373000000000000000000000000000000000000000000000000000000602082015250565b600061197a6025836110cf565b91506119858261191e565b604082019050919050565b600060208201905081810360008301526119a98161196d565b9050919050565b7f45524332303a207472616e7366657220746f20746865207a65726f206164647260008201527f6573730000000000000000000000000000000000000000000000000000000000602082015250565b6000611a0c6023836110cf565b9150611a17826119b0565b604082019050919050565b60006020820190508181036000830152611a3b816119ff565b9050919050565b7f45524332303a207472616e7366657220616d6f756e742065786365656473206260008201527f616c616e63650000000000000000000000000000000000000000000000000000602082015250565b6000611a9e6026836110cf565b9150611aa982611a42565b604082019050919050565b60006020820190508181036000830152611acd81611a91565b9050919050565b6000611adf826111d9565b9150611aea836111d9565b9250828203905081811115611b0257611b01611613565b5b92915050565b7f4f776e61626c653a2063616c6c6572206973206e6f7420746865206f776e6572600082015250565b6000611b3e6020836110cf565b9150611b4982611b08565b602082019050919050565b60006020820190508181036000830152611b6d81611b31565b905091905056fea26469706673582212204529400c056b31015062ca68775e64db4e14bac3b10f08a7a15c10178810b1e964736f6c63430008110033",
					"opcodes": "PUSH1 0x80 PUSH1 0x40 MSTORE CALLVALUE DUP1 ISZERO PUSH3 0x11 JUMPI PUSH1 0x0 DUP1 REVERT JUMPDEST POP PUSH1 0x40 MLOAD PUSH3 0x25D2 CODESIZE SUB DUP1 PUSH3 0x25D2 DUP4 CODECOPY DUP2 DUP2 ADD PUSH1 0x40 MSTORE DUP2 ADD SWAP1 PUSH3 0x37 SWAP2 SWAP1 PUSH3 0x50F JUMP JUMPDEST DUP5 DUP5 DUP2 PUSH1 0x3 SWAP1 DUP2 PUSH3 0x4A SWAP2 SWAP1 PUSH3 0x816 JUMP JUMPDEST POP DUP1 PUSH1 0x4 SWAP1 DUP2 PUSH3 0x5C SWAP2 SWAP1 PUSH3 0x816 JUMP JUMPDEST POP POP POP PUSH3 0x7F PUSH3 0x73 PUSH3 0xBE PUSH1 0x20 SHL PUSH1 0x20 SHR JUMP JUMPDEST PUSH3 0xC6 PUSH1 0x20 SHL PUSH1 0x20 SHR JUMP JUMPDEST DUP1 PUSH1 0x6 DUP2 SWAP1 SSTORE POP DUP3 PUSH1 0x7 PUSH1 0x0 PUSH2 0x100 EXP DUP2 SLOAD DUP2 PUSH1 0xFF MUL NOT AND SWAP1 DUP4 PUSH1 0xFF AND MUL OR SWAP1 SSTORE POP PUSH3 0xB3 CALLER DUP4 PUSH3 0x18C PUSH1 0x20 SHL PUSH1 0x20 SHR JUMP JUMPDEST POP POP POP POP POP PUSH3 0xA18 JUMP JUMPDEST PUSH1 0x0 CALLER SWAP1 POP SWAP1 JUMP JUMPDEST PUSH1 0x0 PUSH1 0x5 PUSH1 0x0 SWAP1 SLOAD SWAP1 PUSH2 0x100 EXP SWAP1 DIV PUSH20 0xFFFFFFFFFFFFFFFFFFFFFFFFFFFFFFFFFFFFFFFF AND SWAP1 POP DUP2 PUSH1 0x5 PUSH1 0x0 PUSH2 0x100 EXP DUP2 SLOAD DUP2 PUSH20 0xFFFFFFFFFFFFFFFFFFFFFFFFFFFFFFFFFFFFFFFF MUL NOT AND SWAP1 DUP4 PUSH20 0xFFFFFFFFFFFFFFFFFFFFFFFFFFFFFFFFFFFFFFFF AND MUL OR SWAP1 SSTORE POP DUP2 PUSH20 0xFFFFFFFFFFFFFFFFFFFFFFFFFFFFFFFFFFFFFFFF AND DUP2 PUSH20 0xFFFFFFFFFFFFFFFFFFFFFFFFFFFFFFFFFFFFFFFF AND PUSH32 0x8BE0079C531659141344CD1FD0A4F28419497F9722A3DAAFE3B4186F6B6457E0 PUSH1 0x40 MLOAD PUSH1 0x40 MLOAD DUP1 SWAP2 SUB SWAP1 LOG3 POP POP JUMP JUMPDEST PUSH1 0x0 PUSH20 0xFFFFFFFFFFFFFFFFFFFFFFFFFFFFFFFFFFFFFFFF AND DUP3 PUSH20 0xFFFFFFFFFFFFFFFFFFFFFFFFFFFFFFFFFFFFFFFF AND SUB PUSH3 0x1FE JUMPI PUSH1 0x40 MLOAD PUSH32 0x8C379A000000000000000000000000000000000000000000000000000000000 DUP2 MSTORE PUSH1 0x4 ADD PUSH3 0x1F5 SWAP1 PUSH3 0x95E JUMP JUMPDEST PUSH1 0x40 MLOAD DUP1 SWAP2 SUB SWAP1 REVERT JUMPDEST PUSH3 0x212 PUSH1 0x0 DUP4 DUP4 PUSH3 0x2F9 PUSH1 0x20 SHL PUSH1 0x20 SHR JUMP JUMPDEST DUP1 PUSH1 0x2 PUSH1 0x0 DUP3 DUP3 SLOAD PUSH3 0x226 SWAP2 SWAP1 PUSH3 0x9AF JUMP JUMPDEST SWAP3 POP POP DUP2 SWAP1 SSTORE POP DUP1 PUSH1 0x0 DUP1 DUP5 PUSH20 0xFFFFFFFFFFFFFFFFFFFFFFFFFFFFFFFFFFFFFFFF AND PUSH20 0xFFFFFFFFFFFFFFFFFFFFFFFFFFFFFFFFFFFFFFFF AND DUP2 MSTORE PUSH1 0x20 ADD SWAP1 DUP2 MSTORE PUSH1 0x20 ADD PUSH1 0x0 KECCAK256 PUSH1 0x0 DUP3 DUP3 SLOAD ADD SWAP3 POP POP DUP2 SWAP1 SSTORE POP DUP2 PUSH20 0xFFFFFFFFFFFFFFFFFFFFFFFFFFFFFFFFFFFFFFFF AND PUSH1 0x0 PUSH20 0xFFFFFFFFFFFFFFFFFFFFFFFFFFFFFFFFFFFFFFFF AND PUSH32 0xDDF252AD1BE2C89B69C2B068FC378DAA952BA7F163C4A11628F55A4DF523B3EF DUP4 PUSH1 0x40 MLOAD PUSH3 0x2D9 SWAP2 SWAP1 PUSH3 0x9FB JUMP JUMPDEST PUSH1 0x40 MLOAD DUP1 SWAP2 SUB SWAP1 LOG3 PUSH3 0x2F5 PUSH1 0x0 DUP4 DUP4 PUSH3 0x2FE PUSH1 0x20 SHL PUSH1 0x20 SHR JUMP JUMPDEST POP POP JUMP JUMPDEST POP POP POP JUMP JUMPDEST POP POP POP JUMP JUMPDEST PUSH1 0x0 PUSH1 0x40 MLOAD SWAP1 POP SWAP1 JUMP JUMPDEST PUSH1 0x0 DUP1 REVERT JUMPDEST PUSH1 0x0 DUP1 REVERT JUMPDEST PUSH1 0x0 DUP1 REVERT JUMPDEST PUSH1 0x0 DUP1 REVERT JUMPDEST PUSH1 0x0 PUSH1 0x1F NOT PUSH1 0x1F DUP4 ADD AND SWAP1 POP SWAP2 SWAP1 POP JUMP JUMPDEST PUSH32 0x4E487B7100000000000000000000000000000000000000000000000000000000 PUSH1 0x0 MSTORE PUSH1 0x41 PUSH1 0x4 MSTORE PUSH1 0x24 PUSH1 0x0 REVERT JUMPDEST PUSH3 0x36C DUP3 PUSH3 0x321 JUMP JUMPDEST DUP2 ADD DUP2 DUP2 LT PUSH8 0xFFFFFFFFFFFFFFFF DUP3 GT OR ISZERO PUSH3 0x38E JUMPI PUSH3 0x38D PUSH3 0x332 JUMP JUMPDEST JUMPDEST DUP1 PUSH1 0x40 MSTORE POP POP POP JUMP JUMPDEST PUSH1 0x0 PUSH3 0x3A3 PUSH3 0x303 JUMP JUMPDEST SWAP1 POP PUSH3 0x3B1 DUP3 DUP3 PUSH3 0x361 JUMP JUMPDEST SWAP2 SWAP1 POP JUMP JUMPDEST PUSH1 0x0 PUSH8 0xFFFFFFFFFFFFFFFF DUP3 GT ISZERO PUSH3 0x3D4 JUMPI PUSH3 0x3D3 PUSH3 0x332 JUMP JUMPDEST JUMPDEST PUSH3 0x3DF DUP3 PUSH3 0x321 JUMP JUMPDEST SWAP1 POP PUSH1 0x20 DUP2 ADD SWAP1 POP SWAP2 SWAP1 POP JUMP JUMPDEST PUSH1 0x0 JUMPDEST DUP4 DUP2 LT ISZERO PUSH3 0x40C JUMPI DUP1 DUP3 ADD MLOAD DUP2 DUP5 ADD MSTORE PUSH1 0x20 DUP2 ADD SWAP1 POP PUSH3 0x3EF JUMP JUMPDEST PUSH1 0x0 DUP5 DUP5 ADD MSTORE POP POP POP POP JUMP JUMPDEST PUSH1 0x0 PUSH3 0x42F PUSH3 0x429 DUP5 PUSH3 0x3B6 JUMP JUMPDEST PUSH3 0x397 JUMP JUMPDEST SWAP1 POP DUP3 DUP2 MSTORE PUSH1 0x20 DUP2 ADD DUP5 DUP5 DUP5 ADD GT ISZERO PUSH3 0x44E JUMPI PUSH3 0x44D PUSH3 0x31C JUMP JUMPDEST JUMPDEST PUSH3 0x45B DUP5 DUP3 DUP6 PUSH3 0x3EC JUMP JUMPDEST POP SWAP4 SWAP3 POP POP POP JUMP JUMPDEST PUSH1 0x0 DUP3 PUSH1 0x1F DUP4 ADD SLT PUSH3 0x47B JUMPI PUSH3 0x47A PUSH3 0x317 JUMP JUMPDEST JUMPDEST DUP2 MLOAD PUSH3 0x48D DUP5 DUP3 PUSH1 0x20 DUP7 ADD PUSH3 0x418 JUMP JUMPDEST SWAP2 POP POP SWAP3 SWAP2 POP POP JUMP JUMPDEST PUSH1 0x0 PUSH1 0xFF DUP3 AND SWAP1 POP SWAP2 SWAP1 POP JUMP JUMPDEST PUSH3 0x4AE DUP2 PUSH3 0x496 JUMP JUMPDEST DUP2 EQ PUSH3 0x4BA JUMPI PUSH1 0x0 DUP1 REVERT JUMPDEST POP JUMP JUMPDEST PUSH1 0x0 DUP2 MLOAD SWAP1 POP PUSH3 0x4CE DUP2 PUSH3 0x4A3 JUMP JUMPDEST SWAP3 SWAP2 POP POP JUMP JUMPDEST PUSH1 0x0 DUP2 SWAP1 POP SWAP2 SWAP1 POP JUMP JUMPDEST PUSH3 0x4E9 DUP2 PUSH3 0x4D4 JUMP JUMPDEST DUP2 EQ PUSH3 0x4F5 JUMPI PUSH1 0x0 DUP1 REVERT JUMPDEST POP JUMP JUMPDEST PUSH1 0x0 DUP2 MLOAD SWAP1 POP PUSH3 0x509 DUP2 PUSH3 0x4DE JUMP JUMPDEST SWAP3 SWAP2 POP POP JUMP JUMPDEST PUSH1 0x0 DUP1 PUSH1 0x0 DUP1 PUSH1 0x0 PUSH1 0xA0 DUP7 DUP9 SUB SLT ISZERO PUSH3 0x52E JUMPI PUSH3 0x52D PUSH3 0x30D JUMP JUMPDEST JUMPDEST PUSH1 0x0 DUP7 ADD MLOAD PUSH8 0xFFFFFFFFFFFFFFFF DUP2 GT ISZERO PUSH3 0x54F JUMPI PUSH3 0x54E PUSH3 0x312 JUMP JUMPDEST JUMPDEST PUSH3 0x55D DUP9 DUP3 DUP10 ADD PUSH3 0x463 JUMP JUMPDEST SWAP6 POP POP PUSH1 0x20 DUP7 ADD MLOAD PUSH8 0xFFFFFFFFFFFFFFFF DUP2 GT ISZERO PUSH3 0x581 JUMPI PUSH3 0x580 PUSH3 0x312 JUMP JUMPDEST JUMPDEST PUSH3 0x58F DUP9 DUP3 DUP10 ADD PUSH3 0x463 JUMP JUMPDEST SWAP5 POP POP PUSH1 0x40 PUSH3 0x5A2 DUP9 DUP3 DUP10 ADD PUSH3 0x4BD JUMP JUMPDEST SWAP4 POP POP PUSH1 0x60 PUSH3 0x5B5 DUP9 DUP3 DUP10 ADD PUSH3 0x4F8 JUMP JUMPDEST SWAP3 POP POP PUSH1 0x80 PUSH3 0x5C8 DUP9 DUP3 DUP10 ADD PUSH3 0x4F8 JUMP JUMPDEST SWAP2 POP POP SWAP3 SWAP6 POP SWAP3 SWAP6 SWAP1 SWAP4 POP JUMP JUMPDEST PUSH1 0x0 DUP2 MLOAD SWAP1 POP SWAP2 SWAP1 POP JUMP JUMPDEST PUSH32 0x4E487B7100000000000000000000000000000000000000000000000000000000 PUSH1 0x0 MSTORE PUSH1 0x22 PUSH1 0x4 MSTORE PUSH1 0x24 PUSH1 0x0 REVERT JUMPDEST PUSH1 0x0 PUSH1 0x2 DUP3 DIV SWAP1 POP PUSH1 0x1 DUP3 AND DUP1 PUSH3 0x628 JUMPI PUSH1 0x7F DUP3 AND SWAP2 POP JUMPDEST PUSH1 0x20 DUP3 LT DUP2 SUB PUSH3 0x63E JUMPI PUSH3 0x63D PUSH3 0x5E0 JUMP JUMPDEST JUMPDEST POP SWAP2 SWAP1 POP JUMP JUMPDEST PUSH1 0x0 DUP2 SWAP1 POP DUP2 PUSH1 0x0 MSTORE PUSH1 0x20 PUSH1 0x0 KECCAK256 SWAP1 POP SWAP2 SWAP1 POP JUMP JUMPDEST PUSH1 0x0 PUSH1 0x20 PUSH1 0x1F DUP4 ADD DIV SWAP1 POP SWAP2 SWAP1 POP JUMP JUMPDEST PUSH1 0x0 DUP3 DUP3 SHL SWAP1 POP SWAP3 SWAP2 POP POP JUMP JUMPDEST PUSH1 0x0 PUSH1 0x8 DUP4 MUL PUSH3 0x6A8 PUSH32 0xFFFFFFFFFFFFFFFFFFFFFFFFFFFFFFFFFFFFFFFFFFFFFFFFFFFFFFFFFFFFFFFF DUP3 PUSH3 0x669 JUMP JUMPDEST PUSH3 0x6B4 DUP7 DUP4 PUSH3 0x669 JUMP JUMPDEST SWAP6 POP DUP1 NOT DUP5 AND SWAP4 POP DUP1 DUP7 AND DUP5 OR SWAP3 POP POP POP SWAP4 SWAP3 POP POP POP JUMP JUMPDEST PUSH1 0x0 DUP2 SWAP1 POP SWAP2 SWAP1 POP JUMP JUMPDEST PUSH1 0x0 PUSH3 0x6F7 PUSH3 0x6F1 PUSH3 0x6EB DUP5 PUSH3 0x4D4 JUMP JUMPDEST PUSH3 0x6CC JUMP JUMPDEST PUSH3 0x4D4 JUMP JUMPDEST SWAP1 POP SWAP2 SWAP1 POP JUMP JUMPDEST PUSH1 0x0 DUP2 SWAP1 POP SWAP2 SWAP1 POP JUMP JUMPDEST PUSH3 0x713 DUP4 PUSH3 0x6D6 JUMP JUMPDEST PUSH3 0x72B PUSH3 0x722 DUP3 PUSH3 0x6FE JUMP JUMPDEST DUP5 DUP5 SLOAD PUSH3 0x676 JUMP JUMPDEST DUP3 SSTORE POP POP POP POP JUMP JUMPDEST PUSH1 0x0 SWAP1 JUMP JUMPDEST PUSH3 0x742 PUSH3 0x733 JUMP JUMPDEST PUSH3 0x74F DUP2 DUP5 DUP5 PUSH3 0x708 JUMP JUMPDEST POP POP POP JUMP JUMPDEST JUMPDEST DUP2 DUP2 LT ISZERO PUSH3 0x777 JUMPI PUSH3 0x76B PUSH1 0x0 DUP3 PUSH3 0x738 JUMP JUMPDEST PUSH1 0x1 DUP2 ADD SWAP1 POP PUSH3 0x755 JUMP JUMPDEST POP POP JUMP JUMPDEST PUSH1 0x1F DUP3 GT ISZERO PUSH3 0x7C6 JUMPI PUSH3 0x790 DUP2 PUSH3 0x644 JUMP JUMPDEST PUSH3 0x79B DUP5 PUSH3 0x659 JUMP JUMPDEST DUP2 ADD PUSH1 0x20 DUP6 LT ISZERO PUSH3 0x7AB JUMPI DUP2 SWAP1 POP JUMPDEST PUSH3 0x7C3 PUSH3 0x7BA DUP6 PUSH3 0x659 JUMP JUMPDEST DUP4 ADD DUP3 PUSH3 0x754 JUMP JUMPDEST POP POP JUMPDEST POP POP POP JUMP JUMPDEST PUSH1 0x0 DUP3 DUP3 SHR SWAP1 POP SWAP3 SWAP2 POP POP JUMP JUMPDEST PUSH1 0x0 PUSH3 0x7EB PUSH1 0x0 NOT DUP5 PUSH1 0x8 MUL PUSH3 0x7CB JUMP JUMPDEST NOT DUP1 DUP4 AND SWAP2 POP POP SWAP3 SWAP2 POP POP JUMP JUMPDEST PUSH1 0x0 PUSH3 0x806 DUP4 DUP4 PUSH3 0x7D8 JUMP JUMPDEST SWAP2 POP DUP3 PUSH1 0x2 MUL DUP3 OR SWAP1 POP SWAP3 SWAP2 POP POP JUMP JUMPDEST PUSH3 0x821 DUP3 PUSH3 0x5D5 JUMP JUMPDEST PUSH8 0xFFFFFFFFFFFFFFFF DUP2 GT ISZERO PUSH3 0x83D JUMPI PUSH3 0x83C PUSH3 0x332 JUMP JUMPDEST JUMPDEST PUSH3 0x849 DUP3 SLOAD PUSH3 0x60F JUMP JUMPDEST PUSH3 0x856 DUP3 DUP3 DUP6 PUSH3 0x77B JUMP JUMPDEST PUSH1 0x0 PUSH1 0x20 SWAP1 POP PUSH1 0x1F DUP4 GT PUSH1 0x1 DUP2 EQ PUSH3 0x88E JUMPI PUSH1 0x0 DUP5 ISZERO PUSH3 0x879 JUMPI DUP3 DUP8 ADD MLOAD SWAP1 POP JUMPDEST PUSH3 0x885 DUP6 DUP3 PUSH3 0x7F8 JUMP JUMPDEST DUP7 SSTORE POP PUSH3 0x8F5 JUMP JUMPDEST PUSH1 0x1F NOT DUP5 AND PUSH3 0x89E DUP7 PUSH3 0x644 JUMP JUMPDEST PUSH1 0x0 JUMPDEST DUP3 DUP2 LT ISZERO PUSH3 0x8C8 JUMPI DUP5 DUP10 ADD MLOAD DUP3 SSTORE PUSH1 0x1 DUP3 ADD SWAP2 POP PUSH1 0x20 DUP6 ADD SWAP5 POP PUSH1 0x20 DUP2 ADD SWAP1 POP PUSH3 0x8A1 JUMP JUMPDEST DUP7 DUP4 LT ISZERO PUSH3 0x8E8 JUMPI DUP5 DUP10 ADD MLOAD PUSH3 0x8E4 PUSH1 0x1F DUP10 AND DUP3 PUSH3 0x7D8 JUMP JUMPDEST DUP4 SSTORE POP JUMPDEST PUSH1 0x1 PUSH1 0x2 DUP9 MUL ADD DUP9 SSTORE POP POP POP JUMPDEST POP POP POP POP POP POP JUMP JUMPDEST PUSH1 0x0 DUP3 DUP3 MSTORE PUSH1 0x20 DUP3 ADD SWAP1 POP SWAP3 SWAP2 POP POP JUMP JUMPDEST PUSH32 0x45524332303A206D696E7420746F20746865207A65726F206164647265737300 PUSH1 0x0 DUP3 ADD MSTORE POP JUMP JUMPDEST PUSH1 0x0 PUSH3 0x946 PUSH1 0x1F DUP4 PUSH3 0x8FD JUMP JUMPDEST SWAP2 POP PUSH3 0x953 DUP3 PUSH3 0x90E JUMP JUMPDEST PUSH1 0x20 DUP3 ADD SWAP1 POP SWAP2 SWAP1 POP JUMP JUMPDEST PUSH1 0x0 PUSH1 0x20 DUP3 ADD SWAP1 POP DUP2 DUP2 SUB PUSH1 0x0 DUP4 ADD MSTORE PUSH3 0x979 DUP2 PUSH3 0x937 JUMP JUMPDEST SWAP1 POP SWAP2 SWAP1 POP JUMP JUMPDEST PUSH32 0x4E487B7100000000000000000000000000000000000000000000000000000000 PUSH1 0x0 MSTORE PUSH1 0x11 PUSH1 0x4 MSTORE PUSH1 0x24 PUSH1 0x0 REVERT JUMPDEST PUSH1 0x0 PUSH3 0x9BC DUP3 PUSH3 0x4D4 JUMP JUMPDEST SWAP2 POP PUSH3 0x9C9 DUP4 PUSH3 0x4D4 JUMP JUMPDEST SWAP3 POP DUP3 DUP3 ADD SWAP1 POP DUP1 DUP3 GT ISZERO PUSH3 0x9E4 JUMPI PUSH3 0x9E3 PUSH3 0x980 JUMP JUMPDEST JUMPDEST SWAP3 SWAP2 POP POP JUMP JUMPDEST PUSH3 0x9F5 DUP2 PUSH3 0x4D4 JUMP JUMPDEST DUP3 MSTORE POP POP JUMP JUMPDEST PUSH1 0x0 PUSH1 0x20 DUP3 ADD SWAP1 POP PUSH3 0xA12 PUSH1 0x0 DUP4 ADD DUP5 PUSH3 0x9EA JUMP JUMPDEST SWAP3 SWAP2 POP POP JUMP JUMPDEST PUSH2 0x1BAA DUP1 PUSH3 0xA28 PUSH1 0x0 CODECOPY PUSH1 0x0 RETURN INVALID PUSH1 0x80 PUSH1 0x40 MSTORE CALLVALUE DUP1 ISZERO PUSH2 0x10 JUMPI PUSH1 0x0 DUP1 REVERT JUMPDEST POP PUSH1 0x4 CALLDATASIZE LT PUSH2 0x121 JUMPI PUSH1 0x0 CALLDATALOAD PUSH1 0xE0 SHR DUP1 PUSH4 0x31AC9920 GT PUSH2 0xAD JUMPI DUP1 PUSH4 0x95D89B41 GT PUSH2 0x71 JUMPI DUP1 PUSH4 0x95D89B41 EQ PUSH2 0x320 JUMPI DUP1 PUSH4 0xA457C2D7 EQ PUSH2 0x33E JUMPI DUP1 PUSH4 0xA9059CBB EQ PUSH2 0x36E JUMPI DUP1 PUSH4 0xDD62ED3E EQ PUSH2 0x39E JUMPI DUP1 PUSH4 0xF2FDE38B EQ PUSH2 0x3CE JUMPI PUSH2 0x121 JUMP JUMPDEST DUP1 PUSH4 0x31AC9920 EQ PUSH2 0x27C JUMPI DUP1 PUSH4 0x39509351 EQ PUSH2 0x298 JUMPI DUP1 PUSH4 0x70A08231 EQ PUSH2 0x2C8 JUMPI DUP1 PUSH4 0x715018A6 EQ PUSH2 0x2F8 JUMPI DUP1 PUSH4 0x8DA5CB5B EQ PUSH2 0x302 JUMPI PUSH2 0x121 JUMP JUMPDEST DUP1 PUSH4 0x18160DDD GT PUSH2 0xF4 JUMPI DUP1 PUSH4 0x18160DDD EQ PUSH2 0x1D4 JUMPI DUP1 PUSH4 0x1D143848 EQ PUSH2 0x1F2 JUMPI DUP1 PUSH4 0x23B872DD EQ PUSH2 0x210 JUMPI DUP1 PUSH4 0x24EC7590 EQ PUSH2 0x240 JUMPI DUP1 PUSH4 0x313CE567 EQ PUSH2 0x25E JUMPI PUSH2 0x121 JUMP JUMPDEST DUP1 PUSH4 0x6FDDE03 EQ PUSH2 0x126 JUMPI DUP1 PUSH4 0x95EA7B3 EQ PUSH2 0x144 JUMPI DUP1 PUSH4 0x127E8E4D EQ PUSH2 0x174 JUMPI DUP1 PUSH4 0x16279055 EQ PUSH2 0x1A4 JUMPI JUMPDEST PUSH1 0x0 DUP1 REVERT JUMPDEST PUSH2 0x12E PUSH2 0x3EA JUMP JUMPDEST PUSH1 0x40 MLOAD PUSH2 0x13B SWAP2 SWAP1 PUSH2 0x1154 JUMP JUMPDEST PUSH1 0x40 MLOAD DUP1 SWAP2 SUB SWAP1 RETURN JUMPDEST PUSH2 0x15E PUSH1 0x4 DUP1 CALLDATASIZE SUB DUP2 ADD SWAP1 PUSH2 0x159 SWAP2 SWAP1 PUSH2 0x120F JUMP JUMPDEST PUSH2 0x47C JUMP JUMPDEST PUSH1 0x40 MLOAD PUSH2 0x16B SWAP2 SWAP1 PUSH2 0x126A JUMP JUMPDEST PUSH1 0x40 MLOAD DUP1 SWAP2 SUB SWAP1 RETURN JUMPDEST PUSH2 0x18E PUSH1 0x4 DUP1 CALLDATASIZE SUB DUP2 ADD SWAP1 PUSH2 0x189 SWAP2 SWAP1 PUSH2 0x1285 JUMP JUMPDEST PUSH2 0x50B JUMP JUMPDEST PUSH1 0x40 MLOAD PUSH2 0x19B SWAP2 SWAP1 PUSH2 0x12C1 JUMP JUMPDEST PUSH1 0x40 MLOAD DUP1 SWAP2 SUB SWAP1 RETURN JUMPDEST PUSH2 0x1BE PUSH1 0x4 DUP1 CALLDATASIZE SUB DUP2 ADD SWAP1 PUSH2 0x1B9 SWAP2 SWAP1 PUSH2 0x12DC JUMP JUMPDEST PUSH2 0x53D JUMP JUMPDEST PUSH1 0x40 MLOAD PUSH2 0x1CB SWAP2 SWAP1 PUSH2 0x126A JUMP JUMPDEST PUSH1 0x40 MLOAD DUP1 SWAP2 SUB SWAP1 RETURN JUMPDEST PUSH2 0x1DC PUSH2 0x560 JUMP JUMPDEST PUSH1 0x40 MLOAD PUSH2 0x1E9 SWAP2 SWAP1 PUSH2 0x12C1 JUMP JUMPDEST PUSH1 0x40 MLOAD DUP1 SWAP2 SUB SWAP1 RETURN JUMPDEST PUSH2 0x1FA PUSH2 0x56A JUMP JUMPDEST PUSH1 0x40 MLOAD PUSH2 0x207 SWAP2 SWAP1 PUSH2 0x1318 JUMP JUMPDEST PUSH1 0x40 MLOAD DUP1 SWAP2 SUB SWAP1 RETURN JUMPDEST PUSH2 0x22A PUSH1 0x4 DUP1 CALLDATASIZE SUB DUP2 ADD SWAP1 PUSH2 0x225 SWAP2 SWAP1 PUSH2 0x1333 JUMP JUMPDEST PUSH2 0x579 JUMP JUMPDEST PUSH1 0x40 MLOAD PUSH2 0x237 SWAP2 SWAP1 PUSH2 0x126A JUMP JUMPDEST PUSH1 0x40 MLOAD DUP1 SWAP2 SUB SWAP1 RETURN JUMPDEST PUSH2 0x248 PUSH2 0x692 JUMP JUMPDEST PUSH1 0x40 MLOAD PUSH2 0x255 SWAP2 SWAP1 PUSH2 0x12C1 JUMP JUMPDEST PUSH1 0x40 MLOAD DUP1 SWAP2 SUB SWAP1 RETURN JUMPDEST PUSH2 0x266 PUSH2 0x69C JUMP JUMPDEST PUSH1 0x40 MLOAD PUSH2 0x273 SWAP2 SWAP1 PUSH2 0x13A2 JUMP JUMPDEST PUSH1 0x40 MLOAD DUP1 SWAP2 SUB SWAP1 RETURN JUMPDEST PUSH2 0x296 PUSH1 0x4 DUP1 CALLDATASIZE SUB DUP2 ADD SWAP1 PUSH2 0x291 SWAP2 SWAP1 PUSH2 0x1285 JUMP JUMPDEST PUSH2 0x6B3 JUMP JUMPDEST STOP JUMPDEST PUSH2 0x2B2 PUSH1 0x4 DUP1 CALLDATASIZE SUB DUP2 ADD SWAP1 PUSH2 0x2AD SWAP2 SWAP1 PUSH2 0x120F JUMP JUMPDEST PUSH2 0x6C5 JUMP JUMPDEST PUSH1 0x40 MLOAD PUSH2 0x2BF SWAP2 SWAP1 PUSH2 0x126A JUMP JUMPDEST PUSH1 0x40 MLOAD DUP1 SWAP2 SUB SWAP1 RETURN JUMPDEST PUSH2 0x2E2 PUSH1 0x4 DUP1 CALLDATASIZE SUB DUP2 ADD SWAP1 PUSH2 0x2DD SWAP2 SWAP1 PUSH2 0x12DC JUMP JUMPDEST PUSH2 0x6FC JUMP JUMPDEST PUSH1 0x40 MLOAD PUSH2 0x2EF SWAP2 SWAP1 PUSH2 0x12C1 JUMP JUMPDEST PUSH1 0x40 MLOAD DUP1 SWAP2 SUB SWAP1 RETURN JUMPDEST PUSH2 0x300 PUSH2 0x744 JUMP JUMPDEST STOP JUMPDEST PUSH2 0x30A PUSH2 0x758 JUMP JUMPDEST PUSH1 0x40 MLOAD PUSH2 0x317 SWAP2 SWAP1 PUSH2 0x1318 JUMP JUMPDEST PUSH1 0x40 MLOAD DUP1 SWAP2 SUB SWAP1 RETURN JUMPDEST PUSH2 0x328 PUSH2 0x782 JUMP JUMPDEST PUSH1 0x40 MLOAD PUSH2 0x335 SWAP2 SWAP1 PUSH2 0x1154 JUMP JUMPDEST PUSH1 0x40 MLOAD DUP1 SWAP2 SUB SWAP1 RETURN JUMPDEST PUSH2 0x358 PUSH1 0x4 DUP1 CALLDATASIZE SUB DUP2 ADD SWAP1 PUSH2 0x353 SWAP2 SWAP1 PUSH2 0x120F JUMP JUMPDEST PUSH2 0x814 JUMP JUMPDEST PUSH1 0x40 MLOAD PUSH2 0x365 SWAP2 SWAP1 PUSH2 0x126A JUMP JUMPDEST PUSH1 0x40 MLOAD DUP1 SWAP2 SUB SWAP1 RETURN JUMPDEST PUSH2 0x388 PUSH1 0x4 DUP1 CALLDATASIZE SUB DUP2 ADD SWAP1 PUSH2 0x383 SWAP2 SWAP1 PUSH2 0x120F JUMP JUMPDEST PUSH2 0x88B JUMP JUMPDEST PUSH1 0x40 MLOAD PUSH2 0x395 SWAP2 SWAP1 PUSH2 0x126A JUMP JUMPDEST PUSH1 0x40 MLOAD DUP1 SWAP2 SUB SWAP1 RETURN JUMPDEST PUSH2 0x3B8 PUSH1 0x4 DUP1 CALLDATASIZE SUB DUP2 ADD SWAP1 PUSH2 0x3B3 SWAP2 SWAP1 PUSH2 0x13BD JUMP JUMPDEST PUSH2 0x931 JUMP JUMPDEST PUSH1 0x40 MLOAD PUSH2 0x3C5 SWAP2 SWAP1 PUSH2 0x12C1 JUMP JUMPDEST PUSH1 0x40 MLOAD DUP1 SWAP2 SUB SWAP1 RETURN JUMPDEST PUSH2 0x3E8 PUSH1 0x4 DUP1 CALLDATASIZE SUB DUP2 ADD SWAP1 PUSH2 0x3E3 SWAP2 SWAP1 PUSH2 0x12DC JUMP JUMPDEST PUSH2 0x9B8 JUMP JUMPDEST STOP JUMPDEST PUSH1 0x60 PUSH1 0x3 DUP1 SLOAD PUSH2 0x3F9 SWAP1 PUSH2 0x142C JUMP JUMPDEST DUP1 PUSH1 0x1F ADD PUSH1 0x20 DUP1 SWAP2 DIV MUL PUSH1 0x20 ADD PUSH1 0x40 MLOAD SWAP1 DUP2 ADD PUSH1 0x40 MSTORE DUP1 SWAP3 SWAP2 SWAP1 DUP2 DUP2 MSTORE PUSH1 0x20 ADD DUP3 DUP1 SLOAD PUSH2 0x425 SWAP1 PUSH2 0x142C JUMP JUMPDEST DUP1 ISZERO PUSH2 0x472 JUMPI DUP1 PUSH1 0x1F LT PUSH2 0x447 JUMPI PUSH2 0x100 DUP1 DUP4 SLOAD DIV MUL DUP4 MSTORE SWAP2 PUSH1 0x20 ADD SWAP2 PUSH2 0x472 JUMP JUMPDEST DUP3 ADD SWAP2 SWAP1 PUSH1 0x0 MSTORE PUSH1 0x20 PUSH1 0x0 KECCAK256 SWAP1 JUMPDEST DUP2 SLOAD DUP2 MSTORE SWAP1 PUSH1 0x1 ADD SWAP1 PUSH1 0x20 ADD DUP1 DUP4 GT PUSH2 0x455 JUMPI DUP3 SWAP1 SUB PUSH1 0x1F AND DUP3 ADD SWAP2 JUMPDEST POP POP POP POP POP SWAP1 POP SWAP1 JUMP JUMPDEST PUSH1 0x0 DUP1 PUSH2 0x489 PUSH1 0x0 PUSH2 0x50B JUMP JUMPDEST SWAP1 POP DUP1 PUSH2 0x49C PUSH2 0x497 PUSH2 0xA3B JUMP JUMPDEST PUSH2 0x6FC JUMP JUMPDEST LT ISZERO PUSH2 0x4DD JUMPI PUSH1 0x40 MLOAD PUSH32 0x8C379A000000000000000000000000000000000000000000000000000000000 DUP2 MSTORE PUSH1 0x4 ADD PUSH2 0x4D4 SWAP1 PUSH2 0x14CF JUMP JUMPDEST PUSH1 0x40 MLOAD DUP1 SWAP2 SUB SWAP1 REVERT JUMPDEST PUSH2 0x4EE PUSH2 0x4E8 PUSH2 0xA3B JUMP JUMPDEST DUP3 PUSH2 0xA43 JUMP JUMPDEST PUSH2 0x500 PUSH2 0x4F9 PUSH2 0xA3B JUMP JUMPDEST DUP6 DUP6 PUSH2 0xAF5 JUMP JUMPDEST PUSH1 0x1 SWAP2 POP POP SWAP3 SWAP2 POP POP JUMP JUMPDEST PUSH1 0x0 PUSH2 0x536 PUSH1 0x6 SLOAD PUSH2 0x528 PUSH2 0x3E8 DUP6 PUSH2 0xCBE SWAP1 SWAP2 SWAP1 PUSH4 0xFFFFFFFF AND JUMP JUMPDEST PUSH2 0xCD4 SWAP1 SWAP2 SWAP1 PUSH4 0xFFFFFFFF AND JUMP JUMPDEST SWAP1 POP SWAP2 SWAP1 POP JUMP JUMPDEST PUSH1 0x0 DUP1 DUP3 PUSH20 0xFFFFFFFFFFFFFFFFFFFFFFFFFFFFFFFFFFFFFFFF AND EXTCODESIZE GT SWAP1 POP SWAP2 SWAP1 POP JUMP JUMPDEST PUSH1 0x0 PUSH1 0x2 SLOAD SWAP1 POP SWAP1 JUMP JUMPDEST PUSH1 0x0 PUSH2 0x574 PUSH2 0x758 JUMP JUMPDEST SWAP1 POP SWAP1 JUMP JUMPDEST PUSH1 0x0 DUP1 PUSH2 0x585 DUP4 PUSH2 0x50B JUMP JUMPDEST SWAP1 POP PUSH1 0x0 PUSH2 0x59C DUP3 DUP6 PUSH2 0xCD4 SWAP1 SWAP2 SWAP1 PUSH4 0xFFFFFFFF AND JUMP JUMPDEST SWAP1 POP DUP1 PUSH2 0x5B0 DUP8 PUSH2 0x5AB PUSH2 0xA3B JUMP JUMPDEST PUSH2 0x931 JUMP JUMPDEST LT ISZERO PUSH2 0x5F1 JUMPI PUSH1 0x40 MLOAD PUSH32 0x8C379A000000000000000000000000000000000000000000000000000000000 DUP2 MSTORE PUSH1 0x4 ADD PUSH2 0x5E8 SWAP1 PUSH2 0x1561 JUMP JUMPDEST PUSH1 0x40 MLOAD DUP1 SWAP2 SUB SWAP1 REVERT JUMPDEST DUP1 PUSH2 0x5FB DUP8 PUSH2 0x6FC JUMP JUMPDEST LT ISZERO PUSH2 0x63C JUMPI PUSH1 0x40 MLOAD PUSH32 0x8C379A000000000000000000000000000000000000000000000000000000000 DUP2 MSTORE PUSH1 0x4 ADD PUSH2 0x633 SWAP1 PUSH2 0x15F3 JUMP JUMPDEST PUSH1 0x40 MLOAD DUP1 SWAP2 SUB SWAP1 REVERT JUMPDEST PUSH2 0x646 DUP7 DUP4 PUSH2 0xA43 JUMP JUMPDEST PUSH2 0x651 DUP7 DUP7 DUP7 PUSH2 0xCEA JUMP JUMPDEST PUSH2 0x685 DUP7 PUSH2 0x65D PUSH2 0xA3B JUMP JUMPDEST PUSH2 0x680 DUP5 PUSH2 0x672 DUP12 PUSH2 0x66D PUSH2 0xA3B JUMP JUMPDEST PUSH2 0x931 JUMP JUMPDEST PUSH2 0xF60 SWAP1 SWAP2 SWAP1 PUSH4 0xFFFFFFFF AND JUMP JUMPDEST PUSH2 0xAF5 JUMP JUMPDEST PUSH1 0x1 SWAP3 POP POP POP SWAP4 SWAP3 POP POP POP JUMP JUMPDEST PUSH1 0x0 PUSH1 0x6 SLOAD SWAP1 POP SWAP1 JUMP JUMPDEST PUSH1 0x0 PUSH1 0x7 PUSH1 0x0 SWAP1 SLOAD SWAP1 PUSH2 0x100 EXP SWAP1 DIV PUSH1 0xFF AND SWAP1 POP SWAP1 JUMP JUMPDEST PUSH2 0x6BB PUSH2 0xF76 JUMP JUMPDEST DUP1 PUSH1 0x6 DUP2 SWAP1 SSTORE POP POP JUMP JUMPDEST PUSH1 0x0 DUP1 PUSH2 0x6D0 PUSH2 0xA3B JUMP JUMPDEST SWAP1 POP PUSH2 0x6F1 DUP2 DUP6 DUP6 PUSH2 0x6E2 DUP6 DUP10 PUSH2 0x931 JUMP JUMPDEST PUSH2 0x6EC SWAP2 SWAP1 PUSH2 0x1642 JUMP JUMPDEST PUSH2 0xAF5 JUMP JUMPDEST PUSH1 0x1 SWAP2 POP POP SWAP3 SWAP2 POP POP JUMP JUMPDEST PUSH1 0x0 DUP1 PUSH1 0x0 DUP4 PUSH20 0xFFFFFFFFFFFFFFFFFFFFFFFFFFFFFFFFFFFFFFFF AND PUSH20 0xFFFFFFFFFFFFFFFFFFFFFFFFFFFFFFFFFFFFFFFF AND DUP2 MSTORE PUSH1 0x20 ADD SWAP1 DUP2 MSTORE PUSH1 0x20 ADD PUSH1 0x0 KECCAK256 SLOAD SWAP1 POP SWAP2 SWAP1 POP JUMP JUMPDEST PUSH2 0x74C PUSH2 0xF76 JUMP JUMPDEST PUSH2 0x756 PUSH1 0x0 PUSH2 0xFF4 JUMP JUMPDEST JUMP JUMPDEST PUSH1 0x0 PUSH1 0x5 PUSH1 0x0 SWAP1 SLOAD SWAP1 PUSH2 0x100 EXP SWAP1 DIV PUSH20 0xFFFFFFFFFFFFFFFFFFFFFFFFFFFFFFFFFFFFFFFF AND SWAP1 POP SWAP1 JUMP JUMPDEST PUSH1 0x60 PUSH1 0x4 DUP1 SLOAD PUSH2 0x791 SWAP1 PUSH2 0x142C JUMP JUMPDEST DUP1 PUSH1 0x1F ADD PUSH1 0x20 DUP1 SWAP2 DIV MUL PUSH1 0x20 ADD PUSH1 0x40 MLOAD SWAP1 DUP2 ADD PUSH1 0x40 MSTORE DUP1 SWAP3 SWAP2 SWAP1 DUP2 DUP2 MSTORE PUSH1 0x20 ADD DUP3 DUP1 SLOAD PUSH2 0x7BD SWAP1 PUSH2 0x142C JUMP JUMPDEST DUP1 ISZERO PUSH2 0x80A JUMPI DUP1 PUSH1 0x1F LT PUSH2 0x7DF JUMPI PUSH2 0x100 DUP1 DUP4 SLOAD DIV MUL DUP4 MSTORE SWAP2 PUSH1 0x20 ADD SWAP2 PUSH2 0x80A JUMP JUMPDEST DUP3 ADD SWAP2 SWAP1 PUSH1 0x0 MSTORE PUSH1 0x20 PUSH1 0x0 KECCAK256 SWAP1 JUMPDEST DUP2 SLOAD DUP2 MSTORE SWAP1 PUSH1 0x1 ADD SWAP1 PUSH1 0x20 ADD DUP1 DUP4 GT PUSH2 0x7ED JUMPI DUP3 SWAP1 SUB PUSH1 0x1F AND DUP3 ADD SWAP2 JUMPDEST POP POP POP POP POP SWAP1 POP SWAP1 JUMP JUMPDEST PUSH1 0x0 DUP1 PUSH2 0x81F PUSH2 0xA3B JUMP JUMPDEST SWAP1 POP PUSH1 0x0 PUSH2 0x82D DUP3 DUP7 PUSH2 0x931 JUMP JUMPDEST SWAP1 POP DUP4 DUP2 LT ISZERO PUSH2 0x872 JUMPI PUSH1 0x40 MLOAD PUSH32 0x8C379A000000000000000000000000000000000000000000000000000000000 DUP2 MSTORE PUSH1 0x4 ADD PUSH2 0x869 SWAP1 PUSH2 0x16E8 JUMP JUMPDEST PUSH1 0x40 MLOAD DUP1 SWAP2 SUB SWAP1 REVERT JUMPDEST PUSH2 0x87F DUP3 DUP7 DUP7 DUP5 SUB PUSH2 0xAF5 JUMP JUMPDEST PUSH1 0x1 SWAP3 POP POP POP SWAP3 SWAP2 POP POP JUMP JUMPDEST PUSH1 0x0 DUP1 PUSH2 0x897 DUP4 PUSH2 0x50B JUMP JUMPDEST SWAP1 POP PUSH1 0x0 PUSH2 0x8AE DUP3 DUP6 PUSH2 0xCD4 SWAP1 SWAP2 SWAP1 PUSH4 0xFFFFFFFF AND JUMP JUMPDEST SWAP1 POP DUP1 PUSH2 0x8C1 PUSH2 0x8BC PUSH2 0xA3B JUMP JUMPDEST PUSH2 0x6FC JUMP JUMPDEST LT ISZERO PUSH2 0x902 JUMPI PUSH1 0x40 MLOAD PUSH32 0x8C379A000000000000000000000000000000000000000000000000000000000 DUP2 MSTORE PUSH1 0x4 ADD PUSH2 0x8F9 SWAP1 PUSH2 0x15F3 JUMP JUMPDEST PUSH1 0x40 MLOAD DUP1 SWAP2 SUB SWAP1 REVERT JUMPDEST PUSH2 0x913 PUSH2 0x90D PUSH2 0xA3B JUMP JUMPDEST DUP4 PUSH2 0xA43 JUMP JUMPDEST PUSH2 0x925 PUSH2 0x91E PUSH2 0xA3B JUMP JUMPDEST DUP7 DUP7 PUSH2 0xCEA JUMP JUMPDEST PUSH1 0x1 SWAP3 POP POP POP SWAP3 SWAP2 POP POP JUMP JUMPDEST PUSH1 0x0 PUSH1 0x1 PUSH1 0x0 DUP5 PUSH20 0xFFFFFFFFFFFFFFFFFFFFFFFFFFFFFFFFFFFFFFFF AND PUSH20 0xFFFFFFFFFFFFFFFFFFFFFFFFFFFFFFFFFFFFFFFF AND DUP2 MSTORE PUSH1 0x20 ADD SWAP1 DUP2 MSTORE PUSH1 0x20 ADD PUSH1 0x0 KECCAK256 PUSH1 0x0 DUP4 PUSH20 0xFFFFFFFFFFFFFFFFFFFFFFFFFFFFFFFFFFFFFFFF AND PUSH20 0xFFFFFFFFFFFFFFFFFFFFFFFFFFFFFFFFFFFFFFFF AND DUP2 MSTORE PUSH1 0x20 ADD SWAP1 DUP2 MSTORE PUSH1 0x20 ADD PUSH1 0x0 KECCAK256 SLOAD SWAP1 POP SWAP3 SWAP2 POP POP JUMP JUMPDEST PUSH2 0x9C0 PUSH2 0xF76 JUMP JUMPDEST PUSH1 0x0 PUSH20 0xFFFFFFFFFFFFFFFFFFFFFFFFFFFFFFFFFFFFFFFF AND DUP2 PUSH20 0xFFFFFFFFFFFFFFFFFFFFFFFFFFFFFFFFFFFFFFFF AND SUB PUSH2 0xA2F JUMPI PUSH1 0x40 MLOAD PUSH32 0x8C379A000000000000000000000000000000000000000000000000000000000 DUP2 MSTORE PUSH1 0x4 ADD PUSH2 0xA26 SWAP1 PUSH2 0x177A JUMP JUMPDEST PUSH1 0x40 MLOAD DUP1 SWAP2 SUB SWAP1 REVERT JUMPDEST PUSH2 0xA38 DUP2 PUSH2 0xFF4 JUMP JUMPDEST POP JUMP JUMPDEST PUSH1 0x0 CALLER SWAP1 POP SWAP1 JUMP JUMPDEST PUSH2 0xA4C DUP3 PUSH2 0x53D JUMP JUMPDEST PUSH2 0xAF1 JUMPI PUSH1 0x0 DUP2 GT ISZERO PUSH2 0xAF0 JUMPI PUSH2 0xA6B DUP3 PUSH2 0xA65 PUSH2 0x758 JUMP JUMPDEST DUP4 PUSH2 0xCEA JUMP JUMPDEST PUSH2 0xA73 PUSH2 0x758 JUMP JUMPDEST PUSH20 0xFFFFFFFFFFFFFFFFFFFFFFFFFFFFFFFFFFFFFFFF AND PUSH1 0x0 PUSH20 0xFFFFFFFFFFFFFFFFFFFFFFFFFFFFFFFFFFFFFFFF AND DUP4 PUSH20 0xFFFFFFFFFFFFFFFFFFFFFFFFFFFFFFFFFFFFFFFF AND PUSH32 0xFCF5B3276434181E3C48BD3FE569B8939808F11E845D4B963693B9D7DBD6DD99 DUP5 PUSH1 0x40 MLOAD PUSH2 0xAE7 SWAP2 SWAP1 PUSH2 0x12C1 JUMP JUMPDEST PUSH1 0x40 MLOAD DUP1 SWAP2 SUB SWAP1 LOG4 JUMPDEST JUMPDEST POP POP JUMP JUMPDEST PUSH1 0x0 PUSH20 0xFFFFFFFFFFFFFFFFFFFFFFFFFFFFFFFFFFFFFFFF AND DUP4 PUSH20 0xFFFFFFFFFFFFFFFFFFFFFFFFFFFFFFFFFFFFFFFF AND SUB PUSH2 0xB64 JUMPI PUSH1 0x40 MLOAD PUSH32 0x8C379A000000000000000000000000000000000000000000000000000000000 DUP2 MSTORE PUSH1 0x4 ADD PUSH2 0xB5B SWAP1 PUSH2 0x180C JUMP JUMPDEST PUSH1 0x40 MLOAD DUP1 SWAP2 SUB SWAP1 REVERT JUMPDEST PUSH1 0x0 PUSH20 0xFFFFFFFFFFFFFFFFFFFFFFFFFFFFFFFFFFFFFFFF AND DUP3 PUSH20 0xFFFFFFFFFFFFFFFFFFFFFFFFFFFFFFFFFFFFFFFF AND SUB PUSH2 0xBD3 JUMPI PUSH1 0x40 MLOAD PUSH32 0x8C379A000000000000000000000000000000000000000000000000000000000 DUP2 MSTORE PUSH1 0x4 ADD PUSH2 0xBCA SWAP1 PUSH2 0x189E JUMP JUMPDEST PUSH1 0x40 MLOAD DUP1 SWAP2 SUB SWAP1 REVERT JUMPDEST DUP1 PUSH1 0x1 PUSH1 0x0 DUP6 PUSH20 0xFFFFFFFFFFFFFFFFFFFFFFFFFFFFFFFFFFFFFFFF AND PUSH20 0xFFFFFFFFFFFFFFFFFFFFFFFFFFFFFFFFFFFFFFFF AND DUP2 MSTORE PUSH1 0x20 ADD SWAP1 DUP2 MSTORE PUSH1 0x20 ADD PUSH1 0x0 KECCAK256 PUSH1 0x0 DUP5 PUSH20 0xFFFFFFFFFFFFFFFFFFFFFFFFFFFFFFFFFFFFFFFF AND PUSH20 0xFFFFFFFFFFFFFFFFFFFFFFFFFFFFFFFFFFFFFFFF AND DUP2 MSTORE PUSH1 0x20 ADD SWAP1 DUP2 MSTORE PUSH1 0x20 ADD PUSH1 0x0 KECCAK256 DUP2 SWAP1 SSTORE POP DUP2 PUSH20 0xFFFFFFFFFFFFFFFFFFFFFFFFFFFFFFFFFFFFFFFF AND DUP4 PUSH20 0xFFFFFFFFFFFFFFFFFFFFFFFFFFFFFFFFFFFFFFFF AND PUSH32 0x8C5BE1E5EBEC7D5BD14F71427D1E84F3DD0314C0F7B2291E5B200AC8C7C3B925 DUP4 PUSH1 0x40 MLOAD PUSH2 0xCB1 SWAP2 SWAP1 PUSH2 0x12C1 JUMP JUMPDEST PUSH1 0x40 MLOAD DUP1 SWAP2 SUB SWAP1 LOG3 POP POP POP JUMP JUMPDEST PUSH1 0x0 DUP2 DUP4 PUSH2 0xCCC SWAP2 SWAP1 PUSH2 0x18ED JUMP JUMPDEST SWAP1 POP SWAP3 SWAP2 POP POP JUMP JUMPDEST PUSH1 0x0 DUP2 DUP4 PUSH2 0xCE2 SWAP2 SWAP1 PUSH2 0x1642 JUMP JUMPDEST SWAP1 POP SWAP3 SWAP2 POP POP JUMP JUMPDEST PUSH1 0x0 PUSH20 0xFFFFFFFFFFFFFFFFFFFFFFFFFFFFFFFFFFFFFFFF AND DUP4 PUSH20 0xFFFFFFFFFFFFFFFFFFFFFFFFFFFFFFFFFFFFFFFF AND SUB PUSH2 0xD59 JUMPI PUSH1 0x40 MLOAD PUSH32 0x8C379A000000000000000000000000000000000000000000000000000000000 DUP2 MSTORE PUSH1 0x4 ADD PUSH2 0xD50 SWAP1 PUSH2 0x1990 JUMP JUMPDEST PUSH1 0x40 MLOAD DUP1 SWAP2 SUB SWAP1 REVERT JUMPDEST PUSH1 0x0 PUSH20 0xFFFFFFFFFFFFFFFFFFFFFFFFFFFFFFFFFFFFFFFF AND DUP3 PUSH20 0xFFFFFFFFFFFFFFFFFFFFFFFFFFFFFFFFFFFFFFFF AND SUB PUSH2 0xDC8 JUMPI PUSH1 0x40 MLOAD PUSH32 0x8C379A000000000000000000000000000000000000000000000000000000000 DUP2 MSTORE PUSH1 0x4 ADD PUSH2 0xDBF SWAP1 PUSH2 0x1A22 JUMP JUMPDEST PUSH1 0x40 MLOAD DUP1 SWAP2 SUB SWAP1 REVERT JUMPDEST PUSH2 0xDD3 DUP4 DUP4 DUP4 PUSH2 0x10BA JUMP JUMPDEST PUSH1 0x0 DUP1 PUSH1 0x0 DUP6 PUSH20 0xFFFFFFFFFFFFFFFFFFFFFFFFFFFFFFFFFFFFFFFF AND PUSH20 0xFFFFFFFFFFFFFFFFFFFFFFFFFFFFFFFFFFFFFFFF AND DUP2 MSTORE PUSH1 0x20 ADD SWAP1 DUP2 MSTORE PUSH1 0x20 ADD PUSH1 0x0 KECCAK256 SLOAD SWAP1 POP DUP2 DUP2 LT ISZERO PUSH2 0xE59 JUMPI PUSH1 0x40 MLOAD PUSH32 0x8C379A000000000000000000000000000000000000000000000000000000000 DUP2 MSTORE PUSH1 0x4 ADD PUSH2 0xE50 SWAP1 PUSH2 0x1AB4 JUMP JUMPDEST PUSH1 0x40 MLOAD DUP1 SWAP2 SUB SWAP1 REVERT JUMPDEST DUP2 DUP2 SUB PUSH1 0x0 DUP1 DUP7 PUSH20 0xFFFFFFFFFFFFFFFFFFFFFFFFFFFFFFFFFFFFFFFF AND PUSH20 0xFFFFFFFFFFFFFFFFFFFFFFFFFFFFFFFFFFFFFFFF AND DUP2 MSTORE PUSH1 0x20 ADD SWAP1 DUP2 MSTORE PUSH1 0x20 ADD PUSH1 0x0 KECCAK256 DUP2 SWAP1 SSTORE POP DUP2 PUSH1 0x0 DUP1 DUP6 PUSH20 0xFFFFFFFFFFFFFFFFFFFFFFFFFFFFFFFFFFFFFFFF AND PUSH20 0xFFFFFFFFFFFFFFFFFFFFFFFFFFFFFFFFFFFFFFFF AND DUP2 MSTORE PUSH1 0x20 ADD SWAP1 DUP2 MSTORE PUSH1 0x20 ADD PUSH1 0x0 KECCAK256 PUSH1 0x0 DUP3 DUP3 SLOAD ADD SWAP3 POP POP DUP2 SWAP1 SSTORE POP DUP3 PUSH20 0xFFFFFFFFFFFFFFFFFFFFFFFFFFFFFFFFFFFFFFFF AND DUP5 PUSH20 0xFFFFFFFFFFFFFFFFFFFFFFFFFFFFFFFFFFFFFFFF AND PUSH32 0xDDF252AD1BE2C89B69C2B068FC378DAA952BA7F163C4A11628F55A4DF523B3EF DUP5 PUSH1 0x40 MLOAD PUSH2 0xF47 SWAP2 SWAP1 PUSH2 0x12C1 JUMP JUMPDEST PUSH1 0x40 MLOAD DUP1 SWAP2 SUB SWAP1 LOG3 PUSH2 0xF5A DUP5 DUP5 DUP5 PUSH2 0x10BF JUMP JUMPDEST POP POP POP POP JUMP JUMPDEST PUSH1 0x0 DUP2 DUP4 PUSH2 0xF6E SWAP2 SWAP1 PUSH2 0x1AD4 JUMP JUMPDEST SWAP1 POP SWAP3 SWAP2 POP POP JUMP JUMPDEST PUSH2 0xF7E PUSH2 0xA3B JUMP JUMPDEST PUSH20 0xFFFFFFFFFFFFFFFFFFFFFFFFFFFFFFFFFFFFFFFF AND PUSH2 0xF9C PUSH2 0x758 JUMP JUMPDEST PUSH20 0xFFFFFFFFFFFFFFFFFFFFFFFFFFFFFFFFFFFFFFFF AND EQ PUSH2 0xFF2 JUMPI PUSH1 0x40 MLOAD PUSH32 0x8C379A000000000000000000000000000000000000000000000000000000000 DUP2 MSTORE PUSH1 0x4 ADD PUSH2 0xFE9 SWAP1 PUSH2 0x1B54 JUMP JUMPDEST PUSH1 0x40 MLOAD DUP1 SWAP2 SUB SWAP1 REVERT JUMPDEST JUMP JUMPDEST PUSH1 0x0 PUSH1 0x5 PUSH1 0x0 SWAP1 SLOAD SWAP1 PUSH2 0x100 EXP SWAP1 DIV PUSH20 0xFFFFFFFFFFFFFFFFFFFFFFFFFFFFFFFFFFFFFFFF AND SWAP1 POP DUP2 PUSH1 0x5 PUSH1 0x0 PUSH2 0x100 EXP DUP2 SLOAD DUP2 PUSH20 0xFFFFFFFFFFFFFFFFFFFFFFFFFFFFFFFFFFFFFFFF MUL NOT AND SWAP1 DUP4 PUSH20 0xFFFFFFFFFFFFFFFFFFFFFFFFFFFFFFFFFFFFFFFF AND MUL OR SWAP1 SSTORE POP DUP2 PUSH20 0xFFFFFFFFFFFFFFFFFFFFFFFFFFFFFFFFFFFFFFFF AND DUP2 PUSH20 0xFFFFFFFFFFFFFFFFFFFFFFFFFFFFFFFFFFFFFFFF AND PUSH32 0x8BE0079C531659141344CD1FD0A4F28419497F9722A3DAAFE3B4186F6B6457E0 PUSH1 0x40 MLOAD PUSH1 0x40 MLOAD DUP1 SWAP2 SUB SWAP1 LOG3 POP POP JUMP JUMPDEST POP POP POP JUMP JUMPDEST POP POP POP JUMP JUMPDEST PUSH1 0x0 DUP2 MLOAD SWAP1 POP SWAP2 SWAP1 POP JUMP JUMPDEST PUSH1 0x0 DUP3 DUP3 MSTORE PUSH1 0x20 DUP3 ADD SWAP1 POP SWAP3 SWAP2 POP POP JUMP JUMPDEST PUSH1 0x0 JUMPDEST DUP4 DUP2 LT ISZERO PUSH2 0x10FE JUMPI DUP1 DUP3 ADD MLOAD DUP2 DUP5 ADD MSTORE PUSH1 0x20 DUP2 ADD SWAP1 POP PUSH2 0x10E3 JUMP JUMPDEST PUSH1 0x0 DUP5 DUP5 ADD MSTORE POP POP POP POP JUMP JUMPDEST PUSH1 0x0 PUSH1 0x1F NOT PUSH1 0x1F DUP4 ADD AND SWAP1 POP SWAP2 SWAP1 POP JUMP JUMPDEST PUSH1 0x0 PUSH2 0x1126 DUP3 PUSH2 0x10C4 JUMP JUMPDEST PUSH2 0x1130 DUP2 DUP6 PUSH2 0x10CF JUMP JUMPDEST SWAP4 POP PUSH2 0x1140 DUP2 DUP6 PUSH1 0x20 DUP7 ADD PUSH2 0x10E0 JUMP JUMPDEST PUSH2 0x1149 DUP2 PUSH2 0x110A JUMP JUMPDEST DUP5 ADD SWAP2 POP POP SWAP3 SWAP2 POP POP JUMP JUMPDEST PUSH1 0x0 PUSH1 0x20 DUP3 ADD SWAP1 POP DUP2 DUP2 SUB PUSH1 0x0 DUP4 ADD MSTORE PUSH2 0x116E DUP2 DUP5 PUSH2 0x111B JUMP JUMPDEST SWAP1 POP SWAP3 SWAP2 POP POP JUMP JUMPDEST PUSH1 0x0 DUP1 REVERT JUMPDEST PUSH1 0x0 PUSH20 0xFFFFFFFFFFFFFFFFFFFFFFFFFFFFFFFFFFFFFFFF DUP3 AND SWAP1 POP SWAP2 SWAP1 POP JUMP JUMPDEST PUSH1 0x0 PUSH2 0x11A6 DUP3 PUSH2 0x117B JUMP JUMPDEST SWAP1 POP SWAP2 SWAP1 POP JUMP JUMPDEST PUSH2 0x11B6 DUP2 PUSH2 0x119B JUMP JUMPDEST DUP2 EQ PUSH2 0x11C1 JUMPI PUSH1 0x0 DUP1 REVERT JUMPDEST POP JUMP JUMPDEST PUSH1 0x0 DUP2 CALLDATALOAD SWAP1 POP PUSH2 0x11D3 DUP2 PUSH2 0x11AD JUMP JUMPDEST SWAP3 SWAP2 POP POP JUMP JUMPDEST PUSH1 0x0 DUP2 SWAP1 POP SWAP2 SWAP1 POP JUMP JUMPDEST PUSH2 0x11EC DUP2 PUSH2 0x11D9 JUMP JUMPDEST DUP2 EQ PUSH2 0x11F7 JUMPI PUSH1 0x0 DUP1 REVERT JUMPDEST POP JUMP JUMPDEST PUSH1 0x0 DUP2 CALLDATALOAD SWAP1 POP PUSH2 0x1209 DUP2 PUSH2 0x11E3 JUMP JUMPDEST SWAP3 SWAP2 POP POP JUMP JUMPDEST PUSH1 0x0 DUP1 PUSH1 0x40 DUP4 DUP6 SUB SLT ISZERO PUSH2 0x1226 JUMPI PUSH2 0x1225 PUSH2 0x1176 JUMP JUMPDEST JUMPDEST PUSH1 0x0 PUSH2 0x1234 DUP6 DUP3 DUP7 ADD PUSH2 0x11C4 JUMP JUMPDEST SWAP3 POP POP PUSH1 0x20 PUSH2 0x1245 DUP6 DUP3 DUP7 ADD PUSH2 0x11FA JUMP JUMPDEST SWAP2 POP POP SWAP3 POP SWAP3 SWAP1 POP JUMP JUMPDEST PUSH1 0x0 DUP2 ISZERO ISZERO SWAP1 POP SWAP2 SWAP1 POP JUMP JUMPDEST PUSH2 0x1264 DUP2 PUSH2 0x124F JUMP JUMPDEST DUP3 MSTORE POP POP JUMP JUMPDEST PUSH1 0x0 PUSH1 0x20 DUP3 ADD SWAP1 POP PUSH2 0x127F PUSH1 0x0 DUP4 ADD DUP5 PUSH2 0x125B JUMP JUMPDEST SWAP3 SWAP2 POP POP JUMP JUMPDEST PUSH1 0x0 PUSH1 0x20 DUP3 DUP5 SUB SLT ISZERO PUSH2 0x129B JUMPI PUSH2 0x129A PUSH2 0x1176 JUMP JUMPDEST JUMPDEST PUSH1 0x0 PUSH2 0x12A9 DUP5 DUP3 DUP6 ADD PUSH2 0x11FA JUMP JUMPDEST SWAP2 POP POP SWAP3 SWAP2 POP POP JUMP JUMPDEST PUSH2 0x12BB DUP2 PUSH2 0x11D9 JUMP JUMPDEST DUP3 MSTORE POP POP JUMP JUMPDEST PUSH1 0x0 PUSH1 0x20 DUP3 ADD SWAP1 POP PUSH2 0x12D6 PUSH1 0x0 DUP4 ADD DUP5 PUSH2 0x12B2 JUMP JUMPDEST SWAP3 SWAP2 POP POP JUMP JUMPDEST PUSH1 0x0 PUSH1 0x20 DUP3 DUP5 SUB SLT ISZERO PUSH2 0x12F2 JUMPI PUSH2 0x12F1 PUSH2 0x1176 JUMP JUMPDEST JUMPDEST PUSH1 0x0 PUSH2 0x1300 DUP5 DUP3 DUP6 ADD PUSH2 0x11C4 JUMP JUMPDEST SWAP2 POP POP SWAP3 SWAP2 POP POP JUMP JUMPDEST PUSH2 0x1312 DUP2 PUSH2 0x119B JUMP JUMPDEST DUP3 MSTORE POP POP JUMP JUMPDEST PUSH1 0x0 PUSH1 0x20 DUP3 ADD SWAP1 POP PUSH2 0x132D PUSH1 0x0 DUP4 ADD DUP5 PUSH2 0x1309 JUMP JUMPDEST SWAP3 SWAP2 POP POP JUMP JUMPDEST PUSH1 0x0 DUP1 PUSH1 0x0 PUSH1 0x60 DUP5 DUP7 SUB SLT ISZERO PUSH2 0x134C JUMPI PUSH2 0x134B PUSH2 0x1176 JUMP JUMPDEST JUMPDEST PUSH1 0x0 PUSH2 0x135A DUP7 DUP3 DUP8 ADD PUSH2 0x11C4 JUMP JUMPDEST SWAP4 POP POP PUSH1 0x20 PUSH2 0x136B DUP7 DUP3 DUP8 ADD PUSH2 0x11C4 JUMP JUMPDEST SWAP3 POP POP PUSH1 0x40 PUSH2 0x137C DUP7 DUP3 DUP8 ADD PUSH2 0x11FA JUMP JUMPDEST SWAP2 POP POP SWAP3 POP SWAP3 POP SWAP3 JUMP JUMPDEST PUSH1 0x0 PUSH1 0xFF DUP3 AND SWAP1 POP SWAP2 SWAP1 POP JUMP JUMPDEST PUSH2 0x139C DUP2 PUSH2 0x1386 JUMP JUMPDEST DUP3 MSTORE POP POP JUMP JUMPDEST PUSH1 0x0 PUSH1 0x20 DUP3 ADD SWAP1 POP PUSH2 0x13B7 PUSH1 0x0 DUP4 ADD DUP5 PUSH2 0x1393 JUMP JUMPDEST SWAP3 SWAP2 POP POP JUMP JUMPDEST PUSH1 0x0 DUP1 PUSH1 0x40 DUP4 DUP6 SUB SLT ISZERO PUSH2 0x13D4 JUMPI PUSH2 0x13D3 PUSH2 0x1176 JUMP JUMPDEST JUMPDEST PUSH1 0x0 PUSH2 0x13E2 DUP6 DUP3 DUP7 ADD PUSH2 0x11C4 JUMP JUMPDEST SWAP3 POP POP PUSH1 0x20 PUSH2 0x13F3 DUP6 DUP3 DUP7 ADD PUSH2 0x11C4 JUMP JUMPDEST SWAP2 POP POP SWAP3 POP SWAP3 SWAP1 POP JUMP JUMPDEST PUSH32 0x4E487B7100000000000000000000000000000000000000000000000000000000 PUSH1 0x0 MSTORE PUSH1 0x22 PUSH1 0x4 MSTORE PUSH1 0x24 PUSH1 0x0 REVERT JUMPDEST PUSH1 0x0 PUSH1 0x2 DUP3 DIV SWAP1 POP PUSH1 0x1 DUP3 AND DUP1 PUSH2 0x1444 JUMPI PUSH1 0x7F DUP3 AND SWAP2 POP JUMPDEST PUSH1 0x20 DUP3 LT DUP2 SUB PUSH2 0x1457 JUMPI PUSH2 0x1456 PUSH2 0x13FD JUMP JUMPDEST JUMPDEST POP SWAP2 SWAP1 POP JUMP JUMPDEST PUSH32 0x56524332353A206E6F7420656E6F75676820746F6B656E7320666F7220617070 PUSH1 0x0 DUP3 ADD MSTORE PUSH32 0x726F76616C206665650000000000000000000000000000000000000000000000 PUSH1 0x20 DUP3 ADD MSTORE POP JUMP JUMPDEST PUSH1 0x0 PUSH2 0x14B9 PUSH1 0x29 DUP4 PUSH2 0x10CF JUMP JUMPDEST SWAP2 POP PUSH2 0x14C4 DUP3 PUSH2 0x145D JUMP JUMPDEST PUSH1 0x40 DUP3 ADD SWAP1 POP SWAP2 SWAP1 POP JUMP JUMPDEST PUSH1 0x0 PUSH1 0x20 DUP3 ADD SWAP1 POP DUP2 DUP2 SUB PUSH1 0x0 DUP4 ADD MSTORE PUSH2 0x14E8 DUP2 PUSH2 0x14AC JUMP JUMPDEST SWAP1 POP SWAP2 SWAP1 POP JUMP JUMPDEST PUSH32 0x56524332353A206E6F7420656E6F75676820616C6C6F77616E636520666F7220 PUSH1 0x0 DUP3 ADD MSTORE PUSH32 0x7472616E7366657220616E642066656500000000000000000000000000000000 PUSH1 0x20 DUP3 ADD MSTORE POP JUMP JUMPDEST PUSH1 0x0 PUSH2 0x154B PUSH1 0x30 DUP4 PUSH2 0x10CF JUMP JUMPDEST SWAP2 POP PUSH2 0x1556 DUP3 PUSH2 0x14EF JUMP JUMPDEST PUSH1 0x40 DUP3 ADD SWAP1 POP SWAP2 SWAP1 POP JUMP JUMPDEST PUSH1 0x0 PUSH1 0x20 DUP3 ADD SWAP1 POP DUP2 DUP2 SUB PUSH1 0x0 DUP4 ADD MSTORE PUSH2 0x157A DUP2 PUSH2 0x153E JUMP JUMPDEST SWAP1 POP SWAP2 SWAP1 POP JUMP JUMPDEST PUSH32 0x56524332353A206E6F7420656E6F75676820746F6B656E7320666F7220747261 PUSH1 0x0 DUP3 ADD MSTORE PUSH32 0x6E7366657220616E642066656500000000000000000000000000000000000000 PUSH1 0x20 DUP3 ADD MSTORE POP JUMP JUMPDEST PUSH1 0x0 PUSH2 0x15DD PUSH1 0x2D DUP4 PUSH2 0x10CF JUMP JUMPDEST SWAP2 POP PUSH2 0x15E8 DUP3 PUSH2 0x1581 JUMP JUMPDEST PUSH1 0x40 DUP3 ADD SWAP1 POP SWAP2 SWAP1 POP JUMP JUMPDEST PUSH1 0x0 PUSH1 0x20 DUP3 ADD SWAP1 POP DUP2 DUP2 SUB PUSH1 0x0 DUP4 ADD MSTORE PUSH2 0x160C DUP2 PUSH2 0x15D0 JUMP JUMPDEST SWAP1 POP SWAP2 SWAP1 POP JUMP JUMPDEST PUSH32 0x4E487B7100000000000000000000000000000000000000000000000000000000 PUSH1 0x0 MSTORE PUSH1 0x11 PUSH1 0x4 MSTORE PUSH1 0x24 PUSH1 0x0 REVERT JUMPDEST PUSH1 0x0 PUSH2 0x164D DUP3 PUSH2 0x11D9 JUMP JUMPDEST SWAP2 POP PUSH2 0x1658 DUP4 PUSH2 0x11D9 JUMP JUMPDEST SWAP3 POP DUP3 DUP3 ADD SWAP1 POP DUP1 DUP3 GT ISZERO PUSH2 0x1670 JUMPI PUSH2 0x166F PUSH2 0x1613 JUMP JUMPDEST JUMPDEST SWAP3 SWAP2 POP POP JUMP JUMPDEST PUSH32 0x45524332303A2064656372656173656420616C6C6F77616E63652062656C6F77 PUSH1 0x0 DUP3 ADD MSTORE PUSH32 0x207A65726F000000000000000000000000000000000000000000000000000000 PUSH1 0x20 DUP3 ADD MSTORE POP JUMP JUMPDEST PUSH1 0x0 PUSH2 0x16D2 PUSH1 0x25 DUP4 PUSH2 0x10CF JUMP JUMPDEST SWAP2 POP PUSH2 0x16DD DUP3 PUSH2 0x1676 JUMP JUMPDEST PUSH1 0x40 DUP3 ADD SWAP1 POP SWAP2 SWAP1 POP JUMP JUMPDEST PUSH1 0x0 PUSH1 0x20 DUP3 ADD SWAP1 POP DUP2 DUP2 SUB PUSH1 0x0 DUP4 ADD MSTORE PUSH2 0x1701 DUP2 PUSH2 0x16C5 JUMP JUMPDEST SWAP1 POP SWAP2 SWAP1 POP JUMP JUMPDEST PUSH32 0x4F776E61626C653A206E6577206F776E657220697320746865207A65726F2061 PUSH1 0x0 DUP3 ADD MSTORE PUSH32 0x6464726573730000000000000000000000000000000000000000000000000000 PUSH1 0x20 DUP3 ADD MSTORE POP JUMP JUMPDEST PUSH1 0x0 PUSH2 0x1764 PUSH1 0x26 DUP4 PUSH2 0x10CF JUMP JUMPDEST SWAP2 POP PUSH2 0x176F DUP3 PUSH2 0x1708 JUMP JUMPDEST PUSH1 0x40 DUP3 ADD SWAP1 POP SWAP2 SWAP1 POP JUMP JUMPDEST PUSH1 0x0 PUSH1 0x20 DUP3 ADD SWAP1 POP DUP2 DUP2 SUB PUSH1 0x0 DUP4 ADD MSTORE PUSH2 0x1793 DUP2 PUSH2 0x1757 JUMP JUMPDEST SWAP1 POP SWAP2 SWAP1 POP JUMP JUMPDEST PUSH32 0x45524332303A20617070726F76652066726F6D20746865207A65726F20616464 PUSH1 0x0 DUP3 ADD MSTORE PUSH32 0x7265737300000000000000000000000000000000000000000000000000000000 PUSH1 0x20 DUP3 ADD MSTORE POP JUMP JUMPDEST PUSH1 0x0 PUSH2 0x17F6 PUSH1 0x24 DUP4 PUSH2 0x10CF JUMP JUMPDEST SWAP2 POP PUSH2 0x1801 DUP3 PUSH2 0x179A JUMP JUMPDEST PUSH1 0x40 DUP3 ADD SWAP1 POP SWAP2 SWAP1 POP JUMP JUMPDEST PUSH1 0x0 PUSH1 0x20 DUP3 ADD SWAP1 POP DUP2 DUP2 SUB PUSH1 0x0 DUP4 ADD MSTORE PUSH2 0x1825 DUP2 PUSH2 0x17E9 JUMP JUMPDEST SWAP1 POP SWAP2 SWAP1 POP JUMP JUMPDEST PUSH32 0x45524332303A20617070726F766520746F20746865207A65726F206164647265 PUSH1 0x0 DUP3 ADD MSTORE PUSH32 0x7373000000000000000000000000000000000000000000000000000000000000 PUSH1 0x20 DUP3 ADD MSTORE POP JUMP JUMPDEST PUSH1 0x0 PUSH2 0x1888 PUSH1 0x22 DUP4 PUSH2 0x10CF JUMP JUMPDEST SWAP2 POP PUSH2 0x1893 DUP3 PUSH2 0x182C JUMP JUMPDEST PUSH1 0x40 DUP3 ADD SWAP1 POP SWAP2 SWAP1 POP JUMP JUMPDEST PUSH1 0x0 PUSH1 0x20 DUP3 ADD SWAP1 POP DUP2 DUP2 SUB PUSH1 0x0 DUP4 ADD MSTORE PUSH2 0x18B7 DUP2 PUSH2 0x187B JUMP JUMPDEST SWAP1 POP SWAP2 SWAP1 POP JUMP JUMPDEST PUSH32 0x4E487B7100000000000000000000000000000000000000000000000000000000 PUSH1 0x0 MSTORE PUSH1 0x12 PUSH1 0x4 MSTORE PUSH1 0x24 PUSH1 0x0 REVERT JUMPDEST PUSH1 0x0 PUSH2 0x18F8 DUP3 PUSH2 0x11D9 JUMP JUMPDEST SWAP2 POP PUSH2 0x1903 DUP4 PUSH2 0x11D9 JUMP JUMPDEST SWAP3 POP DUP3 PUSH2 0x1913 JUMPI PUSH2 0x1912 PUSH2 0x18BE JUMP JUMPDEST JUMPDEST DUP3 DUP3 DIV SWAP1 POP SWAP3 SWAP2 POP POP JUMP JUMPDEST PUSH32 0x45524332303A207472616E736665722066726F6D20746865207A65726F206164 PUSH1 0x0 DUP3 ADD MSTORE PUSH32 0x6472657373000000000000000000000000000000000000000000000000000000 PUSH1 0x20 DUP3 ADD MSTORE POP JUMP JUMPDEST PUSH1 0x0 PUSH2 0x197A PUSH1 0x25 DUP4 PUSH2 0x10CF JUMP JUMPDEST SWAP2 POP PUSH2 0x1985 DUP3 PUSH2 0x191E JUMP JUMPDEST PUSH1 0x40 DUP3 ADD SWAP1 POP SWAP2 SWAP1 POP JUMP JUMPDEST PUSH1 0x0 PUSH1 0x20 DUP3 ADD SWAP1 POP DUP2 DUP2 SUB PUSH1 0x0 DUP4 ADD MSTORE PUSH2 0x19A9 DUP2 PUSH2 0x196D JUMP JUMPDEST SWAP1 POP SWAP2 SWAP1 POP JUMP JUMPDEST PUSH32 0x45524332303A207472616E7366657220746F20746865207A65726F2061646472 PUSH1 0x0 DUP3 ADD MSTORE PUSH32 0x6573730000000000000000000000000000000000000000000000000000000000 PUSH1 0x20 DUP3 ADD MSTORE POP JUMP JUMPDEST PUSH1 0x0 PUSH2 0x1A0C PUSH1 0x23 DUP4 PUSH2 0x10CF JUMP JUMPDEST SWAP2 POP PUSH2 0x1A17 DUP3 PUSH2 0x19B0 JUMP JUMPDEST PUSH1 0x40 DUP3 ADD SWAP1 POP SWAP2 SWAP1 POP JUMP JUMPDEST PUSH1 0x0 PUSH1 0x20 DUP3 ADD SWAP1 POP DUP2 DUP2 SUB PUSH1 0x0 DUP4 ADD MSTORE PUSH2 0x1A3B DUP2 PUSH2 0x19FF JUMP JUMPDEST SWAP1 POP SWAP2 SWAP1 POP JUMP JUMPDEST PUSH32 0x45524332303A207472616E7366657220616D6F756E7420657863656564732062 PUSH1 0x0 DUP3 ADD MSTORE PUSH32 0x616C616E63650000000000000000000000000000000000000000000000000000 PUSH1 0x20 DUP3 ADD MSTORE POP JUMP JUMPDEST PUSH1 0x0 PUSH2 0x1A9E PUSH1 0x26 DUP4 PUSH2 0x10CF JUMP JUMPDEST SWAP2 POP PUSH2 0x1AA9 DUP3 PUSH2 0x1A42 JUMP JUMPDEST PUSH1 0x40 DUP3 ADD SWAP1 POP SWAP2 SWAP1 POP JUMP JUMPDEST PUSH1 0x0 PUSH1 0x20 DUP3 ADD SWAP1 POP DUP2 DUP2 SUB PUSH1 0x0 DUP4 ADD MSTORE PUSH2 0x1ACD DUP2 PUSH2 0x1A91 JUMP JUMPDEST SWAP1 POP SWAP2 SWAP1 POP JUMP JUMPDEST PUSH1 0x0 PUSH2 0x1ADF DUP3 PUSH2 0x11D9 JUMP JUMPDEST SWAP2 POP PUSH2 0x1AEA DUP4 PUSH2 0x11D9 JUMP JUMPDEST SWAP3 POP DUP3 DUP3 SUB SWAP1 POP DUP2 DUP2 GT ISZERO PUSH2 0x1B02 JUMPI PUSH2 0x1B01 PUSH2 0x1613 JUMP JUMPDEST JUMPDEST SWAP3 SWAP2 POP POP JUMP JUMPDEST PUSH32 0x4F776E61626C653A2063616C6C6572206973206E6F7420746865206F776E6572 PUSH1 0x0 DUP3 ADD MSTORE POP JUMP JUMPDEST PUSH1 0x0 PUSH2 0x1B3E PUSH1 0x20 DUP4 PUSH2 0x10CF JUMP JUMPDEST SWAP2 POP PUSH2 0x1B49 DUP3 PUSH2 0x1B08 JUMP JUMPDEST PUSH1 0x20 DUP3 ADD SWAP1 POP SWAP2 SWAP1 POP JUMP JUMPDEST PUSH1 0x0 PUSH1 0x20 DUP3 ADD SWAP1 POP DUP2 DUP2 SUB PUSH1 0x0 DUP4 ADD MSTORE PUSH2 0x1B6D DUP2 PUSH2 0x1B31 JUMP JUMPDEST SWAP1 POP SWAP2 SWAP1 POP JUMP INVALID LOG2 PUSH5 0x6970667358 0x22 SLT KECCAK256 GASLIMIT 0x29 BLOCKHASH 0xC SDIV PUSH12 0x31015062CA68775E64DB4E14 0xBA 0xC3 0xB1 0xF ADDMOD 0xA7 LOG1 0x5C LT OR DUP9 LT 0xB1 0xE9 PUSH5 0x736F6C6343 STOP ADDMOD GT STOP CALLER "
				},
				"gasEstimates": {
					"creation": {
						"codeDepositCost": "1416400",
						"executionCost": "infinite",
						"totalCost": "infinite"
					},
					"external": {
						"allowance(address,address)": "infinite",
						"approve(address,uint256)": "infinite",
						"balanceOf(address)": "2908",
						"decimals()": "2590",
						"decreaseAllowance(address,uint256)": "infinite",
						"estimateFee(uint256)": "infinite",
						"increaseAllowance(address,uint256)": "infinite",
						"isContract(address)": "3359",
						"issuer()": "2602",
						"minFee()": "2526",
						"name()": "infinite",
						"owner()": "2633",
						"renounceOwnership()": "30487",
						"setMinFee(uint256)": "24807",
						"symbol()": "infinite",
						"totalSupply()": "2460",
						"transfer(address,uint256)": "infinite",
						"transferFrom(address,address,uint256)": "infinite",
						"transferOwnership(address)": "30854"
					},
					"internal": {
						"_chargeFeeFrom(address,uint256)": "infinite"
					}
				},
				"methodIdentifiers": {
					"allowance(address,address)": "dd62ed3e",
					"approve(address,uint256)": "095ea7b3",
					"balanceOf(address)": "70a08231",
					"decimals()": "313ce567",
					"decreaseAllowance(address,uint256)": "a457c2d7",
					"estimateFee(uint256)": "127e8e4d",
					"increaseAllowance(address,uint256)": "39509351",
					"isContract(address)": "16279055",
					"issuer()": "1d143848",
					"minFee()": "24ec7590",
					"name()": "06fdde03",
					"owner()": "8da5cb5b",
					"renounceOwnership()": "715018a6",
					"setMinFee(uint256)": "31ac9920",
					"symbol()": "95d89b41",
					"totalSupply()": "18160ddd",
					"transfer(address,uint256)": "a9059cbb",
					"transferFrom(address,address,uint256)": "23b872dd",
					"transferOwnership(address)": "f2fde38b"
				}
			},
			"storageLayout": {
				"storage": [
					{
						"astId": 488,
						"contract": "contract/tokens.sol:SimpleVRC25Token",
						"label": "_balances",
						"offset": 0,
						"slot": "0",
						"type": "t_mapping(t_address,t_uint256)"
					},
					{
						"astId": 494,
						"contract": "contract/tokens.sol:SimpleVRC25Token",
						"label": "_allowances",
						"offset": 0,
						"slot": "1",
						"type": "t_mapping(t_address,t_mapping(t_address,t_uint256))"
					},
					{
						"astId": 496,
						"contract": "contract/tokens.sol:SimpleVRC25Token",
						"label": "_totalSupply",
						"offset": 0,
						"slot": "2",
						"type": "t_uint256"
					},
					{
						"astId": 498,
						"contract": "contract/tokens.sol:SimpleVRC25Token",
						"label": "_name",
						"offset": 0,
						"slot": "3",
						"type": "t_string_storage"
					},
					{
						"astId": 500,
						"contract": "contract/tokens.sol:SimpleVRC25Token",
						"label": "_symbol",
						"offset": 0,
						"slot": "4",
						"type": "t_string_storage"
					},
					{
						"astId": 367,
						"contract": "contract/tokens.sol:SimpleVRC25Token",
						"label": "_owner",
						"offset": 0,
						"slot": "5",
						"type": "t_address"
					},
					{
						"astId": 42,
						"contract": "contract/tokens.sol:SimpleVRC25Token",
						"label": "_minFee",
						"offset": 0,
						"slot": "6",
						"type": "t_uint256"
					},
					{
						"astId": 78,
						"contract": "contract/tokens.sol:SimpleVRC25Token",
						"label": "_customDecimals",
						"offset": 0,
						"slot": "7",
						"type": "t_uint8"
					}
				],
				"types": {
					"t_address": {
						"encoding": "inplace",
						"label": "address",
						"numberOfBytes": "20"
					},
					"t_mapping(t_address,t_mapping(t_address,t_uint256))": {
						"encoding": "mapping",
						"key": "t_address",
						"label": "mapping(address => mapping(address => uint256))",
						"numberOfBytes": "32",
						"value": "t_mapping(t_address,t_uint256)"
					},
					"t_mapping(t_address,t_uint256)": {
						"encoding": "mapping",
						"key": "t_address",
						"label": "mapping(address => uint256)",
						"numberOfBytes": "32",
						"value": "t_uint256"
					},
					"t_string_storage": {
						"encoding": "bytes",
						"label": "string",
						"numberOfBytes": "32"
					},
					"t_uint256": {
						"encoding": "inplace",
						"label": "uint256",
						"numberOfBytes": "32"
					},
					"t_uint8": {
						"encoding": "inplace",
						"label": "uint8",
						"numberOfBytes": "1"
					}
				}
			},
			"userdoc": {
				"kind": "user",
				"methods": {},
				"version": 1
			}
		}
	}
}